:1000000080313728FF3FFF3F7E14803120007F087A
:10001000F2008B1A0B1D10289E31062680313228E3
:100020000B1F1C282100111E1C282000111E1C283B
:100030009D314A25803132280B1F28282100911E2E
:1000400028282000911E28289031942080313228C1
:100050000B1F32282100111C32282000111C3228CD
:100060009E31172672082000FF007E1009008031A3
:10007000392822009D3154258031EC009D315525D1
:100080008031ED009D3156258031EE009D315725A0
:100090008031EF006E3084009D3085002300120017
:1000A000D6001200D7001200D8001200D9001200AA
:1000B000DA001200DB0070308400233085008030CD
:1000C000FE000030FF009D31B0258031F801F901BC
:1000D000FA01D7308400003085001930FE0000306E
:1000E000FF009D31B0258031203084000130850033
:1000F0004C30FE000030FF009D31B0258031A03033
:100100008400013085003630FE000030FF009D3154
:10011000B025803120308400023085004030FE0060
:100120000030FF009D31B0257E10200087310F2F59
:100130000034C034C1340134C33403340234C23413
:10014000C63406340734C7340534C534C4340434E3
:10015000CC340C340D34CD340F34CF34CE340E3493
:100160000A34CA34CB340B34C93409340834C834A3
:10017000D83418341934D9341B34DB34DA341A3413
:100180001E34DE34DF341F34DD341D341C34DC34E3
:100190001434D434D5341534D73417341634D63413
:1001A000D23412341334D3341134D134D034103423
:1001B000F03430343134F1343334F334F234323413
:1001C0003634F634F7343734F53435343434F434E3
:1001D0003C34FC34FD343D34FF343F343E34FE3493
:1001E000FA343A343B34FB343934F934F8343834A3
:1001F0002834E834E9342934EB342B342A34EA3413
:10020000EE342E342F34EF342D34ED34EC342C34E2
:10021000E43424342534E5342734E734E634263412
:100220002234E234E3342334E13421342034E03422
:10023000A03460346134A1346334A334A234623412
:100240006634A634A7346734A53465346434A434E2
:100250006C34AC34AD346D34AF346F346E34AE3492
:10026000AA346A346B34AB346934A934A8346834A2
:100270007834B834B9347934BB347B347A34BA3412
:10028000BE347E347F34BF347D34BD34BC347C34E2
:10029000B43474347534B5347734B734B634763412
:1002A0007234B234B3347334B13471347034B03422
:1002B0005034903491345134933453345234923412
:1002C00096345634573497345534953494345434E2
:1002D0009C345C345D349D345F349F349E345E3492
:1002E0005A349A349B345B349934593458349834A2
:1002F00088344834493489344B348B348A344A3412
:100300004E348E348F344F348D344D344C348C34E1
:100310004434843485344534873447344634863411
:100320008234423443348334413481348034403421
:100330000034C134813440340134C0348034413419
:100340000134C034803441340034C1348134403409
:100350000134C034803441340034C13481344034F9
:100360000034C134813440340134C03480344134E9
:100370000134C034803441340034C13481344034D9
:100380000034C134813440340134C03480344134C9
:100390000034C134813440340134C03480344134B9
:1003A0000134C034803441340034C13481344034A9
:1003B0000134C034803441340034C1348134403499
:1003C0000034C134813440340134C0348034413489
:1003D0000034C134813440340134C0348034413479
:1003E0000134C034803441340034C1348134403469
:1003F0000034C134813440340134C0348034413459
:100400000134C034803441340034C1348134403448
:100410000134C034803441340034C1348134403438
:100420000034C134813440340134C0348034413428
:100430000134C034803441340034C1348134403418
:100440000034C134813440340134C0348034413408
:100450000034C134813440340134C03480344134F8
:100460000134C034803441340034C13481344034E8
:100470000034C134813440340134C03480344134D8
:100480000134C034803441340034C13481344034C8
:100490000134C034803441340034C13481344034B8
:1004A0000034C134813440340134C03480344134A8
:1004B0000034C134813440340134C0348034413498
:1004C0000134C034803441340034C1348134403488
:1004D0000134C034803441340034C1348134403478
:1004E0000034C134813440340134C0348034413468
:1004F0000134C034803441340034C1348134403458
:100500000034C134813440340134C0348034413447
:100510000034C134813440340134C0348034413437
:100520000134C034803441340034C1348134403427
:10053000303431343234333434343534363437347F
:100540003834393461346234633464346534663445
:100550006734683469346A346B346C346D346E34A7
:100560006F34703471347234733474347534763457
:100570007734783479347A342E342D343A34203444
:1005800000343F3430345B344F3466346D347D3462
:1005900007347F346F3477347C3439345E347934C3
:1005A00071346F34763430340E34003438340034DF
:1005B00037343F347334673431346D3478343E34F7
:1005C0000034003400346E345B34403440344834FA
:1005D0000034303431343234333434343534363416
:1005E00037343834393461346234633464346534D4
:1005F00066340034FF34FE34FC34F834F034E03434
:10060000C0348034FF34FF34FF34FF34FF34FF3410
:10061000FF34073480346934FF34FF34FF34FF344F
:10062000FF34FF34D4345534FF34FF34FF34FF3407
:10063000FF34FF341134333455347734AA34BB34A7
:10064000083477348F34693466342D3420342034C0
:100650002034203420342034003473342D342034BA
:1006600020342034203420342034003466342D34B7
:1006700067346F346F34643420342034003473347E
:100680002D3467346F346F346434203420340034B4
:1006900069346E34693474346934613420342034FC
:1006A000003475347034203464346134743461340B
:1006B00020340034733475346334633465347334F4
:1006C00073342034003420342D34683465346C3471
:1006D0006C346F342D3400346334613472346434D8
:1006E0002D3469346434303400346334613472340A
:1006F00064342D34693464343934003472346534EC
:1007000063346834613472346734653400346E3471
:100710006F3465346E346F34753467346834003444
:100720006134633474342D346F34703465346E3412
:1007300000346134633474342D346F347034653470
:10074000723400347634653472343D346534723436
:1007500072340034203420342034633475342D3422
:10076000003420346334733437343034303400345C
:100770007634653472343D34323400346434313488
:100780002034203420340034643432342034203493
:100790002034003464343134203420342D34003497
:1007A00064343234203420342D34003461346434E1
:1007B000643472342D34003420346534723472342D
:1007C0002D3400347034733464342D340034643484
:1007D0006A342D34003473346A342D3400346C346C
:1007E0002D3400342100BD00B901B90A5130200078
:1007F0004B02031CFD2B063008008030CC004C0857
:10080000A2000E309E31AA2683312100A6012100CC
:100810002608031DF92E3903031D282C93302000D0
:10082000CC004C082100AE00BA01A90120004B0801
:100830000319252C21003D08860001308700053072
:100840000102031C252CA901A90A210029084A2C10
:1008500002303906031D502C95302000CC004C0886
:100860002100AE0003302000CC004C082100BA006B
:10087000AA0120004B080319482C21003D088600DE
:100880000130870008300102031C482CAA01AA0A83
:1008900021002A082000CC004C082100B800642C5C
:1008A00003303906031D622C97302000CC004C0821
:1008B0002100AE0006302000CC004C082100BA0018
:1008C000B801642C053008003A082000CC00CD01A6
:1008D000CC35CD0DCC35CD0DCC35CD0D4D08803A78
:1008E000803C031D752C4C084B0203187A2C210008
:1008F000C3018B2C21003A082000CC000230CC35FB
:10090000FF3E031D7F2C4C35FF3A013E4B07CD00C7
:100910004D082100C30002302000CC004C0821000B
:10092000C20038080319A42C88302000CC00210014
:100930004208AE3E8600870120004C08810001304D
:10094000CC004C082100C2070830F3000030F4004E
:1009500043082000CC00CD014C08F5004D08F600FE
:1009600095314025833173082000CE007408CF00F4
:100970002100430807390319BF2C0130C02C003077
:1009800020004E07D00050082100BB003B0803198F
:10099000072D3808031DCE2C0430CF2C0330A000C7
:1009A0000030A10020082000CC004C082100AC0041
:1009B0003B082C020318E22C2C082000CC004C0829
:1009C0002100BB00C1013B0841020318072D3A0872
:1009D0004107013E3D072000CC004C088600013055
:1009E00087000108CD0021004208AE3E8600870145
:1009F00020004D0881000130CC004C082100C207C6
:100A000001302000CC004C082100C107E32C38083D
:100A10000319102D08302000CC004C082100C3071A
:100A2000A70121002708031D652E20304302031C67
:100A3000512D70302000CC004C082100AF00300850
:100A40003106320633062000CC004C082100B400E9
:100A5000AE302000A6000030A7000730CC004C08C4
:100A6000A800B530A9000030AA00973119278331BA
:100A70002000CD004D082100C00040080319422D80
:100A800040080800BF0109302000CC004C082100BC
:100A9000A800B4302000CC004C082100BE00033078
:100AA0009A2D430807392000CC004C082100BF00D4
:100AB0000830F3000030F40043082000CC00CD01E2
:100AC0004C08F5004D08F600953140258331730838
:100AD0002000CE004E082100C1004108023E200047
:100AE000CC004C082100C20042082000CC0003309A
:100AF000CC35FF3E031D782D4C3521003F072000EB
:100B0000CD004D082100AF003F080319892D0130A9
:100B10008A2D003042072000CC004C082100A8009C
:100B20004208AE3E2000CC004C082100BE0042032B
:100B3000FF3A093E2000CC004C082100BC003F08D1
:100B40002000CC004C082100AB002B082000CC007A
:100B50000330CC35FF3E031DA92D4C3521003F0746
:100B60002000CD004D08F7000D309E31392683312D
:100B700030302000CC004C08B100AE30B200003064
:100B8000B300210028082000CD004D08B40021004A
:100B90003E082000B5000030B600BC30B700003081
:100BA000B800BF30CE004E08B90021002B0820004D
:100BB000CF004F08BA00BB010C308A31B522833117
:100BC0002000D00050082100C00002304006031D64
:100BD000512E0E309F31092783312000CC004C0864
:100BE0002100AD00AD1EF62D023008002D081F3982
:100BF0002000CC004C082100B7003708031D062E4A
:100C000020302000CC004C082100B70037084302F8
:100C1000031C0C2E0530080037082000CC004C08BF
:100C20002100C3004308FF3E07392000CC004C08D8
:100C30002100C1000830F3000030F4004308200018
:100C4000CC00CD014C08F5004D08F600953140254B
:100C5000833173082000CE007408CF0021004108C2
:100C60000319342E0130352E003020004E07013E8E
:100C7000D00050082100C20001302000CC0021002B
:100C8000410A2000442ECC35890B432E4C08CD0060
:100C900021004208AE3E8600870120004D088104F5
:100CA000112D210040080319572E4008080020305C
:100CB0004302031C5E2EA701A70A112D203020003D
:100CC000CC004C082100C300112D883030060319D8
:100CD0006B2E02306C2E0330A2000030A3002208DD
:100CE0002000CC004C082100C200883030060319D7
:100CF0007B2E04307C2E0330A4000030A500240895
:100D00002000CC004C082100BB00C1013B0841027F
:100D10000318AA2E4208AE3E860087010108200073
:100D2000CC0021003A084107013E3D072000CD00DC
:100D30004D088600013087004C0881000130CC004E
:100D40004C082100C20701302000CC004C082100D3
:100D5000C107862E03303C0603193F080319B22E43
:100D6000013008003E082000A6000030A700A801BE
:100D7000A80AB030A9000030AA00973119278331A2
:100D80002000CC004C082100C00040080319CA2EE6
:100D9000400808003E0A8600870130080106031D4E
:100DA000D92E3E08023E860087013108010603194C
:100DB000DB2E073008003E0886008701011DE72E64
:100DC00001302000CC004C082100B907072CA601F7
:100DD000A60A3E088600870101082000CC002100F9
:100DE0003D080B3E86000130870020004C08810042
:100DF000072C03302000CC004C08F30021003908F8
:100E00009E315B26013E2000CD0021003D0886007A
:100E10000130870020004D0881000030080072304A
:100E20002100D4000E30D500D4302000EE006E0832
:100E30002100D60056088600870101082000EE0038
:100E40006E082100D20001302000EE006E08210063
:100E5000D60756088600870101082000EE006E08BC
:100E60002100D30000009E317F2687319531E62591
:100E70008731210091128931372187318931C12190
:100E800087319E316C268731013A031D4C2FB830D3
:100E90002000A2008330502FA2302000A200833017
:100EA000A30094310F2487319D317425873190310F
:100EB000DF208731023021006406031D6A2F933141
:100EC0003023873121006508031D692FE501E50AFC
:100ED0006A2FE5016508031DA72F24302000A2001A
:100EE0008330A30094310F2487318D31AF258731B2
:100EF000003A0319572F36302000A2008330A30098
:100F000094310F2487314C30F3009030F4009D3140
:100F1000BC2587314C30F3009030F4009D31BC2566
:100F200087314C30F3009030F4009D31BC2587317F
:100F30004C30F3009030F4009D31BC2587314C30AB
:100F4000F3009030F4009D31BC258731572F2D30B0
:100F50002000A2008330A30094310F2487318C310C
:100F600002248731003A0319572F3F302000A20096
:100F70008330A30094310F2487314C30F30090303C
:100F8000F4009D31BC2587314C30F3009030F400E3
:100F90009D31BC2587314C30F3009030F4009D31F9
:100FA000BC2587314C30F3009030F4009D31BC25D6
:100FB00087314C30F3009030F4009D31BC258731EF
:100FC000572F2000A1017708210203180800760896
:100FD0009D31A42587312000A00074088600750883
:100FE0008700200881000130F4070030F53D013012
:100FF000A0002008F6070130A0002008A107E32F79
:10100000FF3F50302000CB004B08CE00CF014E30C8
:10101000A6000030A7000230CB004B08A8005030DB
:10102000A9000030AA009731192788312000CC0090
:101030004C08D2005208031D08003030CB004B088A
:10104000B1004E30B2000030B3000430CC004C0888
:10105000B4000030B5000030B6000030B7000030FA
:10106000B800B901BA01BB010C308A31B5222000A9
:10107000CD004D08D200080021008D120E118E11F6
:101080000E128E1622008D160E158E158E16373006
:10109000F3000730F4009D31BC25883122008D1209
:1010A0003730F3000730F4009D31BC258831220031
:1010B0008D163730F3000730F4009D31BC258831A0
:1010C0009E314A2688313730F3000730F4009D31D5
:1010D000BC25883180302000A8002808F7002A307D
:1010E0009E3139268831A9302000A8002808F70051
:1010F0002B309E313926883104302000A800280882
:10110000F7002C309E3139268831E8302000A800C5
:101110002808F7002D309E313926883140302000D4
:10112000A8002808F70015309E31392688313D3057
:101130002000A8002808F70011309E313926883198
:101140003730F3000730F4009D31BC258831703012
:101150009F31712788319E31D82688313730F3008E
:101160000730F4009D31BC25080020004B084C04DA
:101170000319BE2811304D02031CC0280630080098
:101180005330F3000030F4004C08F6004B08F50033
:101190004D08CF004F08F7009F3156278831533054
:1011A0002000A6000030A7004D08CF004F08A8007F
:1011B0004D08533EA9000030AA0097311927883105
:1011C0002000D0005008E80068080319E9286808E2
:1011D00008000230CF004F08CD073030CF004F0855
:1011E000E5001230CF004F08E700E6016508CF00A8
:1011F0004F08B1005330B2000030B3004D08D000AA
:101200005008B4005330B5000030B6006730B70066
:101210000030B8006630D1005108B900BA01BB01F6
:101220000C308A31B52288312000D2005208E80003
:101230004E080319212903306806031D21290030B7
:101240000800680803192629680808006703031DB9
:101250002D290430660603192F29013008000A30B1
:10126000530603193529FF3008000030080020001C
:10127000B7010030AB00BF30AC004830AD000030EB
:10128000AE009331962389312000B6003608B700AE
:101290003708031DBE297030F4002330F500F60135
:1012A0004830B6003608F7008731E12789317030C1
:1012B0002000AB002330AC004830AD000030AE0061
:1012C0009331962389312000B6003608B7003708DD
:1012D000031D92297030F3002330F4008030F500B4
:1012E000BE30F6004630B6003608F7009F3156276C
:1012F000893170302000AB002330AC004630AD00A7
:101300000030AE009231CE22893170302000A00032
:101310002330A100A2014830B6003608A300903166
:101320003020893100302000A0003F30A10048303B
:10133000B6003608A2009F313C27893100302000DA
:10134000AA003F30AB007030AC002330AD00483015
:10135000B6003608AE009731892789310030200069
:10136000AB00BF30AC004830AD000030AE00933170
:10137000962389312000B6003608B7009D318625B6
:10138000080070302000BD002330BE008030AB006C
:10139000BF30AC007C30AD000030AE0093319623FE
:1013A00089312000B6003608BC003C08031D080047
:1013B0007030F4002330F5008030B6003608F600B7
:1013C0007C30B7003708F7008731E127893170306A
:1013D0002000AB002330AC007C30AD000030AE000C
:1013E0009331962389312000B6003608BC003C08B2
:1013F000031D892ABF011E303F0203184C2A3F08F3
:10140000013EF300003003180130F400D030F50045
:101410000730F60090311220893120003F08B600D5
:10142000B701B635B70DB635B70D36083D0786009E
:1014300037083E3D87007308C03F7408C13F3F082E
:10144000B600B7013608F3003708F4006430F50041
:101450000030F60090311220893120003F08B8009A
:10146000B901B835B90DB835B90D38083D07BA001E
:1014700039083E3DBB003A0886003B0887004231F0
:101480007308C03F7408C13F0130B6003608BF077B
:101490001E303F02031CFF293F08B600B701B635D6
:1014A000B70DB635B70D3608FC3EB800FF30373DF6
:1014B000B90038083D07BA0039083E3DBB003A087C
:1014C00086003B08870042313D08783E84000030AA
:1014D0003E3D8500403F803F413F813F7030AB0043
:1014E0002330AC007A30AD000030AE009231CE2215
:1014F000893170302000A0002330A1008030B60078
:101500003608A2007C30B7003708A30090313020A5
:10151000893180302000A0003F30A1004830B60063
:101520003608A2009F313C27893180302000AA0074
:101530003F30AB007030AC002330AD007C30B600E3
:101540003608AE0097318927893180302000AB0002
:10155000BF30AC007C30AD000030AE00933196233C
:101560002000B6003608BC0008002000C200390880
:10157000031DBD2AC001C101C72A390886008701A1
:101580000108BC00BD013C08C0003D08C100400886
:10159000BC003C08BE003A08BC000330BC35FF3E2E
:1015A000031DCE2A3C353E07BD003D08BF00F701B4
:1015B00001309E3139268A317F302000BC003C0842
:1015C000F70004309E3139268A3180302000BC007B
:1015D0003C08A2000A309E31C1268A31200033081F
:1015E000A1003208A0003408BC003C08A200093069
:1015F0009031B9208A3120003F08BC003C08F70038
:101600000D309E3139268A3120004208BC003C084A
:10161000F70001309E3139268A310C302000420615
:10162000031D1A2B8030BC003C08A2000D309E31F7
:10163000C1268A31D0302000C7000730C8004708D3
:10164000480403193D2B04309F3109278A312000BB
:10165000BC003C08CA004A083105031D3D2B4A1C4A
:10166000332B033008000130C7020030C83B470865
:101670004804031D1F2B0330080006309F31092743
:101680008A312000BC003C08C50045081339031905
:101690004B2B013008003508360403198E2B370810
:1016A000380403198E2B0A309F3109278A31200014
:1016B000BC003C08CA0037088600380887004A0882
:1016C00001020318652B043008003708860038082B
:1016D00087004A0881003608A1003508A0004A08A2
:1016E000BC003C08A2003A08BD003D08A300093038
:1016F0009331CD238A310C309F3109278A31073944
:101700002000BC003C08C900390803198E2B490889
:10171000BC003908860087013C088100C51D922B5A
:1017200002300800350836040319002C3708380445
:101730000319002C3B080319002C370886003808D1
:1017400087000103031DAA2B04304906031DAA2BA1
:10175000FF30080037088600380887000230010291
:10176000031CB52B49080319B72B073008003608AE
:10177000A7003508A600370886003808870001084A
:10178000FE3EBC003C08A8004330A9000030AA007F
:10179000973119278A312000BD003D08C600460850
:1017A0000319D42B4608080037088600380887003C
:1017B0000108FE3EBC00FF3003180030BD003C08AD
:1017C000350786003D08363D870001084306031DA6
:1017D000FE2B37088600380887000108FF3EBC0052
:1017E000FF3003180030BD003C08350786003D0877
:1017F000363D8700010844060319002C0730080015
:10180000003008002100CD019231FF228C31003AD6
:101810000319A42D2000CB01CA308331F2238C316F
:101820002100C4004408CF004F08031DA42D03303D
:10183000C40044082000CB001430CC008330CD001D
:10184000CA302100C50045082000CE006030963126
:1018500045268C312100C6004608CF004F080319E9
:10186000332C003008001230C40044082200EB0082
:1018700020302100C40044082000CB006B30210040
:10188000C50045082000CC000030953192258C31F0
:101890002100C6004608CF004F080319512C003024
:1018A00008007030F3002330F4002030F5000430DD
:1018B000F6001230C4004408F7009F3156278C31DF
:1018C00020302100C4004408F3001A30F4008330B3
:1018D000F500D630913106218C317030F300233081
:1018E000F400F50130302100C4004408F6009D31B9
:1018F000F6258C3107302100C40044082000CB00BD
:101900001430CC008330CD00CA302100C50045081A
:101910002000CE006030963145268C312100C60073
:101920004608CF000430C4004408E20007306202D9
:101930000318E02C3230F3000430F4006208C400D5
:10194000C501C40EC50EF030C50544080F39C504E5
:10195000F030C4054408C03EC600FF30453DC70016
:101960007030C8002330C90046084807F500470812
:10197000493DF6001030CA004A08F7009F3156274B
:101980008C3132302000E9000430EA0010302100B0
:10199000C40044082000EB00210062089431572461
:1019A0008C312100C5004508CF004F08031DE02CF5
:1019B0000130C4004408E20707306202031C9A2C7D
:1019C0003230F3000430F4000230F5008330F600CA
:1019D0001230C4004408F7009F3156278C310B3079
:1019E0002100C4004408CE0010304E020318302DF0
:1019F0004E08C40044082000CB00D630CC00013093
:101A0000CD00CA302100C50045082000CE0061305D
:101A1000963145268C312100C6004608CF00323071
:101A20002000E9000430EA0010302100C40044081E
:101A30002000EB0021004E08943157248C31210006
:101A4000C5004508CF004F080319282D00300800B5
:101A50000430C4004408CE0710304E02031CF82C9A
:101A60007030CB002330CC007030F3002330F40012
:101A7000F5011230C4004408F6009D31F6258C3182
:101A80000B302100C40044082000CB001430CC00EF
:101A90008330CD00CA302100C50045082000CE00AB
:101AA0006030963145268C312100C6004608CF00B3
:101AB00070302000E9002330EA0010302100C4001B
:101AC00044082000EB000830943157248C31210069
:101AD000C5004508CF007030F3002330F400F50155
:101AE0001230C4004408F6009D31F6258C310F30C9
:101AF0002100C40044082000CB001430CC00833007
:101B0000CD00CA302100C50045082000CE0060305D
:101B1000963145268C312100C6004608CF00703032
:101B20002000E9002330EA0010302100C4004408FE
:101B30002000EB000C30943157248C312100C5007B
:101B40004508CF00CD01CD0A883101208C319D316F
:101B50007D258C318831012021004D0808002100AD
:101B6000CB019231FF228D31003A0319F52F20006D
:101B7000CB01CA308331F2238D312100C4004408E7
:101B8000D1005108031DF52F0330C4004408200084
:101B9000CB001430CC008330CD00CA302100C5000A
:101BA00045082000CE006030963145268D31210059
:101BB000C6004608D10051080319E02D0030080086
:101BC0001230C40044082200EB0020302100C40081
:101BD00044082000CB006B302100C50045082000E0
:101BE000CC000030953192258D312100C600460889
:101BF000D10051080319FE2D003008007030F300A9
:101C00002330F4002030F5000430F6001230C40018
:101C10004408F7009F3156278D3120302100C40041
:101C20004408F3001A30F4008330F500D6309131C7
:101C300006218D317030F3002330F400F50130308F
:101C40002100C4004408F6009D31F6258D31703026
:101C50002100CF002330D0004F08860050088700B5
:101C6000643081004F08013EC4000030503DC50083
:101C70004408860045088700AA3081004F08860086
:101C8000500887004831E130C03F1030C13F00307C
:101C9000C23F0030C33F4F088600500887004231E2
:101CA000D230C03F0430C13F4F080C3EC40000306A
:101CB000503DC5004408860045088700FF3081007C
:101CC0004F08203EF3000030503DF4001A30F5007C
:101CD0008330F6000630C4004408F7009F315627D1
:101CE0008D3170302000AB002330AC002E30AD00C1
:101CF0000030AE009231CE228D3107302100C40079
:101D000044082000CB001430CC008330CD00CA3012
:101D10002100C50045082000CE00603096314526E0
:101D20008D312100C6004608D1000430C4004408AB
:101D3000E200073062020318E32E3230F300043071
:101D4000F4006208C400C501C40EC50EF030C5051C
:101D500044080F39C504F030C4054408C03EC6002D
:101D6000FF30453DC7007030C8002330C900460829
:101D70004807F5004708493DF6001030CA004A08F8
:101D8000F7009F3156278D3132302000E9000430B2
:101D9000EA0010302100C40044082000EB002100BC
:101DA0006208943157248D312100C5004508D100C7
:101DB0005108031DE32E0130C4004408E207073038
:101DC0006202031C9D2E3230F3000430F400D63042
:101DD000F5000130F6000630C4004408F7009F31DA
:101DE00056278D313830F3000430F4002030F500F0
:101DF0008330F60004302100C4004408F7009F310E
:101E000056278D313C30F3000430F400D630F50015
:101E10000130F60006302100C4004408F7009F316D
:101E200056278D310B302100C4004408CE001030FD
:101E30004E020318532F4E08C40044082000CB0064
:101E40001430CC008330CD00CA302100C5004508D5
:101E50002000CE006030963145268D312100C6002D
:101E60004608D10032302000E9000430EA0010308A
:101E70002100C40044082000EB0021004E089431EA
:101E800057248D312100C5004508D10051080319A0
:101E90004B2F003008000430C4004408CE07103037
:101EA0004E02031C1B2F7030CC002330CD0070304D
:101EB000F3002330F400F5011230C4004408F600AA
:101EC0009D31F6258D3121004C0886004D08870094
:101ED00044310130C03F0030C13F4C0886004D08FE
:101EE0008700E030C03F9330C13F0430C23F003034
:101EF000C33F70302000AB002330AC000630AD0093
:101F00000030AE009231CE228D310B302100C40062
:101F100044082000CB00D630CC000130CD00CA30C0
:101F20002100C50045082000CE00613096314526CD
:101F30008D312100C6004608D10070302000E90034
:101F40002330EA0010302100C40044082000EB00D8
:101F50000830943157248D312100C5004508D10047
:101F60007030F3002330F400F5011230C40044084F
:101F7000F6009D31F6258D3170302000AB00233006
:101F8000AC000630AD000030AE009231CE228D3173
:101F90000F302100C40044082000CB00D630CC0014
:101FA0000130CD00CA302100C50045082000CE0018
:101FB0006130963145268D312100C6004608D1009A
:101FC00070302000E9002330EA0010302100C40006
:101FD00044082000EB000C30943157248D3121004F
:101FE000C5004508D100CB01CB0A883101208D31D5
:101FF0009D317D258D318831012021004B0808005D
:102000009331612390319D31582590319D31502578
:1020100090319F31C62790319E31942690319D3169
:10202000D82508002000A001A101731C1C287508F8
:102030002000A0077608A13D0130F535F60D890B8B
:102040001D280130F436F30C890B22287308740420
:10205000031D152820002108F4002008F3000800C3
:10206000F701200023087702031808002000200849
:102070008600210887000108F6007608F300220890
:102080009F318C27903101302000A0070030A13D06
:102090000130F6007608A2070130F6007608F7074F
:1020A00031282F00921312131208F03907389200CA
:1020B0001F3098009901F0309A0087309B009C01F6
:1020C0003C309D0000309F31E3279031FF302F00DE
:1020D00095008030930000309F31E3278F302F0030
:1020E00091000800F400F501F601083076020318AB
:1020F000902822008E11F41F7F280E1680280E12C1
:102100008E150310F40D0310F50D20008E1A7514B2
:102110000130F3007308F60708307602031C7928B3
:1021200022008E117508080023009D1C9A281D129C
:102130001D1608001908F0007008F1000030220098
:1021400035025030031934020318B3287108F00027
:102150003408A03E860004308700700881000130FA
:10216000B4070030B53DC201C20A2300AA01AB0189
:1021700008002000A30022000E118E11200023353C
:102180007E399031722090312000A401220824026F
:102190000318DC28200886002108870001089031F8
:1021A0007220903101302000A0070030A13D0130A5
:1021B000F7007708A407C62822000E1508002100A2
:1021C000E4010E3020000D05F5000E3075060319F0
:1021D00008003730F3000730F4009D31BC25903102
:1021E0000E3020000D05F5000E30750603190800AD
:1021F0000D080E39F50075082100E4000310E40C09
:10220000E4090730F5007508E40508002000A00087
:10221000A101063021020318080074088400750823
:1022200085000008F6007308860004308700010866
:102230007606F700200886000130870077088100C5
:102240000130F6007608A0070130F6007608F307A3
:102250000130F4070030F53D0130F6007608A107A3
:102260000929F6005329760891315E210800760885
:1022700091318C21080076089131BA210800760846
:102280009131E8210800760892311622080076087C
:1022900092314422080076089231722208007608B2
:1022A0009231A02208007508840008300402031847
:1022B000080098310435003E82000800F4007F30A9
:1022C000F30073082300BE05F41ABE177F30F30035
:1022D0007308C105741BC1177F30F3007308C40570
:1022E000741AC4177F30F3007308C705F419C717B1
:1022F000FE30F3007308B20574183214FE30F30098
:102300007308B505F4183514FE30F3007308B805EA
:10231000741D080038140800F400FD30F300730841
:102320002300B205F41AB214FD30F3007308B505AA
:10233000741BB514FD30F3007308B805741AB81493
:10234000FD30F3007308BB05F419BB14FB30F30038
:102350007308B20574183215FB30F3007308B50525
:10236000F4183515FB30F3007308B805741D080028
:1023700038150800F400F730F30073082300B205A5
:10238000F41AB215F730F3007308B505741BB515D0
:10239000F730F3007308B805741AB815F730F30076
:1023A0007308BB05F419BB15EF30F3007308B205D1
:1023B00074183216EF30F3007308B505F4183516AB
:1023C000EF30F3007308B805741D080038160800D4
:1023D000F400EF30F30073082300B405F41A341648
:1023E000EF30F3007308B705741B3716EF30F300B6
:1023F0007308BA05741A3A16EF30F3007308BD0576
:10240000F4193D16DF30F3007308B4057418B416E0
:10241000DF30F3007308B705F418B716DF30F300A8
:102420007308BA05741D0800BA160800F400F730E6
:10243000F30073082300C005F41AC015F730F30049
:102440007308C305741BC315F730F3007308C60582
:10245000741AC615F730F3007308C905F419C915C5
:10246000EF30F3007308C00574184016EF30F30026
:102470007308C305F4184316EF30F3007308C6055C
:10248000741D080046160800F400DF30F3007308DE
:102490002300C005F41AC016DF30F3007308C3052B
:1024A000741BC316DF30F3007308C605741AC61612
:1024B000DF30F3007308C905F419C916FB30F300C7
:1024C0007308BE0574183E15FB30F3007308C10590
:1024D000F4184115FB30F3007308C405741D08009F
:1024E00044150800F400FD30F30073082300BE0516
:1024F000F41ABE14FD30F3007308C105741BC11437
:10250000FD30F3007308C405741AC414FD30F300E1
:102510007308C705F419C714FE30F3007308BE052D
:1025200074183E14FE30F3007308C105F41841140A
:10253000FE30F3007308C405741D0800441408003D
:10254000F4007F30F30073082300B405F41AB417C5
:102550007F30F3007308B705741BB7177F30F300A3
:102560007308BA05741ABA177F30F3007308BD05F3
:10257000F419BD17BF30F3007308B405741834178D
:10258000BF30F3007308B705F4183717BF30F300F6
:102590007308BA05741D08003A17080020002C08BB
:1025A000F4002B08F3002E08F6002D08F5009431F6
:1025B0009F2474082000B5007308B4002D082B0771
:1025C000AF002E082C3DB0002F0886003008870091
:1025D000340881003508AF002D08013EB0000030FE
:1025E0002E3DB10030082B07B20031082C3DB3005E
:1025F00032088600330887002F0881000800023067
:102600002000D4005408DB00CA30F3000130F4008D
:10261000F5010C30D4005408F6009D31F6259231B6
:1026200026302000D4005408D7005830D400540875
:10263000CB005B30D5005508CC0057089431EF240F
:1026400092312000D6005608DA005A0803192C2BC4
:1026500002305A06031D2E2B0130080000300800FE
:102660002000A201A3019031DF20933121006408F2
:10267000031D3E2B2000A001A10108000030F30043
:10268000F4009D319A2593319031DF2093319D31B3
:10269000CA25933174082000A3007308A20021000A
:1026A000640803195B2B073020002302D130031983
:1026B0002202031C442B20002308A1002208A000B2
:1026C00008002200900102308F008C0127008C014D
:1026D00022008D0127008D0122008E01DF302100B4
:1026E0009000FF3026008C00FF3021008C003F302E
:1026F00026008D00FF3021008D00FF308E00FD3060
:102700008F00230090011C3028008D00FF308C00CA
:102710002F3023008C00FF3024008D002030290052
:102720008D002100951322009D0108003430F30034
:102730000030F40020002D082B07AF002E082C3DA0
:10274000B0002F08FE3EF500FF30303DF6000230AD
:10275000B1003108F7009F315627933120002C0833
:10276000F4002B08F3002D08FE3EF500FF302E3D4F
:10277000F60094319F24933174082000B30073084D
:10278000B20033083506031DC72B3208340603197F
:10279000CB2B00300800013008002000A4002200EC
:1027A0000E118E11200024357E398038F70077080D
:1027B000A50025089031722093312000A60122083F
:1027C00026020318F82B2508903172209331F70068
:1027D000200020088600210887007708810001304A
:1027E000A0070030A13D0130F7007708A607DF2BD6
:1027F00022000E1520002308FA3E840082300318C0
:10280000013E85000008F7007708A6002608F700BB
:10281000200886002108870077088105080020002D
:10282000A501A601220884002308850012000319CF
:10283000542CA601283026020318372C2608983E6F
:10284000840082300318013E85000008A40022089D
:10285000840023088500000824060319372C013062
:10286000A4002408A60728302602031C1E2C2830AA
:10287000260203184A2C2508A4002408F50026087F
:10288000C13E840082300318013E8500000891316A
:102890003121943101302000A2070030A33D0130E6
:1028A000A4002408A507122C9E3128260800210028
:1028B000A000200069086A040319622C10306B0222
:1028C0000318642C06300800A030EC006C082100CE
:1028D000A10020082000EC006C082100A200A1301B
:1028E0002000CB000030CC000230EC006C08CD00A2
:1028F000CE018831B52094312000ED006D08210013
:10290000A30023080319862C2308080020006A0866
:10291000CC006908CB006B08EC006C08CD00CE0140
:102920008831B52094312000ED006D082100A3000E
:10293000230803199D2C230808000030080076089E
:102940002000A6007508A500FF30A0002008A900FF
:10295000FF30A0002008AA000130A5020030A63BED
:10296000250A0319260A0319DF2C7308840074084A
:10297000850000082A06A000A1012008A700210860
:10298000A8000130F3070030F43D2808850027082F
:102990008400983084078130853D00082906A00016
:1029A0002008AA002808850027088400983084079A
:1029B0008030853D0008A0002008A900AC2C2A0822
:1029C000A000A1012908A200A3012208A300A201DE
:1029D00020082204F30021082304F400080020004A
:1029E000D0005008CD004D08D1004B080319FF2C32
:1029F0004C0886008701023001020318012D0430C3
:102A000008008030CD004D08A2000E309E31AA266D
:102A1000943107302000CD004D08D3003030CD0078
:102A20004D08B1005130B2000030B300B401B40A17
:102A30004B08B5000030B6004C08B7000030B800B5
:102A40005330CE004E08B900BA01BB010C308A31B8
:102A5000B52294312000CF004F08D200520803194C
:102A6000332D520808004C08860087010230010609
:102A70000319530803193E2D0130080000300800E7
:102A80002000A101F41F4B2DF309F409F30A0319E7
:102A9000F40AA101A10AF61F562DF509F609F50A57
:102AA0000319F60A0130F7007708A106A201A30175
:102AB000730874040319852DA001A00AF41B6A2D64
:102AC0000130F335F40D890B612D0130F7007708E3
:102AD000A0075E2D0130A235A30D890B6B2D740864
:102AE0007602031D752D73087502031C7C2D730877
:102AF000F5027408F63B22140130F436F30C890B0E
:102B00007D2D0130A002031D6A2D210803198D2D92
:102B1000A209A309A20A0319A30A2308F4002208A0
:102B2000F30008002000CF004B0803199F2D4C082C
:102B3000860001308700123001020318A12D0430F5
:102B400008003030CD004B088600043087004D0867
:102B500081004F08CD004B0A8600043087004D08E5
:102B600081004B08A6000430A7000230CD004D08BC
:102B7000A8004B08023EA9000430AA00973119278B
:102B800095312000CE004E08D00050080319CA2D00
:102B9000500808003030CD004D08B1004B08B2009D
:102BA0000430B3000430CE004E08B4004B08B5002A
:102BB0000430B6004C08B7000130B800B901BA01C2
:102BC000BB01BB0A0C308A31B522080000309F31AE
:102BD000E327953122008C1527000C148C14220059
:102BE0000C150C144C30F3009030F4009D31BC25D2
:102BF00095314C30F3009030F4009D31BC25953177
:102C00004C30F3009030F4009D31BC2595314C30B0
:102C1000F3009030F4009D31BC2595314C30F30029
:102C20009030F4009D31BC259531FF309F31E32772
:102C300095314C30F3009030F4009D31BC25953136
:102C40004C30F3009030F4009D31BC2595314C3070
:102C5000F3009030F4009D31BC2595314C30F300E9
:102C60009030F4009D31BC2595314C30F30090300C
:102C7000F4009D31BC2522008C1127000C108C1013
:102C800022000C110C108C1408002000DE00103003
:102C9000CF004F08DF005E08CF004F08D2004B087E
:102CA000CF004F08D300E001063060020318742EF5
:102CB0004D08D0004C08CF0060084F078400500832
:102CC0000318500A85000008D1006008023E523EF9
:102CD00086008701510881000130CF004F08E007CE
:102CE00006306002031C582EE00104306002031815
:102CF000922E6008013E4E07CF004F08860001303B
:102D000087000108D0006008083E523E8600870117
:102D1000500881000130CF004F08E0070430600206
:102D2000031C792E5F08CF004F08B1005230B2006B
:102D30000030B3000C30D0005008B4000030B500B3
:102D40000030B6000030B7000030B800B901BA0159
:102D5000BB010E308A31B5220800E030200020058A
:102D6000A6003F302105A70000308B1B0130A800D2
:102D700027082106031DBE2E26082006031D080075
:102D80008B132108F4002008F3009F31A927963106
:102D9000230095171513151595162000A90120304D
:102DA00029020318102F2008230091002000210879
:102DB00023009200200029352207A3002308860063
:102DC00002308700010823009300200029352207E4
:102DD000A3002308860002308700403FA400413F43
:102DE000A5002508230094001F3020002906031D9C
:102DF000FB2E23009512553023009600AA30960032
:102E000095140000000001302000A0070030A13D13
:102E10000130A3002308A90720302902031CD32E68
:102E2000230015112000280C031C8B1303188B178B
:102E3000080037302000AF000730B000F701013044
:102E40009E313926973104302000AB002B08F70063
:102E500005309E313926973180302000AB002B0899
:102E6000A2000A309E31C126973120002708A10018
:102E70002608A0002808AB002B08A20009309031DA
:102E8000B920973103302000AB002B08F700013048
:102E90009E313926973120002F08300403195F2F07
:102EA00001302000AF020030B03B05309F310927D0
:102EB00097312000AB002B08AE002E1D4B2F2F08A2
:102EC0003004031D652F03300800F70101309E31E7
:102ED0003926973122309F31092797312000AB00E6
:102EE000290886002A0887002B08810021309F319D
:102EF00009272000AB002908013EAC0000302A3D24
:102F0000AD002C0886002D0887002B0881000030BA
:102F1000080020002B08B2002A08B1002E0803196F
:102F2000080031081F39F6007608AF00E03031059F
:102F3000B100FF303205B200B30120303302031874
:102F4000BD2F33083107F30032080318320AF400AA
:102F50009F312227973120003335203E86000230F2
:102F600087007308C03F7408C13F0130F60076083F
:102F7000B30720303302031CA12FB0012F08F60045
:102F80007608B300203033020318EA2F2C0886009D
:102F90002D0887000108F600F7013335203E860032
:102FA000023087007608C03F7708C13F0130AC0788
:102FB0000030AD3D0130F6007608B0072E08300233
:102FC0000318EA2F0130F6007608B30720303302E9
:102FD000031CC62F3208A1003108A0002030F600E3
:102FE0007608A2009631AD26973120003008AE0257
:102FF0003008F600F7017608B1077708B23D8E2F4A
:10300000913133299131372991313B2991313F2930
:10301000913143299131472991314B2991314F29E0
:103A9000FF3FFF3F2100111208002000181408000A
:103AA0001630210097000800A034073401341E347A
:103AB00078302100990098010800903151202200AF
:103AC0008C14080074082200B7007308B6000800C0
:103AD00074082300B1007308B00008007434773410
:103AE00064346C34623467342100911222000C1269
:103AF000B401B50121009116080008302000A6008D
:103B00002608A20008309E31AA2608003E30840014
:103B1000BF3085000008F30073082100E3000800AF
:103B200021000C128C160D160D1022008F1321008F
:103B30008F1308000B138B1374082300AD00730858
:103B4000AC008B170B170800F300730823009100DB
:103B50001513951315140000000023001308080026
:103B60006400800101310130FE020030FF3B7F081C
:103B70007E0403190034B12D0130F3020030F43B10
:103B8000730A0319740A03190800000000000000FA
:103B90000000BC2D0B138B1323002D08F6002C08FE
:103BA000F5008B170B177608F4007508F300080072
:103BB000210091121112083023009F00D0309D0087
:103BC00064309E001F309B0001309C0008002000E4
:103BD000A30126309F3109272000A2002208A3005C
:103BE0007030A2002208A305230808000130F60265
:103BF000760A0319080073088600740887007508A0
:103C000081000130F3070030F43DF62D0B11210047
:103C10006708200095000A302300AE070030AF3D52
:103C20000A30AC070030AD3D2200431608002000EA
:103C30001110210060082000970021005F0820007B
:103C400096000130F00070082200C407C316080077
:103C500022006D08F4006C08F300B230F50001306A
:103C6000F60018302000A1002108F7009F315627E8
:103C700008002000A00022000E118E112000203527
:103C80007E39903172209E31770890317220220067
:103C90000E1508000F302000A2002208F7000130A6
:103CA0009E3139269E3101309F3109279E311039CE
:103CB00003190800532EF600F501761C632E7308D5
:103CC000F4007408F5070310F30D0310F60C7608E2
:103CD000031D5D2E7508080088313C209E31373069
:103CE0009F3109279E312000A9002908AA0092309F
:103CF0002A06031D7D2E0130080000300800903197
:103D000000209E3121008D140D158D159E31F02659
:103D10009E319D3190259E319D315D258F302F0044
:103D200091008B170B17080021001508C0390738C0
:103D300095009430200095009430F500750821001E
:103D4000E7000B118B160030F3000030F4009D31BA
:103D5000622508002000A500A40125089F3109273D
:103D60009E312000A3002308A4002209A3002308F9
:103D7000A4052408A3002308F70025089E3139264E
:103D800008002000A500A40125089F3109279E31C5
:103D90002000A3002308A4002208A3002308A404F1
:103DA0002408A3002308F70025089E3139260800BF
:103DB00014309F3109279E312000A2002208A30061
:103DC00003302305A200033022060319080023084C
:103DD0000338A2002208F70014309E31392608006B
:103DE00023008C1121008C1128000C1026000C10CF
:103DF00028008C1026008C1023000C1121000C11BF
:103E000023000C1021000C1023008C1021008C10BA
:103E100008002000A000A10122000E118E11200038
:103E200020357E398038903172209F3100309031BA
:103E30007220F70077082000A10022000E15200054
:103E40002108080000308B1B0130F5008B1373082C
:103E500023009100740892001513951715140000A3
:103E60000000750C031C8B1303188B172300140818
:103E7000F4001308F30008002000220803190800CA
:103E800020002108F4002008F3009F31A9279F316A
:103E900020302000A0070030A13D20302202031C6A
:103EA000542F2030A2023C2FA2013C2F7708031987
:103EB0000800750884007608850000082000A0002E
:103EC0007308860074088700200881000130F50718
:103ED0000030F63D0130F3070030F43D0130F702C9
:103EE000562F2000A7009D31E7259F31200027068F
:103EF000031908007030A6002608A20026309E3163
:103F0000AA269F31200027087039A6002608A200A3
:103F100026309E31C1260800F400F5017408230004
:103F200091007308930095131513151500308B1B22
:103F30000130F5008B1355309600AA309600951489
:103F40009518A02F1511750C031C8B1303188B17D4
:103F5000080000308B1B0130F5008B137308230021
:103F60009100740892001513951715161515553004
:103F70009600AA3096009514000000002300151149
:103F8000750C031C8B1303188B1708008C30200052
:103F900098000130990080309700960117082100A1
:103FA000E000200016082100DF0020001110210091
:103FB00011140030F3000030F4009D3168259F316A
:103FC0009D314D2508002000A000A10118302102DC
:103FD000031808002108F300F401730822006C079D
:103FE000F50074086D3DF6007508860076088700B8
:103FF0002000200881000130F3007308A107E62F9C
:107D0000E1341034003400340034003400340034E2
:107D10004134FF34B83422340034003400340034A9
:107D200000340034643400343234003428340034F5
:107D300000340034E83403340034003400340034B8
:107D4000003400340034003410342734003400345C
:107D500030347534003400340034003400340034DE
:107D60000034003400340034003400340034003473
:107D7000003405340034013400340134003400345C
:107D80000034003400340034003400340034003453
:107E000000340034003400340034003400340034D2
:107E100000340034003400340034003400340034C2
:107E200000340034003400340034003400340034B2
:107E300000340034003400340034003400340034A2
:107E40000034003400340034003400340034003492
:107E50000034003400340034003400340034003482
:107E60000034003400340034003400340034003472
:107E70000034003400340034003400340034003462
:107E80000034003400340034003400340034003452
:107F000000340034003400340034003400340034D1
:107F100000340034003400340034003400340034C1
:107F200000340034003400340034003400340034B1
:107F300000340034003400340034003400340034A1
:107F40000034003400340034003400340034003491
:107F50000034003400340034003400340034003481
:107F60000034003400340034003400340034003471
:107F70000034003400340034003400340034003461
:107F80000034003400340034003400340034003451
:107F90000034003400340034003400340034003441
:107FA0000034003400340034003400340034003431
:107FB0000034003400340034003400340034003421
:107FC0000034003400340034003400340034003411
:107FD0000034003400340034003400340034003401
:107FE00000340034003400340034003400340034F1
:107FF0000034003400340034FF3FFF3FFF3FFF3FB9
:020000040001F9
:04000E00E2FFFFDE30
:00000001FF
