:1000000080313728FF3F08007E14803120007F08B0
:10001000F2008B1A0B1D1028B631022680313228CF
:100020000B1F1C282100111E1C282000111E1C283B
:1000300080310320803132280B1F28282100911E97
:1000400028282000911E2828BF31412780313228DE
:100050000B1F32282100111C32282000111C3228CD
:10006000BC31362472082000FF007E100900803168
:100070003928E3308400BA308500693086000130C9
:1000800087000030FF000430BB3170238031033023
:100090008400BB308500CA30860001308700003004
:1000A000FF000630BB317023803130308400A9302E
:1000B000850020308600023087000030FF00483085
:1000C000BB31702380310030840022308500FC3049
:1000D000FE000030FF00BB3164238031F801F901DC
:1000E000FA01A0308400003085002A30FE00003084
:1000F000FF00BB3164238031203084000130850053
:100100004930FE000030FF00BB3164238031A03055
:100110008400013085002A30FE000030FF00BB3132
:1001200064238031A0308400023085002830FE0036
:100130000030FF00BB3164237E1020009031002886
:100140002100E800E301E30A513020004A02031CC9
:10015000AB28063008008030CB004B08A2000E30E0
:10016000BD310E2580312100D00121005008031D32
:10017000A72B6303031DD62893302000CB004B0828
:100180002100D800E401D30120004A080319D32834
:100190002100680886000130870005300102031C39
:1001A000D328D301D30A21005308F828023063066C
:1001B000031DFE2895302000CB004B082100D800FD
:1001C00003302000CB004B082100E400D4012000C4
:1001D0004A080319F62821006808860001308700C4
:1001E00008300102031CF628D401D40A2100540867
:1001F0002000CB004B082100E200122903306306E7
:10020000031D102997302000CB004B082100D80097
:1002100006302000CB004B082100E400E201122947
:100220000530080064082000CB00CC01CB35CC0D94
:10023000CB35CC0DCB35CC0D4C08803A803C031D22
:1002400023294B084A02031828292100ED013929E6
:10025000210064082000CB000230CB35FF3E031D97
:100260002D294B35FF3A013E4A07CC004C082100AE
:10027000ED0002302000CB004B082100EC006208AA
:100280000319522988302000CB0021006C08D83E89
:100290008600870120004B0881000130CB004B080D
:1002A0002100EC070830F3000030F4006D08200056
:1002B000CB00CC014B08F5004C08F600AA31162201
:1002C000803173082000CD007408CE0021006D0835
:1002D000073903196D2901306E29003020004D07C0
:1002E000CF004F082100E50065080319B529620811
:1002F000031D7C2904307D290330CA000030CB0067
:100300004A082000CB004B082100D60065085602A1
:100310000318902956082000CB004B082100E50067
:10032000EB0165086B020318B52964086B07013EF1
:1003300068072000CB004B088600013087000108C9
:10034000CC0021006C08D83E8600870120004C08B4
:1003500081000130CB004B082100EC070130200068
:10036000CB004B082100EB07912962080319BE2935
:1003700008302000CB004B082100ED07D1012100FF
:100380005108031D132B20306D02031CFF29703010
:100390002000CB004B082100D9005A085B065C0600
:1003A0005D062000CB004B082100DE00D830200085
:1003B000A6000030A7000730CB004B08A800DF30B4
:1003C000A9000030AA00AD31B02580312000CC005A
:1003D0004C082100EA006A080319F0296A0808009D
:1003E000E90109302000CB004B082100D200DE30AB
:1003F0002000CB004B082100E7000330482A6D089D
:1004000007392000CB004B082100E9000830F30039
:100410000030F4006D082000CB00CC014B08F50043
:100420004C08F600AA311622803173082000CD0056
:100430004D082100EB006B08023E2000CB004B086A
:100440002100EC006C082000CB000330CB35FF3ED0
:10045000031D262A4B35210069072000CC004C08DB
:100460002100D90069080319372A0130382A0030E1
:100470006C072000CB004B082100D2006C08D83E4E
:100480002000CB004B082100E7006C03FF3A093E37
:100490002000CB004B082100E60069082000CB00BB
:1004A0004B082100D50055082000CB000330CB3588
:1004B000FF3E031D572A4B35210069072000CC0061
:1004C0004C08F7000D30BB31F22380313030200072
:1004D000CB004B08B100D830B2000030B30021008F
:1004E00052082000CC004C08B4002100670820000E
:1004F000B5000030B600E630CD004D08B700E93059
:10050000CE004E08B800210055082000CF004F084B
:10051000B900BA010C308631A42680312000D00009
:1005200050082100EA0002306A06031DFF2A0E303F
:10053000BD31852580312000CB004B082100D7003C
:10054000D71EA42A0230080057081F392000CB000C
:100550004B082100E1006108031DB42A203020006F
:10056000CB004B082100E10061086D02031CBA2A90
:100570000530080061082000CB004B082100ED0089
:100580006D08FF3E07392000CB004B082100EB002F
:100590000830F3000030F4006D082000CB00CC01DF
:1005A0004B08F5004C08F600AA311622803173087A
:1005B0002000CD007408CE0021006B080319E22A48
:1005C0000130E32A003020004D07013ECF004F08E4
:1005D0002100EC0001302000CB0021006B0A20003C
:1005E000F22ACB35890BF12A4B08CC0021006C088C
:1005F000D83E8600870120004C088104BF292100D5
:100600006A080319052B6A08080020306D02031CD4
:100610000C2BD101D10ABF2920302000CB004B0880
:100620002100ED00BF2988305A060319192B02302A
:100630001A2B0330CC000030CD004C082000CB003A
:100640004B082100EC0088305A060319292B04308E
:100650002A2B0330CE000030CF004E082000CB0004
:100660004B082100E500EB0165086B020318582BCD
:100670006C08D83E8600870101082000CB002100CD
:1006800064086B07013E68072000CC004C08860018
:10069000013087004B0881000130CB004B0821005E
:1006A000EC0701302000CB004B082100EB07342B76
:1006B00003306606031969080319602B013008002E
:1006C00067082000A6000030A700A801A80ADA30B9
:1006D000A9000030AA00AD31B02580312000CB0048
:1006E0004B082100EA006A080319782B6A08080001
:1006F000670A860087015A080106031D872B6708D1
:10070000023E860087015B0801060319892B07302A
:100710000800670886008701011D952B0130200025
:10072000CB004B082100E307B528D001D00A6708A9
:100730008600870101082000CB00210068080B3EDD
:1007400086000130870020004B088100B528033067
:100750002000CB004B08A40021006308BC315A24C0
:10076000013E2000CC00210068088600013087008F
:1007700020004C088100003008002000C900C5019D
:10078000C601C101C201C701C801C301C4017A0386
:10079000031DD02B2100C6012000B501B6010800C1
:1007A00000302100A7000030A6000030A500013075
:1007B000A4001D302000490203187E2D4908B7000F
:1007C000B801B735B80DB735B80D7430B90023305E
:1007D000BA0037083907860038083A3D8700403F9D
:1007E000C700413FC8004908B700B801B735B80D88
:1007F000B735B80D3708043EB9000030383DBA00AF
:100800007430BB002330BC0039083B0786003A082F
:100810003C3D8700403FC300413FC4004908B7004A
:10082000B801B735B80DB735B80D3708023EB90075
:100830000030383DBA007430BB002330BC003908AA
:100840003B0786003A083C3D8700403FC500413FDA
:10085000C6004908B700B801B735B80DB735B80DAF
:100860003708063EB9000030383DBA007430BB008E
:100870002330BC0039083B0786003A083C3D87001E
:10088000403FC100413FC20048084406031D4A2CB6
:1008900047084306031DB82C4908031D522CB50117
:1008A000B60108004908B700B801B735B80DB7352B
:1008B000B80D3708FC3EB900FF30383DBA0074303F
:1008C000BB002330BC0039083B0786003A083C3D9A
:1008D0008700403FC700413FC8004908B700B80142
:1008E000B735B80DB735B80D7430B9002330BA003C
:1008F00037083907860038083A3D8700403FC30073
:10090000413FC4004908B700B801B735B80DB73545
:10091000B80D3708FE3EB900FF30383DBA007430DC
:10092000BB002330BC0039083B0786003A083C3D39
:100930008700403FC500413FC6004908B700B801E5
:10094000B735B80DB735B80D3708023EB9000030DD
:10095000383DBA007430BB002330BC0039083B0777
:1009600086003A083C3D8700403FC100413FC2003D
:10097000480821003902031DC12C2000470821002E
:1009800038020318C72C2000B501B601080020006A
:1009900046084202031DCE2C450841020318D42C00
:1009A0004608C2004508C1004509B7004609B8001D
:1009B000B70A0319B80A41083707A0004208383DB2
:1009C000A100A201A3014709B9004809BA00B90A68
:1009D0000319BA0A2100380820003907A4002100B1
:1009E000390820003A3DA500A601A701B3316923CB
:1009F000833120002308C0002208BF002108BE0068
:100A00002008BD004008A3003F08A2003E08A10046
:100A10003D08A000210027082000A700210026088B
:100A20002000A600210025082000A50021002408A0
:100A30002000A400B3316923833120002308210062
:100A4000A700200022082100A60020002108210084
:100A5000A500200020082100A4002000440848022E
:100A6000031D342D430847020318742D4709B700AE
:100A70004809B800B70A0319B80A43083707A8009D
:100A80004408383DA900AA01AB0121002708200035
:100A9000AF00210026082000AE002100250820001C
:100AA000AD00210024082000AC00AA316822833167
:100AB00020002B082100A70020002A082100A60002
:100AC000200029082100A500200028082100A400FA
:100AD000200045082100A407200046082100A53D6C
:100AE0000030A63DA73D7E2D200045082100A40032
:100AF000200046082100A500A601A70124003A080D
:100B00002000A00024003B082000A100890D893BA3
:100B10008909A200A300210027082000A7002100C6
:100B200026082000A600210025082000A50021009D
:100B300024082000A400B331692383312000230856
:100B40002100A700200022082100A6002000210883
:100B50002100A500200020082100A4000030200072
:100B6000AB000030AA000330A900E830A800210043
:100B700027082000AF00210026082000AE00210039
:100B800025082000AD00210024082000AC00AA3177
:100B90006822833120002B082100A70020002A08AA
:100BA0002100A600200029082100A5002000280817
:100BB0002100A400EC30860023308700403F200055
:100BC000B700413FB80037082100B40020003808C2
:100BD0002100B500B601B701240059082000B70074
:100BE000B801B901BA013A08A3003908A2003808CF
:100BF000A1003708A000210037082000A70021002D
:100C000036082000A600210035082000A50021009C
:100C100034082000A400B331692383312000230865
:100C20002100B700200022082100B6002000210882
:100C30002100B500200020082100B4000030200071
:100C4000AB000030AA000030A9006430A8002100E9
:100C500037082000AF00210036082000AE00210038
:100C600035082000AD00210034082000AC00AA3176
:100C70006822833120002B082100B70020002A08B9
:100C80002100B600200029082100B5002000280816
:100C90002100B40037082702031D582E360826020B
:100CA000031D582E35082502031D582E3408240232
:100CB00003185E2E2000B501B6010800EC30860056
:100CC00023308700403F2000B700413FB80037087D
:100CD0002100B400200038082100B500B601B7019A
:100CE00037082702031D7E2E36082602031D7E2E9E
:100CF00035082502031D7E2E34082402031C882E8D
:100D00003708A7003608A6003508A5003408A40057
:100D100037082702031D962E36082602031D962E3D
:100D200035082502031D962E34082402031C9B2E31
:100D3000C601C60A9C2EC60125082000B600210067
:100D400024082000B50008002000C1003808031D59
:100D5000AC2EBF01C001B62E3808860087010108FD
:100D6000BB00BC013B08BF003C08C0003F08BB0003
:100D70003B08BD003908BB000330BB35FF3E031DF7
:100D8000BD2E3B353D07BC003C08BE00F7010130DD
:100D9000BB31F22386317F302000BB003B08F700D7
:100DA0000430BB31F223863180302000BB003B0889
:100DB000A2000A30BD312525863120003308A1006C
:100DC0003208A0003408BB003B08A2000930BF3144
:100DD0006627863120003E08BB003B08F7000D3037
:100DE000BB31F223863120004108BB003B08F700ED
:100DF0000130BB31F22386310C3020004106031D47
:100E0000092F8030BB003B08A2000D30BD312525E5
:100E10008631D0302000C6000730C700460847049E
:100E200003192C2F0430BD31852586312000BB00ED
:100E30003B08C90049083105031D2C2F491C222FEE
:100E4000033008000130C6020030C73B46084704A3
:100E5000031D0E2F033008000630BD318525863175
:100E60002000BB003B08C4004408133903193A2F83
:100E7000013008003508360403197C2F37080319A0
:100E80007C2F0A30BD31852586312000BB003B0810
:100E9000C900370886008701490801020318522F4C
:100EA000043008004908BB003708860087013B086A
:100EB00081003608A1003508A0004908BB003B08A6
:100EC000A2003908BC003C08A3000930B73138271C
:100ED00086310C30BD318525863107392000BB00B5
:100EE0003B08C800380803197C2F4808BB003808A5
:100EF000860087013B088100C41D802F0230080056
:100F0000350836040319E82F37080319E82F3A0883
:100F10000319E82F3708860087010103031D962F68
:100F200004304806031D962FFF300800370886005E
:100F3000870102300102031CA02F48080319A22FC9
:100F4000073008003608A7003508A60037088600D5
:100F500087010108FE3EBB003B08A8004230A90003
:100F60000030AA00AD31B02586312000BC003C081D
:100F7000C50045080319BE2F45080800370886003C
:100F800087010108FE3EBB00FF3003180030BC00A3
:100F90003B08350786003C08363D870001084206BD
:100FA000031DE62F3708860087010108FF3EBB00BE
:100FB000FF3003180030BC003B08350786003C08B2
:100FC000363D8700010843060319E82F0730080063
:100FD0000030080021001508C0390738950094300A
:100FE000200095009430F50075082200EF000B11E9
:100FF0008B160030F3000030F400BA31F7220800FD
:10100000F400F501F6010830760203181E282200CC
:101010008E11F41F0D280E160E280E128E150310B9
:10102000F40D0310F50D20008E1A75140130F30035
:101030007308F60708307602031C072822008E1179
:1010400075080800103021004306031D0800202900
:10105000B4312B2420302000AE002E082100C30024
:101060000800B4312B2430302000AE002E082100BF
:10107000C30008006130F3000130F4003A30F5009D
:101080000230F60002302000AE002E08F700BD311D
:101090009E2540302000AE002E082100C30008002D
:1010A0002100C50145082000AE00AF01AE35AF0DEF
:1010B000AE35AF0D2E08023EB00000302F3DB1001E
:1010C0007430B2002330B300300832078600310894
:1010D000333D87006130840001308500403F803F10
:1010E000413F813F5030AE002E082100C300080070
:1010F000613086000130870024002008C03F2108AD
:10110000C13F60302000AE002E082100C30008005F
:10111000240059082000AE002E082200E1007030A3
:101120002000AE002E082100C300080061308600B8
:101130000130870024003208C03F3308C13F8030AF
:101140002000AE002E082100C3000800003020005F
:10115000A3000030A2000030A1006430A0002430C1
:10116000203E860002308700403FA400413FA5009A
:10117000423FA600433FA700A03113206130860004
:101180000130870020002008C03F2108C13F903077
:10119000AE002E082100C30008002400290820000A
:1011A000AE002E082200E100A0302000AE002E0884
:1011B0002100C30008006430F3000030F400240074
:1011C0003508F6003408F500AA3116226130860091
:1011D000013087007308C03F7408C13FB030200061
:1011E000AE002E082100C3000800C0302000AE0071
:1011F0002E082100C30008002100C50161308600CF
:10120000013087003C08C03F3D08C13FE03020006E
:10121000AE002E082100C300080024005C08200056
:10122000AE00AF0161308600013087002E08C03F5C
:101230002F08C13FF130AE002E082100C300080086
:1012400022002B08003A031926294F292A08063ABA
:1012500003197828013A0319DB280F3A0319A62845
:10126000013A03199628353A0319FC28583A03190C
:10127000F528033A031931280C3A03192828063AAD
:1012800003193A28E83A031988280D3A03190D2959
:10129000203A031950281A3A0319CD284F2908007B
:1012A0002000BC01BD01FF303505BE000030360511
:1012B000BF005E2B3708860087015530C03F553090
:1012C000C13F0800210040080C392000B800B901D6
:1012D0003708860087013808C03F3908C13F080039
:1012E0003708860087010030C03FC13F0800210059
:1012F0003C08B4003D08B500B601B701370820002E
:10130000A300210036082000A2002100350820009B
:10131000A100210034082000A0000030A700003008
:10132000A6000030A5000630A400B331692389313E
:10133000200023082100B700200022082100B60069
:10134000200021082100B500200020082100B40061
:1013500000302000AB000030AA000030A9000A30A5
:10136000A800210037082000AF0021003608200027
:10137000AE00210035082000AD0021003408200017
:10138000AC00AA31682220002B082100B700200001
:101390002A082100B600200029082100B5002000FD
:1013A00028082100B40020003708860087012100AA
:1013B0003408C03F3508C13F080000302000A300BA
:1013C0000030A2000030A1006430A00021002B08F2
:1013D0002000A70021002A082000A60021002908DB
:1013E0002000A500210028082000A400A03113201F
:1013F0008931200023082100B700200022082100A5
:10140000B600200021082100B5002000200821009E
:10141000B40034082000B800210035082000B900CD
:10142000210036082000BA00210037082000BB0048
:101430001030BB36BA0CB90CB80C890B192A370816
:10144000860087013808C03F3908C13F08000030D6
:10145000A3000030A2000030A1006430A0002100F1
:101460002B082000A70021002A082000A600210048
:1014700029082000A500210028082000A400A03190
:101480001320200023082100B7002000220821009B
:10149000B600200021082100B5002000200821000E
:1014A000B400200037088600870121003408C03FBF
:1014B0003508C13F08003030203E860002308700EA
:1014C000403F2100B400413FB500423FB600433FDA
:1014D000B7003008B4073108B53D3208B63D3308CF
:1014E000B73D34082000B800210035082000B900BD
:1014F000210036082000BA00210037082000BB0078
:101500001030BB36BA0CB90CB80C890B812A3708DD
:10151000860087013808C03F3908C13F08003030D5
:10152000203E860002308700403F2100B400413F4A
:10153000B500423FB600433FB7003008B40731085A
:10154000B53D3208B63D3308B73D20003708860068
:10155000870121003408C03F3508C13F0800200042
:1015600037088600870124003208C03F3308C13F96
:1015700008000C30203E860002308700403F2100EA
:10158000B400413FB500423FB600433FB7000030D2
:101590002000AB000030AA000030A9006430A80091
:1015A000210037082000AF00210036082000AE00DF
:1015B000210035082000AD00210034082000AC00D7
:1015C000AA316822893120002B082100B7002000B1
:1015D0002A082100B600200029082100B5002000BB
:1015E00028082100B40034082000B8002100350884
:1015F0002000B900210036082000BA002100370879
:101600002000BB001030BB36BA0CB90CB80C890BEB
:10161000032B3708860087013808C03F3908C13FCF
:1016200008000C30203E860002308700403F210039
:10163000B400413FB500423FB600433FB700003021
:101640002000AB000030AA000030A9006430A800E0
:10165000210037082000AF00210036082000AE002E
:10166000210035082000AD00210034082000AC0026
:10167000AA31682220002B082100B70020002A0888
:101680002100B600200029082100B500200028080C
:101690002100B400200037088600870121003408AB
:1016A000C03F3508C13F0800200037088600870189
:1016B00024003008C03F3108C13F08000F3020002F
:1016C0003E05B80000303F05B9003908003A03195B
:1016D0006A2B772B3808FF3E031C080084000C306F
:1016E000040203180800B8310435513E8200080096
:1016F00044302100CE004E082000EE00563021007C
:10170000CE004E082000EF000F302100CE004E0822
:101710002000CA00CA30CB000130CC00BE3021000E
:10172000CF004F082000CD006130AC3177248B31E1
:101730002100D0005008BE003E080319A12B003044
:10174000080020006F08043E860004308700403FF8
:101750002100CE00413FCF004F0824004106031D69
:10176000B52B21004E082400400603193A2C200016
:101770006F08043E860004308700403F2100CE0001
:10178000413FCF004E08013ED00000304F3DD10018
:101790002400410821005106031DD22B24004008DB
:1017A00021005006031D122C20006F088600043013
:1017B000870024002C08C03F2D08C13F2E08C23FDF
:1017C0002F08C33F20006F08043E860004308700C6
:1017D00024004008C03F4108C13F56302000A80007
:1017E0000430A9000630AA000030AB00B331C92391
:1017F0008B3156302100CE004E082000E900103019
:101800002100CF004F082000EA000C30A8315A20F8
:101810008B312100D0005008BE003E0803193A2C3D
:101820000030080020006F08860004308700403F29
:101830002100CE00413FCF00423FD000433FD100C6
:1018400024002F0821005106031D362C24002E08E9
:1018500021005006031D362C24002D0821004F06C0
:10186000031D362C24002C0821004E0603193A2CA7
:101870000030080020006E08860004308700403FDA
:101880002100AC00413FAD00423FAE00433FAF00FE
:101890002C08CE002D08CF002E08D0002F08D10034
:1018A00020006F08860004308700403F2100D200EE
:1018B000413FD300423FD400433FD500D209D30972
:1018C000D409D509D20A0319D30A0319D40A031972
:1018D000D50A5208CE075308CF3D5408D03D5508CD
:1018E000D13D5108AF005008AE004F08AD004E0882
:1018F000AC00AF1B882C2F08031D8F2C2E08031D56
:101900008F2C2D08031D8F2C01302C0203188F2CD7
:101910000E30CE004E082200B70000300800240030
:101920004708803A2100CE002F08803A4E0224005A
:10193000031DAA2C21002E0824004602031DAA2CF8
:1019400021002D0824004502031DAA2C21002C088B
:10195000240044020318BA2C2430203E86000230B2
:101960008700403F2100AC00413FAD00423FAE0048
:10197000433FAF0020006F0886000430870021003D
:101980002C08810741312D08813D41312E08813DD0
:1019900041312F08813D20006F08043E860004304D
:1019A00087000130810741310318810A6F08043E26
:1019B000860004308700403FF800413FF900563070
:1019C000A8000430A9000630AA000030AB00B331F3
:1019D000C9238B310C302200C3000030C400023018
:1019E0002100CE004E082200D7000630C50000308E
:1019F000C600210028082C07CE0029082D3DCF0065
:101A00002A082E3DD0002B082F3DD1005108AB00F5
:101A10005008AA004F08A9004E08A8002B08803AD9
:101A2000CE0024004B08803A21004E02031D282DD1
:101A300024004A0821002A02031D282D24004908F9
:101A400021002902031D282D240048082100280216
:101A5000031C592D2808CE002908CF002A08D000E1
:101A60002B08D1002C09D2002D09D3002E09D40057
:101A70002F09D500D20A0319D30A0319D40A03196E
:101A8000D50A5208CE075308CF3D5408D03D55081B
:101A9000D13D5108AB005008AA004F08A9004E08DC
:101AA000A8001430CE004E082200B700D701003045
:101AB00008004730F3000130F4005630F5000430E0
:101AC000F60006302100CE004E08F700BD319E25FD
:101AD0008B31BD31D4258B312100CE004E08200042
:101AE000ED000F302100CE004E082000CA00CA30A1
:101AF000CB000130CC00BE302100CF004F082000C9
:101B0000CD006130AC3177248B312100D0005008FA
:101B1000BE005630CE004E082000E90010302100F3
:101B2000CF004F082000EA000C30A8315A208B313A
:101B30002100D0005008BE003E080319A12D00303E
:101B400008000130080003302100CE004E082000BC
:101B5000CA002530CB00B930CC00BE302100CF0008
:101B60004F082000CD006030AC3177248D3121004A
:101B7000D0005008BE003E080319C02D00300800F8
:101B80001230CE004E08C8002030CE004E08200093
:101B9000CA00C8302100CF004F082000CB00003021
:101BA000AA31BB228D312100D0005008BE003E0872
:101BB0000319DC2D003008000030F3002230F4005F
:101BC0002030F5000430F6001230CE004E08F70049
:101BD000BD319E258D3107302100CE004E082000FA
:101BE000CA002530CB00B930CC00BE302100CF0078
:101BF0004F082000CD006030AC3177248D312100BA
:101C0000D0005008BE003E080319082E003008001E
:101C10000430CE004E08C900073049020318622E76
:101C20001230CE004E08C8003230CE004E082000E0
:101C3000CA00C8302100CF004F082000CB0021008F
:101C40004908AA31BB228D312100D0005008BE00C6
:101C50004908CE00CF01CE0ECF0EF030CF054E0892
:101C60000F39CF04F030CE054E08C03ED000FF3013
:101C70004F3DD1000030D2002230D300500852072F
:101C8000F3005108533DF4003230F5000430F60003
:101C90001030D4005408F700BD319E258D3121004D
:101CA0003E080319592E0230CE004E082200B7001C
:101CB000622E01302100CE004E08C90707304902CC
:101CC000031C102E00302000A8002230A900303064
:101CD000AA000030AB00B5315A258D312100CE006D
:101CE0004E082000ED006D08031D782E003008001E
:101CF0000030EE002230EF006E0886006F0887008B
:101D00004C31010A031D422F02302100CE004E0843
:101D10002200D7004030C3000030C4000630C500A8
:101D20000030C6004730F3000130F40020006E0898
:101D3000203EF50000306F3DF60006302100CE0059
:101D40004E08F700BD319E258D315030F300223012
:101D5000F4000030F5002230F60030302100CE00D3
:101D60004E08F700BD319E258D31BD31D4258D3112
:101D70002100CE004E082000ED000030F30022309C
:101D8000F4005030F5002230F60030302100CE0053
:101D90004E08F700BD319E258D3120006D080319D6
:101DA000422F6E0886006F0887004C3181016E0853
:101DB000203EF30000306F3DF400F50106302100B5
:101DC000CE004E08F600BB31E2238D3100302000FA
:101DD000A8002230A9002E30AA000030AB00B33199
:101DE000C9238D3104302100CE004E08C9000730D0
:101DF00049020318422F3230F3000430F40049083E
:101E0000CE00CF01CE0ECF0EF030CF054E080F39E9
:101E1000CF04F030CE054E08C03ED000FF304F3D1D
:101E2000D1000030D2002230D30050085207F50014
:101E30005108533DF6001030D4005408F700BD316E
:101E40009E258D3132302100CE004E082000E90061
:101E500010302100CF004F082000EA00210049087F
:101E6000A8315A208D312100D0005008BE003E0814
:101E7000031D422F0130CE004E08C907073049022A
:101E8000031CFB2E24002708260425042404031D1C
:101E90009F2F20006E0886006F0887004831403F62
:101EA0002100CE00413FCF00423FD000433FD10050
:101EB0002400230821005106031D6E2F2400220850
:101EC00021005006031D6E2F2400210821004F061B
:101ED000031D6E2F2400200821004E060319772FC2
:101EE0000330CE004E082200B70000300800043056
:101EF0002200C3000030C40002302100CE004E0892
:101F00002200D7000430C5000030C6004730F3007F
:101F10000130F4002030F5000430F60004302100D8
:101F2000CE004E08F700BD319E258D31BD31D42540
:101F30008D312100CE004E082000ED00F22F203020
:101F4000860004308700403F2100CE00413FCF0093
:101F5000423FD000433FD100510824002706031D13
:101F6000C12F2100500824002606031DC12F210087
:101F70004F0824002506031DC12F21004E08240010
:101F80002406031DEA2F20006E0886006F088700D4
:101F90004831403F2100CE00413FCF00423FD000BA
:101FA000433FD1002400230821005106031DE82FE0
:101FB0002400220821005006031DE82F24002108D8
:101FC00021004F06031DE82F2400200821004E06A3
:101FD0000319F22F03302100CE004E082200B70073
:101FE0000030080020302100CE004E08F3006030A1
:101FF000CF004F08F400CA30B0311720013008007C
:102000002300D601BC31CC249031B731BD279031AB
:1020100021009112A931782190319C3172249031A4
:10202000BB3136239031BB311A2390312200C101DC
:102030007F302100EF006F08C7052400420821000F
:10204000EF006F08C3004308EF006F08C200BA3109
:10205000F1229031BB31A52390312100471E332856
:10206000B231DB2290312100C71E3928AB31BE23AB
:1020700090312100471C3F289D3148259031210097
:10208000C71C5F280130EF006F082300D6070A3015
:102090005602031C5C28D6012100C01857282200D4
:1020A000381E5B2803100C1C0314031C5A28220042
:1020B0000C145C2822000C10AF31862790312100CF
:1020C000471F712822005708031D71280230210084
:1020D000EF006F082200D700BF302100EF006F082B
:1020E000C7052100C71D77289F31072790312100A0
:1020F000471D9728911222002D082000CF002200B2
:102100002C082000CE00A030AB3164239031FB308E
:102110002100EF006F08C7053730F3000730F400E7
:10212000BB3189239031BB311A2390319A28AE31CB
:102130009626903124004208210042060319AC285B
:1021400022005708031DAC2802302100EF006F0861
:102150002200D700C501C601220057080319B5287F
:10216000BD31D42590312200D7012100C018BC28F0
:102170000330BF311D27903122006C08031D272832
:10218000503021004306031927284208EF006F084A
:10219000C300272800302000C9000030C8000030EC
:1021A000C7000030C600C401C501C30108304302A6
:1021B0000318CB290030C9000030C8000030C70028
:1021C0000030C600C401C5010030C1008030C2002B
:1021D000BF01C001CA0114304A02031843294A351D
:1021E000A03E860002308700403FB700413FB80064
:1021F00038084502031DFE283708440203180D293C
:102200004A35A03E860002308700403FC400413F6F
:10221000C5004A08B7003708BF004A35A03E86000F
:1022200002308700403FB700413FB8004208380203
:10223000031D1C294108370203182B294A35A03EEB
:10224000860002308700403FC100413FC2004A087B
:10225000B7003708C0004A35A03E8600023087002C
:10226000403FB700413FB8003708C6073808C73DB0
:102270000030C83DC93D0130B7003708CA071430E7
:102280004A02031CEF284608B7004708B800480870
:10229000B9004908BA004408BB004508BC00BD01AC
:1022A000BE01BB09BC09BD09BE09BB0A0319BC0AB2
:1022B0000319BD0A0319BE0A3B08B7073C08B83D1D
:1022C0003D08B93D3E08BA3D3A08C9003908C80082
:1022D0003808C7003708C6004608B7004708B800E6
:1022E0004808B9004908BA004108BB004208BC00D0
:1022F000BD01BE01BB09BC09BD09BE09BB0A03196A
:10230000BC0A0319BD0A0319BE0A3B08B7073C08FB
:10231000B83D3D08B93D3E08BA3D3A08C900390804
:10232000C8003808C7003708C6000030AB000030CE
:10233000AA000030A9001230A8004908AF004808E0
:10234000AE004708AD004608AC00AA3168229031C3
:1023500020002B08C9002A08C8002908C70028083F
:10236000C6003F35A03E8600023087004608C03FC9
:102370004708C13F4035A03E86000230870046082E
:10238000C03F4708C13F0130B7003708C3070830D6
:102390004302031CDA284708B6004608B5000800C7
:1023A0002000D0010330210043020318EF2A22004D
:1023B000E101E201210043082000C6004608210097
:1023C000C2002200AA01AB0110302000C60046085E
:1023D0002100C30008006130860001308700403FC3
:1023E0002000C600413FC700210045082000C8006A
:1023F000C901C835C90DC835C90D4808023ECA0013
:102400000030493DCB007430CC002330CD004A0869
:102410004C0786004B084D3D8700403FCE00413FB2
:10242000CF0047084F06031D172A46084E0603191A
:10243000332A2200D701D70A613086000130870095
:10244000403FC700413FC8002000B301B30A21004C
:1024500045089231FB2291312000C6004608D00089
:102460005008031908000130C60046082100C507BE
:102470001E3045020318C50145082000C600C701EB
:10248000C635C70DC635C70D4608023EC800003028
:10249000473DC9007430CA002330CB0048084A07C2
:1024A000860049084B3D870061308400013085007B
:1024B000403F803F413F813F080014302200C3006D
:1024C0000030C4000230C5000030C6006130860014
:1024D00001308700403FF800413FF9006430F300CD
:1024E0000030F4007908F6007808F500BE317D264A
:1024F00091317408F9007308F80079082200C800C7
:102500007808C70002302000C60046082200D70025
:102510000230C5000030C6006430F3000030F40023
:1025200024003708F6003608F500AA31162261307B
:102530008600013087007308C03F7408C13FB13086
:102540002000C60046082100C30008001630220003
:10255000C3000030C4000230C5000030C600613046
:10256000860001308700403FF800413FF9006430A9
:10257000F3000030F4007908F6007808F500BE3169
:102580007D2691317408F9007308F800790822005B
:10259000C8007808C70002302000C60046082200A4
:1025A000D7000230C5000030C6006430F3000030B0
:1025B000F40024003508F6003408F500AA3116228C
:1025C00061308600013087007308C03F7408C13F46
:1025D000B0302000C60046082100C30008004308B0
:1025E000503A0319EB29E03A03195D2A013A03191D
:1025F000A62AFA2A08002000C4000030C2002230B7
:10260000C3000030F3002230F4007430F5002330B2
:10261000F6007C30B4003408F700BD319E259231BD
:1026200020004408B400B501B435B50DB435B50D7E
:102630003408420786003508433D870021003808EA
:10264000C03F3908C13F20004408B400B501B4358B
:10265000B50DB435B50D34084207B6003508433D15
:10266000B700360886003708870042312200470845
:10267000C03F4808C13F4730F3000130F40020005C
:102680004408B400B501B435B50DB435B50D00300E
:10269000B6002230B70034083607F5003508373D5C
:1026A000F6000430B8003808F700BD319E2592319D
:1026B000023020004402031CA72BC501C50A4508AF
:1026C0004402031CA72B4508B400B501B435B50D71
:1026D000B435B50D3408FC3EB600FF30353DB700CB
:1026E00036084207B8003708433DB900380886006D
:1026F000390887004231403FBA00413FBB004508DE
:10270000BC00BD01BC35BD0DBC35BD0D3C0842074C
:10271000BE003D08433DBF003E0886003F088700DD
:102720004231403FC000413FC1003B084102031D10
:102730009B2B3A0840020318A12B2200D70100303E
:10274000080001302000B4003408C5075F2B0230B8
:102750004402031CEF2BC501440845020318EF2B6C
:102760004508B400B501B435B50DB435B50D340820
:102770004207B6003508433DB700360886003708E3
:1027800087004231403FB800413FB9004508BA00D8
:10279000BB01BA35BB0DBA35BB0D3A08043EBC00CF
:1027A00000303B3DBD003C084207BE003D08433DB4
:1027B000BF003E0886003F0887004231403FC0000E
:1027C000413FC10039084102031DE82B380840028F
:1027D000031CB3010130B4003408C507AC2B330827
:1027E000031D3F2C440803193F2C4408B400B501D5
:1027F000B435B50DB435B50D34084207B60035080B
:10280000433DB7003608860037088700423142084A
:10281000783E84000030433D8500403F803F413F8B
:10282000813F4408013EB4003408C5001E30450213
:1028300003183F2C4508B400B501B435B50DB435C7
:10284000B50D0030B6002230B70034083607F3006B
:102850003508373DF4004730F5000130F60004300C
:10286000B8003808F700BD319E25923101302000B4
:10287000B4003408C5071E304502031C1A2C003072
:10288000A8002230A9007A30AA000030AB00B33192
:10289000C923923100302000A0002230A1008030F6
:1028A000B4003408A2007C30B5003508A300BE3166
:1028B000DA2692317430F3002330F4000030F50052
:1028C0002230F6007C302000B4003408F700BD311F
:1028D0009E25923174302000A8002330A9007C305E
:1028E000AA000030AB00B5315A252000B4003408EE
:1028F000C5002200D701013008002000BC012100E2
:1029000046080319862CBB31412308005830F300D8
:102910000130F40030302000BA003A08F5000930E8
:10292000BB003B08F600BB31E223943121002B08A9
:10293000AF002A08AE002908AD002808AC0000301E
:102940002000A3000030A2000030A1006430A000ED
:1029500021002F082000A70021002E082000A6003B
:1029600021002D082000A50021002C082000A40033
:10297000A03113209431200023082100AF00200053
:1029800022082100AE00200021082100AD00200017
:1029900020082100AC00AF1B042DAF1BE32C2F0837
:1029A000031DDB2C2E08031DDB2CB9302C020B3051
:1029B0002D3B031CE32C0030AF000030AE000B3089
:1029C000AD00B830AC002F082000B40021002E0864
:1029D0002000B30021002D082000B20021002C08A7
:1029E0002000B1000430BA003A08B5005F30A731CA
:1029F0004727943103302000BA003A08F3005C30D6
:102A0000B03191209431562DAC09AD09AE09AF0912
:102A1000AC0A0319AD0A0319AE0A0319AF0AAF1BBA
:102A2000252D2F08031D1D2D2E08031D1D2DE830FB
:102A30002C0203302D3B031C252D0030AF0000304D
:102A4000AE000330AD00E730AC002F082000B4002A
:102A500021002E082000B30021002D082000B20024
:102A600021002C082000B1000430BA003A08B5005B
:102A70005F30A7314727943103302000BA003A086D
:102A8000F3005C30B031912094312000BB003B0852
:102A9000BC003C080319562D2D30BA003C08033EFB
:102AA000583E8600013087003A08810021002B083B
:102AB000AF002A08AE002908AD002808AC002400A9
:102AC00032082000A000240033082000A100890D56
:102AD000893B8909A200A30021002F082000A7003C
:102AE00021002E082000A60021002D082000A500AE
:102AF00021002C082000A400A031132094312000D4
:102B000023082100AF00200022082100AE00200091
:102B100021082100AD00200020082100AC00AF1BDF
:102B2000C82DAF1BA72D2F08031D9F2D2E08031D99
:102B30009F2D10302C0227302D3B031CA72D003079
:102B4000AF000030AE002730AD000F30AC002F08D2
:102B50002000B40021002E082000B30021002D0821
:102B60002000B20021002C082000B1000430BA007F
:102B70003A08B5005B30A731472794310330200075
:102B8000BA003A08F3005830B031912094311A2E2F
:102B9000AC09AD09AE09AF09AC0A0319AD0A0319B6
:102BA000AE0A0319AF0AAF1BE92D2F08031DE12D53
:102BB0002E08031DE12DE8302C0203302D3B031CB1
:102BC000E92D0030AF000030AE000330AD00E7303B
:102BD000AC002F082000B40021002E082000B30014
:102BE00021002D082000B20021002C082000B10097
:102BF0000330BA003A08B5005B30A731472794315B
:102C000003302000BA003A08F3005830B031912068
:102C100094312000BB003B08BC003C0803191A2E6D
:102C20002D30BA003C08FF3E583E86000130870038
:102C30003A088100BB31582394310130BD31EF2572
:102C400094312000B201B20A0430AC31DC2494315A
:102C500058302000A2000130A300A831E82008006D
:102C60002000C701DE2F1A302200C3000030C4004C
:102C700002302000C60046082200D7000230C500FE
:102C80000030C6004730F3000130F4006130F50039
:102C90000130F60002302000C6004608F700BD31C2
:102CA0009E25210042082000C60046082100C300DE
:102CB00008002200D701D70A613086000130870062
:102CC000403FC700413FC8002000B3012100450834
:102CD0009231FB2296312000C6004608C700470803
:102CE000031908002100C50142082000C60046085B
:102CF0002100C30008002200C301C4010430C50044
:102D00000030C60061082000C60046082200C70047
:102D100062082000C60046082200C800C901CA0196
:102D200002302000C60046082200D70021004208D9
:102D30002000C60046082100C300080039302200E8
:102D4000C3000030C4000130C5000030C600610877
:102D50002000C60046082200C70002302000C6003E
:102D600046082200D700210042082000C60046087D
:102D70002100C300080012302200C3000030C4004C
:102D80000230C5000030C60061082000C6004608B9
:102D90002200C70062082000C60046082200C800C2
:102DA00002302000C60046082200D7002100420859
:102DB0002000C60046082100C3000800243022007D
:102DC000C3000030C4006130860001308700403FFE
:102DD000F800413FF9007908F4007808F300643006
:102DE000F5000030F600BE317D2673082100B400E6
:102DF0007408B500B601B70137082200CA002100E7
:102E000036082200C900210035082200C800210030
:102E100034082200C7000430C5000030C60002306C
:102E20002000C60046082200D700210042082000EA
:102E3000C60046082100C300080009302200C30074
:102E40000030C40002302000C60046082200D7002F
:102E50000130C5000030C60061082000C6004608E9
:102E60002200C700210042082000C60046082100B9
:102E7000C300080014302200C3000030C400023038
:102E8000C5000030C6006130860001308700403F39
:102E9000F800413FF9006430F3000030F400790895
:102EA000F6007808F500BE317D2696317408F900E9
:102EB0007308F80079082200C8007808C7000230BB
:102EC0002000C60046082200D7000230C5000030AE
:102ED000C6006430F3000030F40024003708F60028
:102EE0003608F500AA3116226130860001308700CD
:102EF0007308C03F7408C13F210042082000C6008B
:102F000046082100C300080016302200C30000302C
:102F1000C4000230C5000030C600613086000130B8
:102F20008700403FF800413FF9006430F300003073
:102F3000F4007908F6007808F500BE317D267408A3
:102F4000F9007308F80079082200C8007808C70063
:102F500002302000C60046082200D7000230C5001B
:102F60000030C600210042082000C60046082100AB
:102F7000C30008003C302200C3000030C40002300F
:102F80002000C60046082200D7000130C5000030EE
:102F9000C60061082000C60046082200C7002100C4
:102FA00042082000C60046082100C300080042086D
:102FB0002000C60046082100C30008002100430885
:102FC000403A0319332E103A0319592E303A031997
:102FD0007B2E103A03199E2EF03A0319BB2E103A9D
:102FE0000319DE2E303A03191D2F103A03193A2F18
:102FF000013A0319842F403A0319BA2FD72F08003A
:10300000FF3FFF3F2000AF002E30280203180800CA
:1030100004302F02031808000C30AA002A08A4006C
:103020002808AB00AC012B08F5002C08F60018307E
:10303000F3000030F400AA31162298317308BC3135
:103040005A2498312000AD002D08AE000330AA00AC
:103050002A08A4002F08BC315A2498312000AB0064
:103060002B08AE071830AA002A08F3002808BE3142
:10307000BA2698312000AB002B08A8000830F300D6
:103080000030F4002808AA00AB012A08F5002B083C
:10309000F600AA311622983173082000AC002C08E3
:1030A000AE0728080739AA002A08B1002E08A63E54
:1030B000AA002A08B000290803196E280130AA00C6
:1030C000310A6328AA35890B62282A08AB00300828
:1030D0008600013087002B08810408000130AA0017
:1030E000310A7328AA35890B72282A08FF3AAB00E7
:1030F00030088600013087002B0881050800003069
:103100002000B6002230B7000030F3002230F40077
:103110002030F5000230F6004830B3003308F700E5
:10312000BD319E25983120003608303E86000030A3
:10313000373D870021003008810741313108813D4A
:1031400041313208813D41313308813D200036084C
:103150002C3E86000030373D870021002808C03F04
:103160002908C13F2A08C23F2B08C33F2000360868
:103170003E3EB3000030373DB400330886003408CB
:103180008700210040088100033043020318D6283D
:1031900020003608223EB3000030373DB40033082B
:1031A00086003408870021004308E3282000360801
:1031B000223EB3000030373DB400330886003408A7
:1031C0008700210042088100023022005706031DBB
:1031D0000629D7014408F9004308F8000030200010
:1031E000B3002230B40078083307F3007908343D87
:1031F000F4004730F5000130F600220045082000B9
:10320000B5003508F700BD319E259831003020000B
:10321000A8002230A9004630AA000030AB00B3312C
:10322000C92398312030F3000230F4000030F5005B
:103230002230F60048302000B3003308F700BD31DB
:103240009E25983100302000A0002230A100A2016C
:103250004830B3003308A300BE31DA269831BC31C0
:10326000A42400302100B3000030B2000030B100CF
:103270000030B00008002000BC00B901BA01B8015C
:103280003C08B6003608BB003B08860004308700C7
:10329000010824002906031D080020003B08023E07
:1032A0008600043087000108B600B7013608B9006F
:1032B0003708BA000830B935BA0D890B5B293B08CD
:1032C000033E8600043087000108B600B7013608C7
:1032D000B9043708BA04C3293C08053E8600043007
:1032E00087000119D72921004011D729220057084A
:1032F000031DB1291230C3000030C4000230C500E4
:103300000030C60020003C088600043087000430EE
:10331000453F2200C70020003C088600043087009B
:103320000430443F2200C80003304802E93003194A
:103330004702031C9F29E830C7000330C800003053
:1033400048020A30031947020318AA290A30C700A5
:103350000030C80002302000B60036082200D70036
:10336000D72904302000B6003608B3003C08B63137
:103370003C26080002302000B6003608B3003C08A6
:10338000B6313C260800FF3020003905B600003079
:103390003A05B7003708003A0319CF29BA29360889
:1033A000023A03196C290B3A03197629BA2920002D
:1033B0003B08860004308700010803190800240038
:1033C00029082000B6003C08860004308700360833
:1033D00081003C08A8000430A9000630AA00003093
:1033E000AB00B331C923993108302000B60036084C
:1033F000F3003C08B3319923080021003C08A400E5
:103400003D08A500A601A701220041082000B50043
:10341000B601B701B8013808A3003708A200360882
:10342000A1003508A000210027082000A7002100E6
:1034300026082000A600210025082000A500210064
:1034400024082000A400B331692399312000230807
:103450002100A700200022082100A600200021084A
:103460002100A500200020082100A4000130A7367B
:10347000A60CA50CA40C890B372A200824072000D1
:10348000B50021002108253D2000B60021002208BA
:10349000263D2000B70021002308273D2000B8006A
:1034A00038082100A300200037082100A2002000D6
:1034B00036082100A100200035082100A0000030BE
:1034C0002000AB000030AA00EA30A9006030A8005C
:1034D000210023082000AF00210022082000AE00B8
:1034E000210021082000AD00210020082000AC00B0
:1034F000AA316822993120002808210030072000D5
:10350000B50029082100313D2000B6002A0821001D
:10351000323D2000B7002B082100333D2000B800C9
:1035200038082100B300200037082100B200200035
:1035300036082100B100200035082100B00000301D
:103540002000A3000030A200EA30A1006030A000FB
:10355000210023082000A700210022082000A60047
:10356000210021082000A500210020082000A4003F
:10357000B7317A27200023082100A3002000220869
:103580002100A200200021082100A1002000200825
:103590002100A0002200C10108002000BF00BA01E4
:1035A000BB01BD01BE013F08B6003608BC003C08A7
:1035B000860004308700010824002906031D080046
:1035C00020003C08023E8600043087000108B60057
:1035D000B7013608BA003708BB000830BA35BB0D52
:1035E000890BEE2A3C08033E860004308700010860
:1035F000B600B7013608BA043708BB043C08043EDD
:103600008600043087000108B600B7013608BD0007
:103610003708BE000830BD35BE0D890B0B2B3C08AA
:10362000053E8600043087000108B600B701360861
:10363000BD003708BE003A083D07B6003B083E3DD6
:10364000B7000030370220300319360203182F2B41
:1036500000303E02113003193D02031C372B0230AB
:10366000B6003608B3003F08B6313C2608002000FB
:103670003F08033EF4000430F5003A08B60001307C
:10368000B635FF3E031D402B3635803EB700370868
:10369000F6003D08B8000130B835FF3E031D4C2B45
:1036A0003835B9003908F700BE319B269A3124001D
:1036B00029082000B6003F0886000430870036083D
:1036C00081000330B6003F0A8600043087003608C8
:1036D00081003D08B6000130B635FF3E031D6C2B5E
:1036E0003635B7003F08023E8600043087003708B1
:1036F00081003F08023E8600043087000108033E37
:10370000BD00003003180130BE003F08A80004309F
:10371000A9003E08AB003D08AA00B331C9239A3185
:1037200002302000BD070030BE3D3D08B60036081F
:10373000F3003F08B331992308002000D200CD01E7
:10374000CD0ACE01CF01210041082000C800480861
:10375000CC004408803AC8004608803A4802031D5D
:10376000B32B45084302031808000030F300F400AF
:10377000BB312C239B3120004D03031D162CCD01A2
:1037800047080319EA2B52088600013087000130F0
:10379000810741310318810A5208860001308700F1
:1037A000403FC800413FC9004608803ACA00490866
:1037B000803A4A02031DDE2B480845020318132CE9
:1037C000200052088600013087004308C03F4408AB
:1037D000C13F132C5208860001308700403FC800CB
:1037E000413FC9004408803ACA004908803A4A0269
:1037F000031DFC2B48084302031C082C2000520820
:103800008600013087004508C03F4608C13F132CA1
:1038100020005208860001308700FF3081074131C7
:10382000FF30813D7F319F3107279B31BF31D92741
:103830009B3120004C0821004106031D0800BB31CC
:1038400097239B3174082000D1007308D000033007
:103850005102E9300319500203183F2C4E09C800E9
:103860004F09C900C80A0319C90A50084807CA0005
:103870005108493DCB0000304B02C830672C07305F
:103880005102D130031950020318572C4E09C800B9
:103890004F09C900C80A0319C90A50084807CA00D5
:1038A0005108493DCB0000304B026430672C4E0973
:1038B000C8004F09C900C80A0319C90A50084807B7
:1038C000CA005108493DCB0000304B020A300319B1
:1038D0004A02031CBB2B5108CF005008CE00CD017B
:1038E000CD0ABB2B00302000BA002230BB000030D4
:1038F000F4002230F5008030B3003308F6007C304D
:10390000B4003408F700BE319B269C310030200003
:10391000A8002230A9007C30AA000030AB00B531ED
:103920005A259C312000B3003308B9003908031D23
:10393000282DBC011E303C020318EB2C3C08013E34
:10394000F300003003180130F400D030F5000730E8
:10395000F600BE317D269C3120003C08B300B40146
:10396000B335B40DB335B40D33083A0786003408C7
:103970003B3D87007308C03F7408C13F3C08B3005B
:10398000B4013308F3003408F4006430F50000306B
:10399000F600BE317D269C3120003C08B500B60102
:1039A000B535B60DB535B60D35083A07B70036084A
:1039B0003B3DB8003708860038088700423173085D
:1039C000C03F7408C13F0130B3003308BC071E304C
:1039D0003C02031C9E2C3C08B300B401B335B40D6B
:1039E000B335B40D3308FC3EB500FF30343DB600AE
:1039F00035083A07B70036083B3DB800370886005F
:103A00003808870042313A08783E840000303B3D58
:103A10008500403F803F413F813F0030A800223079
:103A2000A9007A30AA000030AB00B331C9239C3121
:103A300000302000A0002230A1008030B300330805
:103A4000A2007C30B4003408A300BE31DA269C31D9
:103A50007430F3002330F4000030F5002230F6001B
:103A60007C302000B3003308F700BD319E259C3127
:103A700074302000A8002330A9007C30AA00003058
:103A8000AB00B5315A252000B3003308B900080057
:103A90002300D401D5012100C019080003307A06A3
:103AA0000319080004307A06031908002200BB013C
:103AB000BB0AB701B331FA239D31003A0319F82D3F
:103AC0002200B701B70A2000CA01BE308031A02011
:103AD0009D312100EE006E08BE003E08031DF82D4A
:103AE000083023004906031DF82D02302100EE00A6
:103AF0006E082200B7008D31A3259D312100EE0014
:103B00006E082300D50055080319F82DBF31D927B9
:103B10009D31023021004106031DF52DB631BA2634
:103B20009D312100EE006E082300D50055080319D1
:103B3000F82DB6317B269D312100EE006E08230062
:103B4000D50055080319F82D94317D249D312200AC
:103B50000C1527000C1422008C1127008C108B31BF
:103B600078239D312100EE006E082300D500550812
:103B7000031DC82D143022003706031DCB2D9A30AB
:103B80002000A200B830A300A831E8209D31CB2D41
:103B900094317D249D312300D5010F305502031847
:103BA000ED2D031022000C1D0314031CDA2D22003E
:103BB0000C15DC2D22000C114C30F3009030F40079
:103BC000BB3189239D3101302100EE006E082300B6
:103BD000D5070F305502031CD22D15302100EE0001
:103BE0006E082200B7000C11F82D2300D401D40A6E
:103BF000B53191259D31BB3123239D31B5319125BF
:103C00009D312300A001A101FE302100EE006E08CD
:103C1000C7052200BB012300540803190800023025
:103C20007A06031D172E0230B031BB209D317A0376
:103C3000031D08002100C01808000430BF311D27F3
:103C400008002000D4000330210043020318E22EB4
:103C500020005408A0310020080000302000C300DC
:103C6000C400C830C5000030C6005408D300530853
:103C7000C70061309B319D23080001302000C30044
:103C80000030C4000F30C5002730C6005408D300F0
:103C90005308C70061309B319D230800003020008D
:103CA000C300C4000F30C5002730C6005408D3003D
:103CB0005308C70061309B319D230800003020006D
:103CC000C300C4000F30C5002730C6005408D3001D
:103CD0005308C70061309B319D230800013020004C
:103CE000C3000030C400FD30C5000030C6005408D9
:103CF000D3005308C70061309B319D23080000307A
:103D00002000C300C4001430C5000030C6005408B1
:103D1000D3005308C70061309B319D2308000A304F
:103D20002000C3000030C400E830C5000330C600E6
:103D30005408D3005308C70061309B319D2308000D
:103D400000302000C300C400E830C5000330C600C6
:103D50005408D3005308C70061309B319D230800ED
:103D60009C302000C300FF30C4006430C500003028
:103D7000C6005408D3005308C70061309B319D230F
:103D800008009C302000C300FF30C4006430C50030
:103D90000030C6005408D3005308C70061309B317F
:103DA0009D23080000302000C300C4000130C5007E
:103DB0000030C6005408D3005308C70061309B315F
:103DC0009D23080021004308103A03192D2E503A74
:103DD00003193D2E103A03194E2E303A03195E2E68
:103DE000103A03197F2EF03A03198F2E103A031957
:103DF000A02E303A03196E2E103A0319B02E013A54
:103E00000319C12E403A0319D22E062F0800F730AD
:103E10002000C10041082100C70504307A060319BB
:103E2000172F03307A06031D7A03031DC62F0330B4
:103E300043020318C62FBB3158239F317A0303195D
:103E4000242F22003E1C572F21004403031D302F36
:103E5000C7302000A200B830A300A831E8209F316D
:103E6000023021004406031D3D2FBE302000A20079
:103E7000B830A300A831E8209F3103302100440668
:103E8000031D4A2FB5302000A200B830A300A8318E
:103E9000E8209F31043021004406031D0800AC30A7
:103EA0002000A200B830A300A831E8200800BC31EF
:103EB00003240800A231BE2227008C1422008C119A
:103EC00027000C100800AE31202622008C15270098
:103ED0000C108C10080094317D2427000C14220053
:103EE0008C1127008C100800220061082000C100FE
:103EF000C20141082200AA00200042082200AB00B3
:103F000048302000A700B930A80022002B0820006C
:103F1000AA0022002A082000A900A6318F26080046
:103F2000BC3191240800BC316C240800A831A120C8
:103F30000800A13117219F31031027008C1C0314A6
:103F4000031CA52F27008C14080027008C100800E4
:103F5000A13117210800BC31B8240800BC31252448
:103F60000800AC3118240800A83100200800BC313A
:103F700014240800B4318D240800B4315C240800F6
:103F8000A13199210800B031002008002100430828
:103F9000003A03195A2F013A0319632F033A031900
:103FA0006B2F123A0319742F303A0319902F103ADD
:103FB0000319932F703A0319962F103A0319A82F5B
:103FC000303A0319AB2F103A0319AE2FF03A031908
:103FD000B12F103A0319B42F303A0319B72F103A02
:103FE0000319BA2F013A0319BD2F713A0319C02FD3
:103FF000203A0319992F113A0319C32FFF2F0800F4
:10400000F4007408031D0D280130F300730821002B
:10401000C307033043020318C30121004308F30020
:104020007308C20008002000A901A31F2428A009CA
:10403000A109A209A309A00A0319A10A0319A20A46
:104040000319A30AA901A90AA71F3528A409A509CC
:10405000A609A709A40A0319A50A0319A60A0319A0
:10406000A70A0130F3007308A9060030AD00003044
:10407000AC000030AB000030AA0023082204210469
:10408000200403197E28A801A80AA31B5328013085
:10409000A035A10DA20DA30D890B48280130F30016
:1040A0007308A80745280130AA35AB0DAC0DAD0D3E
:1040B000890B542823082702031D6828220826029A
:1040C000031D682821082502031D682820082402F2
:1040D000031C73282008A4022108A53B2208A63B44
:1040E0002308A73B2A140130A336A20CA10CA00C74
:1040F000890B74280130A802031D532829080319CD
:104100008C28AA09AB09AC09AD09AA0A0319AB0AA4
:104110000319AC0A0319AD0A2D08A3002C08A2004C
:104120002B08A1002A08A000080020004A084B0420
:1041300003199E2811304C02031CA02806300800E9
:104140005330F3000030F4004B08F6004A08F50045
:104150004C08CE004E08F700BD319E25A0315330EB
:104160002000A6000030A7004C08CE004E08A80092
:104170004C08533EA9000030AA00AD31B025A03153
:104180002000CF004F08E80068080319C928680814
:1041900008000230CE004E08CC073030CE004E086A
:1041A000E5001230CE004E08E700E6016508CE00BB
:1041B0004E08B1005330B2000030B3004C08CF00BD
:1041C0004F08B4005330B5000030B6006730D0005F
:1041D0005008B7006630D1005108B800B901BA01E3
:1041E0000C308631A426A0312000D2005208E8000D
:1041F0004D080319012903306806031D0129003009
:104200000800680803190629680808006703031DE9
:104210000D290430660603190F29013008000A3001
:10422000530603191529FF3008000030080021004B
:1042300045082000BA003A08BD005830F3000130AC
:10424000F4003030BA003A08F5000930BB003B08F2
:10425000F600BB31E223A13164302000BA003A08F5
:10426000F3003D08BE31BA26A1312000BB003B0857
:10427000BD000A30F3000030F4003D08BA00BB0175
:104280003A08F5003B08F600AA311622A13173085E
:10429000303E2000BC003C082200D8000A30F30069
:1042A0000030F40020003D08BA00BB013A08F500D8
:1042B0003B08F600A8311420A1317308303E2000DD
:1042C000BC003C082200D900613086000130870024
:1042D000403F2000BA00413FBB003A08B1003B0814
:1042E000B200890D893B8909B300B4000430BC00D9
:1042F0003C08B5005F30A7314727A13104302000CA
:10430000BA003A08F3005A30B0319120A131BB31E4
:104310005823A1312000B201B20A0130AC31DC24B3
:10432000A13158302000A2000130A300A831E820BC
:104330000800BB315823A131240027082604250496
:104340002404031DAB29A3302000A200B830A30031
:10435000A831E82008000C30203E8600023087009B
:10436000403F2100B400413FB500423FB600433F0B
:10437000B70000302000AB000030AA000030A900D8
:104380006430A800210037082000AF002100360863
:104390002000AE00210035082000AD0021003408C7
:1043A0002000AC00AA316822A13120002B08210096
:1043B000B70020002A082100B600200029082100AB
:1043C000B500200028082100B4005830F300013067
:1043D000F40020302000BA003A08F5000930BB0094
:1043E0003B08F600BB31E223A13121003708200051
:1043F000B400210036082000B30021003508200059
:10440000B200210034082000B1000730BA003A0899
:10441000B5005F30A7314727A13107302000BA002F
:104420003A08F3005830B0319120A1316B302000B0
:10443000BA003A082200D8006A302000BA003A08D0
:104440002200D90058302000A2000130A300A8317A
:10445000E8200800240032082100AC0024003308C2
:104460002100AD00890D893B8909AE00AF00003005
:104470002000AB000030AA000030A9000A30A800DC
:1044800021002F082000A30021002E082000A200F8
:1044900021002D082000A10021002C082000A000F0
:1044A000210033082000A700210032082000A600C8
:1044B000210031082000A500210030082000A400C0
:1044C000B3316923A23120002308AF002208AE00D7
:1044D0002108AD002008AC00AA316822A2312000DA
:1044E0002B082100AF0020002A082100AE00200088
:1044F00029082100AD00200028082100AC0024007C
:104500004C082000B50024004D082000B60024000F
:104510004E082000B70024004F082000B8002100FA
:104520002C092000B90021002D092000BA0021002B
:104530002E092000BB0021002F092000BC00B90A71
:104540000319BA0A0319BB0A0319BC0A3908B507CB
:104550003A08B63D3B08B73D3C08B83D3808210055
:10456000AB00200037082100AA00200036082100F7
:10457000A900200035082100A800080021003C08FF
:104580002000BD0021003D082000BE00BF01C00189
:10459000210046080319CF2ABB31412308005830B7
:1045A000F3000130F40030302000BA003A08F50082
:1045B0000930BB003B08F600BB31E223A2312200E8
:1045C000E00124005C08031DEB2A5D082000BA000E
:1045D0003A08BC00282B02302000BA003A08BC0080
:1045E0004008A3003F08A2003E08A1003D08A0002B
:1045F0000030A7000030A6000030A5003C30A40029
:10460000B3316923A23120002308C0002208BF0073
:104610002108BE002008BD000030AB000030AA0019
:104620000030A9006430A8004008AF003F08AE0089
:104630003E08AD003D08AC00AA316822A23120003E
:104640002B08C0002A08BF002908BE002808BD00AA
:104650004008B4003F08B3003E08B2003D08B10076
:104660000830BA003A08B5005F30A7314727A231B9
:1046700020003C08013EFF3A013E083EBA003A08DD
:10468000F3005830B0319120A231BB315823A23110
:104690002000B201B20A3C08AC31DC24A23158300F
:1046A0002000A2000130A300A831E82008007430E7
:1046B000860023308700403F2000A000413FA1003A
:1046C00021087402031D662B2008730203186A2B4D
:1046D00000300800F5011D3075020318EF2B750836
:1046E000A000A101A035A10DA035A10D7430A2003C
:1046F0002330A3002008220786002108233D8700DD
:10470000403FA400413FA50025087402031D8A2BE9
:1047100024087302031CAF2B7508A000A101A0356B
:10472000A10DA035A10D2008043EA2000030213DBE
:10473000A3007430A4002330A500220824078600BB
:104740002308253D8700403FA600413FA7002708DA
:104750007402031DAD2B26087302031CEF2B750892
:10476000A000A101A035A10DA035A10D2008043E97
:10477000A2000030213DA3007430A4002330A50026
:104780002208240786002308253D8700403FA60015
:10479000413FA7007508A800A901A835A90DA835B3
:1047A000A90D7430AA002330AB0028082A07860020
:1047B00029082B3D8700403FAC00413FAD00270852
:1047C0002D02031DE52B26082C020318EF2B0130C8
:1047D000A0002008F5071D307502031C6F2B75081B
:1047E00008007F2C2100C5012200D701D70AC7018C
:1047F000C8012000B301B30A210045089231FB2211
:10480000A33161308600013087000030C03FC13FD6
:104810008E2C2C302200C3000030C4000230200057
:10482000C60046082200D7000430C5000030C6008C
:104830004730F3000130F400F50104302000C600D9
:104840004608F600BB31E223A3318E2C3030220023
:10485000C3000030C40002302000C6004608220019
:10486000D7000430C5000030C6004730F3000130E7
:10487000F400F50104302000C6004608F600BB3104
:10488000E223A3318E2C0C302200C3000030C40080
:1048900002302000C60046082200D7000630C500BE
:1048A0000030C6004730F3000130F400F501063057
:1048B0002000C6004608F600BB31E223A331983140
:1048C0007F20A33104302200C3000030C400023036
:1048D0002000C60046082200D7000430C500003082
:1048E000C6000030CA000030C9000030C8000030E7
:1048F000C70098317F20A3318E2C003008002100A2
:104900004308203A0319092C103A0319262CF03ACF
:104910000319432C203A0319F22B7D2C0030080098
:104920002000CC00CA01CB014C08C6004608CD00CF
:104930004D08860004308700010824002906031D65
:10494000080020004D08023E860004308700010860
:10495000C600C7014608CA004708CB000830CA3560
:10496000CB0D890BAF2C4D08033E86000430870029
:104970000108C600C7014608CA044708CB04003036
:104980004B021F3003194A02031CCE2C0230C60012
:104990004608B3004C08B6313C26080020004D08FC
:1049A000043E8600043087000108C600C70146089F
:1049B000C8004708C9000830C835C90D890BDC2C70
:1049C0004D08053E8600043087000108C600C70177
:1049D0004608C8044708C90449082200C800200046
:1049E00048082200C700D701D70A20004C0A8600D9
:1049F000043087006E300106031D042D4A084B0465
:104A00000319042DB301072D2000B301B30A4A088E
:104A10009231FB22A43120004D088600043087002B
:104A2000010803190800240029082000C6004C08CA
:104A3000860004308700460881004C08A800043036
:104A4000A9000630AA000030AB00B331C923A4315D
:104A500008302000C6004608F3004C08B331992303
:104A60000800BB315823A5315830F3000130F40061
:104A700020302000AB002B08F5000830AC002C08DB
:104A8000F600BB31E223A5312200E0012000280816
:104A9000F4002708F3005830BF318C27A5312000DF
:104AA0002A08F9002908F8000A30F3000030F40061
:104AB0007908F6007808F500B1313E21A531730878
:104AC000303E2000AB002B082200DF000A30F3004C
:104AD0000030F4007908F6007808F500B531252596
:104AE000A5317408F9007308F800780879040319EF
:104AF000D52D0A30F3000030F4007908F60078086C
:104B0000F500B1313E21A5317308303E2000AB00E5
:104B10002B082200DE000A30F3000030F400790890
:104B2000F6007808F500B5312525A5317408F9009F
:104B30007308F800780879040319D52D0A30F300BA
:104B40000030F4007908F6007808F500B1313E2114
:104B5000A5317308303E2000AB002B082200DD0099
:104B60000A30F3000030F4007908F6007808F50008
:104B7000B5312525A5317408F9007308F8007808C7
:104B800079040319D52D0A30F3000030F4007908B8
:104B9000F6007808F500B1313E21A5317308303EAA
:104BA0002000AB002B082200DC0058302000A200BF
:104BB0000130A300A831E82008002000C900C4018A
:104BC000C501C8014908C0004008C6004608860063
:104BD00004308700010824002906031D0800200076
:104BE0004608023E8600043087000108C000C1016B
:104BF0004008C4004108C5000830C435C50D890B04
:104C0000FD2D4608033E8600043087000108C000E1
:104C1000C1014008C4044108C5044508C300440854
:104C2000C20046088600043087000430453FC800B3
:104C30000310C80D21304802031C222E2030C00072
:104C40004008C800C701480847020318552E43080A
:104C5000B6004208B5004A30C0004008B7008931AC
:104C60005021A53120004B08C0004708033E4907EA
:104C7000C1004108860004308700400881004A08CE
:104C8000C0004708043E4907C100410886000430BF
:104C90008700400881004708023EC0004008C70066
:104CA0000130C2070030C33D232E24002908200014
:104CB000C0004908860004308700400881000330A6
:104CC000C000490A86000430870040088100480877
:104CD000C0004908023E8600043087004008810079
:104CE0000330C0004008C8074908A8000430A900E4
:104CF0004808C000C1014008AA004108AB00B33118
:104D0000C923A53102302000C0004008C807480868
:104D1000C0004008F3004908B33199230800BB31B3
:104D20005823A6315830F3000130F4002030200021
:104D3000AB002B08F5000830AC002C08F600BB31A6
:104D4000E223A6312200E00120002808F400270811
:104D5000F3005830BF318C27A63130302000AB0033
:104D60002B082200DD0030302000AB002B08220091
:104D7000DE0020002A08F9002908F8000A30F300B4
:104D80000030F4007908F6007808F500B1313E21D2
:104D9000A6317308303E2000AB002B082200DF0054
:104DA0000A30F3000030F4007908F6007808F500C6
:104DB000B5312525A6317408F9007308F800780884
:104DC000790403193F2F0A30F3000030F40079080A
:104DD000F6007808F500B1313E21A6317308303E67
:104DE0002000AB002B082200DE000A30F300003068
:104DF000F4007908F6007808F500B5312525A631CC
:104E00007408F9007308F8007808790403193F2F33
:104E10000A30F3000030F4007908F6007808F50055
:104E2000B1313E21A6317308303E2000AB002B0883
:104E30002200DD000A30F3000030F4007908F600AB
:104E40007808F500B5312525A6317408F9007308F6
:104E5000F8007808790403193F2F0A30F300003076
:104E6000F4007908F6007808F500B1313E21A6314A
:104E70007308303E2000AB002B082200DC005830C5
:104E80002000A2000130A300A831E8200800F700AC
:104E900020003508031908000030AB000030AA00DC
:104EA0000030A9000A30A8003508B6003608AC006A
:104EB000B631F926A73120002B082100B7002000C9
:104EC0002A082100B600200029082100B500200092
:104ED00028082100B400FF302000B600FF30B700E2
:104EE000FF30B800FF30B900210034082000B607B9
:104EF000210035082000B73D210036082000B83DCC
:104F0000210037082000B93D39083402031D922FD3
:104F100038083302031D922F37083202031D922FE7
:104F200036083102031CA82FFF302100340720006F
:104F3000B100FF302100353D2000B200FF302100DC
:104F4000363D2000B300FF302100373D2000B40083
:104F50000130B502350A031908000030A300003003
:104F6000A2000030A1000A30A0003408A7003308D6
:104F7000A6003208A5003108A400AD314225A731B2
:104F8000200023082100B700200022082100B600DD
:104F9000200021082100B500200020082100B400D5
:104FA000350885003408840069308407B830853DB1
:104FB00000082000B6007708860001308700360818
:104FC00081000130F7020030A3000030A200003061
:104FD000A1000A30A0003408A7003308A600320858
:104FE000A5003108A400A0311320A7312000230818
:104FF000B4002208B3002108B2002008B100A82F95
:105000006130860001308700403FF800413FF900E1
:105010004D302000A700B930A8007908AA00780810
:10502000A900A531312508002000A101F61F1F2885
:10503000F509F609F50A0319F60AA101A10AF41FF8
:105040002628F309F409F30A0319F40A730874040F
:1050500003194D28A001A00AF41B38280130F335AC
:10506000F40D890B2F280130F7007708A0072C28B2
:1050700074087602031D3E2873087502031C442839
:105080007308F5027408F63B0130F436F30C890B13
:1050900045280130A002031D38282108031955288E
:1050A000F509F609F50A0319F60A7608F4007508F9
:1050B000F30008002100CA002000690803196428D1
:1050C00010306A020318662806300800A030EB0092
:1050D0006B082100CB004A082000EB006B08210080
:1050E000CC00CB302000CA000030CB000230EB00F7
:1050F0006B08CC00CD01A0319520A8312000EC0038
:105100006C082100CD004D08031988284D080800BF
:1051100020006908CA000430CB006A08EB006B0865
:10512000CC00CD01A0319520A8312000EC006C0806
:105130002100CD004D0803199F284D0808000030BC
:1051400008006130860001308700403F2000BC002D
:10515000413FBD005830F3000130F4002030BA0068
:105160003A08F5000930BB003B08F600BB31E223EA
:10517000A83120003C08B1003D08B200B301B401E1
:105180000430BA003A08B5005F30A7314727A8318C
:105190006C302000BA003A082200D800BB315823F6
:1051A000A8312000B201B20A0330AC31DC24A831AE
:1051B00058302000A2000130A300A831E820A83117
:1051C00058302000A2000130A300A831E8200800D8
:1051D0002000A501A60122088400230885001200F2
:1051E00003192D29A60128302602031810292608A4
:1051F000003E8400B8300318013E85000008A4007A
:1052000022088400230885000008240603191029B9
:105210000130A4002408A60728302602031CF72822
:1052200028302602031823292508A4002408F500A5
:105230002608293E8400B8300318013E8500000886
:10524000B1311121A83101302000A2070030A33D67
:105250000130A4002408A507EB28BC310324080072
:10526000E1341034003400340034003400340034AD
:105270004134FF34B8342234003400340034003474
:1052800000340034643400343234003428340034C0
:1052900000340034E8340334003400340034003483
:1052A00000340034003400346434003400340034FA
:1052B000E0349334043400340034003400340034D7
:1052C000003400340034003400340034003400343E
:1052D0000034053400340134003401340034013426
:1052E000003400340034003400340034003400341E
:1052F0002000B4010030F4002230F500F6014830FF
:10530000B3003308F700BE319B26A93100302000DE
:10531000A8002230A9004830AA000030AB00B53107
:105320005A25A9312000B3003308B4003408031D06
:10533000B2292030A8000230A9004630AA0000306F
:10534000AB00B331C923A93120302000A0000230C6
:10535000A100A2014830B3003308A300BE31DA2611
:10536000A931C2292030F3000230F4000030F500EA
:105370002230F60048302000B3003308F700BD317A
:105380009E25A931BC31A42408002000D00050087B
:10539000CC004C08D1004A080319D5294B088600D7
:1053A0008701023001020318D72904300800803039
:1053B000CC004C08A2000E30BD310E25A9310730BB
:1053C0002000CC004C08D3003030CC004C08B10099
:1053D0005130B2000030B300B401B40A4A08B5003D
:1053E0000030B6004B08CD004D08B7005330CE005A
:1053F0004E08B800B901BA010C308631A426A93193
:105400002000CF004F08D20052080319092A520881
:1054100008004B0886008701023001060319530873
:105420000319142A01300800003008002000A101EF
:10543000F41F212AF309F409F30A0319F40AA1015C
:10544000A10AF61F2C2AF509F609F50A0319F60A2E
:105450000130F7007708A106A201A30173087404C4
:1054600003195B2AA001A00AF41B402A0130F3357E
:10547000F40D890B372A0130F7007708A007342A8A
:105480000130A235A30D890B412A74087602031D51
:105490004B2A73087502031C522A7308F50274081C
:1054A000F63B22140130F436F30C890B532A0130F9
:1054B000A002031D402A21080319632AA209A30997
:1054C000A20A0319A30A2308F4002208F300080023
:1054D00000302000B3000030B2000030B1000030D6
:1054E000B0002B082A04290428040319B22AB401A5
:1054F000B40AAB1B872A0130A835A90DAA0DAB0D44
:10550000890B7C2A0130F7007708B407792A01302B
:10551000B035B10DB20DB30D890B882A2B082F02BF
:10552000031D9C2A2A082E02031D9C2A29082D02ED
:10553000031D9C2A28082C02031CA72A2808AC0259
:105540002908AD3B2A08AE3B2B08AF3B3014013095
:10555000AB36AA0CA90CA80C890BA82A0130B402FE
:10556000031D872A3308AB003208AA003108A900BE
:105570003008A80008002000CF004A080319C72AF5
:105580004B0886008701123001020318C92A043033
:1055900008003030CC004A088600043087004C08F0
:1055A00081004F08CC004A0A8600043087004C086E
:1055B00081004A08A6000430A7000230CC004C0845
:1055C000A8004A08023EA9000430AA00AD31B02567
:1055D000AA312000CD004D08D00050080319F22A4E
:1055E000500808003030CC004C08B1004A08B20026
:1055F0000430B3000430CD004D08B4004A08B500B3
:105600000430B6004B08CE004E08B700B801B9010F
:10561000BA01BA0A0C308631A4260800FF302000F7
:10562000A600FF30A700A201A30176082302031DF4
:105630001B2B7508220203185F2B73088600740861
:10564000870026080106A6002708A7000130F307F7
:105650000030F43DA401A5010030250208300319F3
:10566000240203185A2B261C452B2708A1002608C4
:10567000A000A136A00C2008A6002108A700013038
:105680002606A600A03027064E2B2708A1002608D4
:10569000A000A136A00C2008A6002108A700013018
:1056A000A4070030A53D003025020830031924026C
:1056B000031C332B0130A2070030A33D152B270814
:1056C000F4002608F30008002000D300D10153089D
:1056D000D0005008D200520886000430870001082C
:1056E0002400290603197C2B200052088600043070
:1056F000870001080319080020005308A80004309F
:10570000A9004F08AB004E08AA00B5315A25AB31AD
:10571000003A03190800A72B20005308A531DD2506
:1057200008002000530899313B210800200053084D
:105730009A31CD22080020005308A431902408009B
:105740002000B301B30A5308B6313C2608002000FC
:10575000520A8600043087000108033A03198C2B93
:10576000053A0319912B633A03199B2B023A03194B
:10577000962B093A03199B2BA02B080022006C08DA
:105780000319C42B0130EC02DF30F400740821004F
:10579000C705C71504307A060319D22B03307A06E1
:1057A000031DF42B0130F40074082200B607043006
:1057B0007A06031DE42B14303602031CE42BFA0195
:1057C000FA0ABC317E24AB3103307A06031DF42B78
:1057D000143022003602031CF42B0230F40074084B
:1057E000FA00BC317E24AB3122004208F400740878
:1057F000BE07C2013C303E02031C042C3C30BE02FA
:105800000130F4007408B5073C303502031C0E2C3F
:105810003C30B5020130F4007408B40734080319B1
:105820000800210047172200BE01B501B40108009D
:105830005830F3000130F40030302000BA003A084C
:10584000F5000930BB003B08F600BB31E223AC3168
:105850006130860001308700403FF800413FF90089
:105860006130860001308700403F2000BA00413F90
:10587000BB003A08B1003B08B200890D893B890999
:10588000B300B4000330BC003C08B5005F30A73162
:105890004727AC3105302000BA003A08F3005830F1
:1058A000B0319120AC3164302000BA003A082200B7
:1058B000D8006A302000BA003A082200D9002D3002
:1058C0002000BA003A082200DA00BB315823AC317C
:1058D0002000B201B20A0230AC31DC24AC315830C5
:1058E0002000A2000130A300A831E8200800200019
:1058F000DD001030CE004E08DE005D08CE004E0800
:10590000D1004A08CE004E08D200DF0106305F0207
:105910000318A62C4C08CF004B08CE005F084E079A
:1059200084004F0803184F0A85000008D0005F0864
:10593000023E513E86008701500881000130CE00B2
:105940004E08DF0706305F02031C8A2CDF0104309B
:105950005F020318C42C5F08013E4D07CE004E08BD
:105960008600013087000108CF005F08083E513EE5
:10597000860087014F0881000130CE004E08DF0706
:1059800004305F02031CAB2C5E08CE004E08B10051
:105990005130B2000030B3000C30CF004F08B400DB
:1059A0000030B5000030B600B701B801B901BA0146
:1059B0000E308631A42608002000B500362D1830A0
:1059C000B3003308A8003208B4003408A90003303B
:1059D0009831022008001A302000B3003308A800D4
:1059E0003208B4003408A9000330983102200800BE
:1059F0002C302000B3003308A8003208B40034086B
:105A0000A900033098310220080015302000B300AF
:105A10003308A8003208B4003408A90003309831D4
:105A20000220080004302000B3003308A800320828
:105A3000B4003408A9000330983102200800023075
:105A40002000B3003308A8003208B4003408A900CD
:105A500003309831022008002000A8013208B3006A
:105A60003308A900033098310220080020003508CF
:105A700084000830040203180800B83104358A3E57
:105A800082000800F5012000A71F532DA409A509D5
:105A9000A609A709A40A0319A50A0319A60A031946
:105AA000A70AF501F50AA31F602DA009A109A20903
:105AB000A309A00A0319A10A0319A20A0319A30A38
:105AC00023082204210420040319992DF401F40A67
:105AD000A31B762D0130A035A10DA20DA30D890BBE
