:1000000080313728FF3F08007E14803120007F08B0
:10001000F2008B1A0B1D1028A631372680313228AA
:100020000B1F1C282100111E1C282000111E1C283B
:1000300080310320803132280B1F28282100911E97
:1000400028282000911E2828A63112268031322827
:100050000B1F32282100111C32282000111C3228CD
:10006000A431962472082000FF007E100900803120
:100070003928E9308400A2308500E930860000305C
:1000800087000030FF000530A33149238031523012
:100090008400A43085003F308600013087000030A6
:1000A000FF001630A33149238031D0308400213045
:1000B0008500CC30FE000130FF00A3313D238031AC
:1000C000F801F901FA015830840000308500183039
:1000D000FE000030FF00A3313D238031A0308400BA
:1000E000003085004930FE000030FF00A3313D2381
:1000F000803120308400013085001F30FE00003048
:10010000FF00A3313D238031A03084000130850001
:100110002830FE000030FF00A3313D237E10200078
:100120009631C32E0034C034C1340134C334033497
:100130000234C234C63406340734C7340534C534F7
:10014000C4340434CC340C340D34CD340F34CF34B7
:10015000CE340E340A34CA34CB340B34C9340934A7
:100160000834C834D83418341934D9341B34DB3447
:10017000DA341A341E34DE34DF341F34DD341D34F7
:100180001C34DC341434D434D5341534D734173417
:100190001634D634D23412341334D3341134D13427
:1001A000D0341034F03430343134F1343334F33467
:1001B000F23432343634F634F7343734F5343534F7
:1001C0003434F4343C34FC34FD343D34FF343F34B7
:1001D0003E34FE34FA343A343B34FB343934F934A7
:1001E000F83438342834E834E9342934EB342B3407
:1001F0002A34EA34EE342E342F34EF342D34ED34F7
:10020000EC342C34E43424342534E5342734E73416
:10021000E63426342234E234E3342334E134213426
:100220002034E034A03460346134A1346334A33426
:10023000A23462346634A634A7346734A5346534F6
:100240006434A4346C34AC34AD346D34AF346F34B6
:100250006E34AE34AA346A346B34AB346934A934A6
:10026000A83468347834B834B9347934BB347B3446
:100270007A34BA34BE347E347F34BF347D34BD34F6
:10028000BC347C34B43474347534B5347734B73416
:10029000B63476347234B234B3347334B134713426
:1002A0007034B034503490349134513493345334E6
:1002B00052349234963456345734973455349534F6
:1002C000943454349C345C345D349D345F349F34B6
:1002D0009E345E345A349A349B345B3499345934A6
:1002E0005834983488344834493489344B348B3406
:1002F0008A344A344E348E348F344F348D344D34F6
:100300004C348C3444348434853445348734473415
:100310004634863482344234433483344134813425
:10032000803440340034C134813440340134C0342A
:10033000803441340134C034803441340034C13419
:10034000813440340134C034803441340034C13409
:10035000813440340034C134813440340134C034F9
:10036000803441340134C034803441340034C134E9
:10037000813440340034C134813440340134C034D9
:10038000803441340034C134813440340134C034C9
:10039000803441340134C034803441340034C134B9
:1003A000813440340134C034803441340034C134A9
:1003B000813440340034C134813440340134C03499
:1003C000803441340034C134813440340134C03489
:1003D000803441340134C034803441340034C13479
:1003E000813440340034C134813440340134C03469
:1003F000803441340134C034803441340034C13459
:10040000813440340134C034803441340034C13448
:10041000813440340034C134813440340134C03438
:10042000803441340134C034803441340034C13428
:10043000813440340034C134813440340134C03418
:10044000803441340034C134813440340134C03408
:10045000803441340134C034803441340034C134F8
:10046000813440340034C134813440340134C034E8
:10047000803441340134C034803441340034C134D8
:10048000813440340134C034803441340034C134C8
:10049000813440340034C134813440340134C034B8
:1004A000803441340034C134813440340134C034A8
:1004B000803441340134C034803441340034C13498
:1004C000813440340134C034803441340034C13488
:1004D000813440340034C134813440340134C03478
:1004E000803441340134C034803441340034C13468
:1004F000813440340034C134813440340134C03458
:10050000803441340034C134813440340134C03447
:10051000803441340134C034803441340034C13437
:10052000813440343034313432343334343435343B
:1005300036343734383439346134623463346434B3
:10054000653466346734683469346A346B346C34C7
:100550006D346E346F347034713472347334743477
:10056000753476347734783479347A342E342D34C3
:100570003A34203400343F3406345B344F3466342C
:100580006D347D3407347F346F3477347C343934C0
:100590005E34793471346F34763406340E347A3400
:1005A0003834003437345C347334673450346D3449
:1005B00078343E340034003400346E345B344034DC
:1005C000403448340034553455345534553455345A
:1005D00055345534553455345534553455345534D3
:1005E00055345534553455345534553455345534C3
:1005F0005534553455345534003430343134323474
:10060000333434343534363437343834393461346F
:100610006234633464346534663400342034203406
:100620006534723472346F347234203400342034C0
:100630002D34683465346C346C3430342D340034EB
:10064000203420342034203473346C342D34663418
:100650000034203420342034203473346C342D346E
:100660006C340034203420342034633475342D3419
:10067000003420346334733437343034303400344D
:100680007034733464342D340034693464342D345C
:1006900000342000C100BD01BE01B901BA01BF0193
:1006A000C001BB01BC010030DF000030DE000030C3
:1006B000DD000130DC00313041020318CF2C41084D
:1006C000AF00B001AF35B00DAF35B00D2430B10083
:1006D0002330B2002F08310786003008323D8700F2
:1006E000403FBF00413FC0004108AF00B001AF35FF
:1006F000B00DAF35B00D2F08043EB1000030303DD5
:10070000B2002430B3002330B40031083307860030
:100710003208343D8700403FBB00413FBC004108E8
:10072000AF00B001AF35B00DAF35B00D2F08023EB0
:10073000B1000030303DB2002430B3002330B400AB
:100740003108330786003208343D8700403FBD0042
:10075000413FBE004108AF00B001AF35B00DAF352D
:10076000B00D2F08063EB1000030303DB2002430FD
:10077000B3002330B4003108330786003208343D1B
:100780008700403FB900413FBA0040083C06031DC6
:10079000CB2B3F083B06031D392C4108031DD32BEF
:1007A000AD01AE0108004108AF00B001AF35B00D9A
:1007B000AF35B00D2F08FC3EB100FF30303DB20028
:1007C0002430B3002330B4003108330786003208E8
:1007D000343D8700403FBF00413FC0004108AF00AB
:1007E000B001AF35B00DAF35B00D2430B1002330BE
:1007F000B2002F08310786003008323D8700403FA5
:10080000BB00413FBC004108AF00B001AF35B00DA7
:10081000AF35B00D2F08FE3EB100FF30303DB200C5
:100820002430B3002330B400310833078600320887
:10083000343D8700403FBD00413FBE004108AF004E
:10084000B001AF35B00DAF35B00D2F08023EB1008D
:100850000030303DB2002430B3002330B400310802
:10086000330786003208343D8700403FB900413FDE
:10087000BA0040087902031D3F2C3F087802031894
:10088000442CAD01AE0108003E083A02031D4A2C7B
:100890003D0839020318502C3E08BA003D08B90043
:1008A0003D09AF003E09B000AF0A0319B00A39088C
:1008B0002F07A0003A08303DA100A201A3013F0983
:1008C000B1004009B200B10A0319B20A7808310731
:1008D000A4007908323DA500A601A701993196210F
:1008E000833120002308B8002208B7002108B60091
:1008F0002008B5003808A3003708A2003608A10078
:100900003508A0005F08A7005E08A6005D08A500E6
:100910005C08A40099319621833120002308DF0070
:100920002208DE002108DD002008DC003C0840022F
:10093000031D9C2C3B083F020318C92C3F09AF0044
:100940004009B000AF0A0319B00A3B082F07A00006
:100950003C08303DA100A201A3015F08A7005E088A
:10096000A6005D08A5005C08A4009E312F268331F7
:1009700020002308DF002208DE002108DD00200817
:10098000DC003D08DC073E08DD3D0030DE3DDF3D9C
:10099000CF2C3D08DC003E08DD00DE01DF01220037
:1009A00043082000A000220044082000A100890D77
:1009B000893B8909A200A3005F08A7005E08A60082
:1009C0005D08A5005C08A4009931962183312000C0
:1009D0002308DF002208DE002108DD002008DC00FB
:1009E0000030A3000030A2000330A100E830A000D6
:1009F0005F08A7005E08A6005D08A5005C08A400CB
:100A00009E312F26833120002308DF002208DE00DC
:100A10002108DD002008DC00EC3086002330870050
:100A2000403FAF00413FB0002F08E4003008E50030
:100A3000E601E70122004F082000AF00B001B1013C
:100A4000B2013208A3003108A2003008A1002F082B
:100A5000A0006708A7006608A6006508A50064084E
:100A6000A40099319621833120002308E700220851
:100A7000E6002108E5002008E4000030A300003073
:100A8000A2000030A1006430A0006708A70066083B
:100A9000A6006508A5006408A4009E312F268331B6
:100AA00020002308E7002208E6002108E5002008CE
:100AB000E40067085F02031D672D66085E02031DE0
:100AC000672D65085D02031D672D64085C0203182D
:100AD0006C2DAD01AE010800EC308600233087009C
:100AE000403FAF00413FB0002F08E4003008E50070
:100AF000E601E7016708A3006608A2006508A100F7
:100B00006408A0000030A7000030A6000030A50057
:100B10000B30A40099319621833120002308E7008F
:100B20002208E6002108E5002008E4000030A300C8
:100B30000030A2000030A1000A30A0006708A70022
:100B40006608A6006508A5006408A4009E312F264B
:100B5000833120002308E7002208E6002108E50091
:100B60002008E40067085F02031DC02D66085E02CE
:100B7000031DC02D65085D02031DC02D64085C02C5
:100B8000031CC62D2100BB01BB0AC82D2100BB01DF
:100B900020005D08AE005C08AD0008002000C70022
:100BA000D030C5002130C600D030F3002130F40031
:100BB0002430F5002330F600CC30B7003708F700BA
:100BC000A431C824853120004708B700B801B735E3
:100BD000B80DB735B80D3708450786003808463DCB
:100BE00087007808C03F7908C13F4708B700B801BF
:100BF000B735B80DB735B80D37084507B90038080F
:100C0000463DBA00390886003A0887004231220082
:100C10002E08C03F2F08C13F2E30F3000130F400F2
:100C200020004708B700B801B735B80DB735B80D83
:100C3000D030B9002130BA0037083907F50038083C
:100C40003A3DF6000430BB003B08F700A431C8244D
:100C50008531023020004702031C782EC801C80AE3
:100C600048084702031C782E4808B700B801B7357A
:100C7000B80DB735B80D3708FC3EB900FF30383D28
:100C8000BA0039084507BB003A08463DBC003B089E
:100C900086003C0887004231403FBD00413FBE0016
:100CA0004808BF00C001BF35C00DBF35C00D3F08AB
:100CB0004507C1004008463DC20041088600420881
:100CC00087004231403FC300413FC4003E08440218
:100CD000031D6C2E3D0843020318722E2200BE0134
:100CE0000030080001302000B7003708C807302E58
:100CF00002304702031CC02EC801470848020318EF
:100D0000C02E4808B700B801B735B80DB735B80DD3
:100D100037084507B9003808463DBA00390886004B
:100D20003A0887004231403FBB00413FBC004808C1
:100D3000BD00BE01BD35BE0DBD35BE0D3D08043E36
:100D4000BF0000303E3DC0003F084507C1004008DD
:100D5000463DC20041088600420887004231403FBC
:100D6000C300413FC4003C084402031DB92E3B08A8
:100D70004302031CB6010130B7003708C8077D2EB7
:100D80003608031D102F47080319102F4708B70016
:100D9000B801B735B80DB735B80D37084507B900F4
:100DA0003808463DBA00390886003A0887004231C3
:100DB0004508C83E84000030463D8500403F803FE6
:100DC000413F813F4708013EB7003708C800323035
:100DD00048020318102F4808B700B801B735B80DFE
:100DE000B735B80DD030B9002130BA00370839070F
:100DF000F30038083A3DF4002E30F5000130F600DB
:100E00000430BB003B08F700A431C8248531013011
:100E10002000B7003708C80732304802031CEB2E09
:100E2000D030AB002130AC00CA30AD000030AE0095
:100E30009931F6218531D0302000A0002130A10069
:100E40002030B7003708A200CC30B8003808A30023
:100E5000A531CE2585312430F3002330F400D03085
:100E6000F5002130F600CC302000B7003708F7003D
:100E7000A431C824853124302000AB002330AC00DD
:100E8000CC30AD000030AE009A31C2222000B70055
:100E90003708C8002200BE0101300800A331312309
:100EA0008731D830F3000030F40020302000AB0050
:100EB0002B08F5000830AC002C08F600A331AD2358
:100EC00087312100E00120002808F4002708F30002
:100ED000D830A631A626873120002A08EB00290841
:100EE000EA000A30F3000030F4006B08F6006A08EC
:100EF000F500A731772787317308303E2000AB001B
:100F00002B082100DF000A30F3000030F40020003D
:100F10006B08F6006A08F5009A318D228731740853
:100F20002000EB007308EA006A086B040319F82F2D
:100F30000A30F3000030F4006B08F6006A08F50090
:100F4000A731772787317308303E2000AB002B088C
:100F50002100DE000A30F3000030F40020006B08AE
:100F6000F6006A08F5009A318D2287317408200056
:100F7000EB007308EA006A086B040319F82F0A30C3
:100F8000F3000030F4006B08F6006A08F500A731A2
:100F9000772787317308303E2000AB002B082100F3
:100FA000DD000A30F3000030F40020006B08F6008A
:100FB0006A08F5009A318D22873174082000EB0011
:100FC0007308EA006A086B040319F82F0A30F3006B
:100FD0000030F4006B08F6006A08F500A7317727A7
:100FE00087317308303E2000AB002B082100DC0065
:100FF000D8302000A2000030A3009C31F824080063
:10100000EF30F30073082000EF0521002D082200C7
:10101000A50021002C082200A4002100AC01AD0194
:10102000220024082100A407220025082100A53D54
:1010300000302502323003192402031C080020006E
:10104000EF1408002000CF00CD01CE014F08C900E9
:101050004908D000500886000430870001082200AB
:101060004506031D080020005008023E860004309B
:1010700087000108C900CA014908CD004A08CE000E
:101080000830CD35CE0D890B41285008033E86002F
:10109000043087000108C900CA014908CD044A0884
:1010A000CE0400304E02333003194D02031C602879
:1010B0000230C9004908B6004F089B316B23080075
:1010C00020005008043E8600043087000108C90053
:1010D000CA014908CB004A08CC000830CB35CC0DFA
:1010E000890B6E285008053E8600043087000108F1
:1010F000C900CA014908CB044A08CC044C082200A4
:10110000AF0020004B082200AE00BE01BE0A200046
:101110004F0A8600043087006E300106031D9628B2
:101120004D084E0403199628B60199282000B601EF
:10113000B60A4D088531CE2588312000500886003A
:101140000430870001080319080022004508200028
:10115000C9004F08860004308700490881004F0805
:10116000AB000430AC000630AD000030AE00993169
:10117000F621883108302000C9004908F3004F08E3
:101180009A3127220800D0302000B9002130BA005F
:10119000D030F3002130F4003F30F5000130F6008C
:1011A0001630B6003608F700A431C8248831200074
:1011B000390886003A0887004C31600881074131C0
:1011C0006108813D41316208813D41316308813DC3
:1011D0003908113EB60000303A3DB70036088600A7
:1011E0003708870021003A088100033020006D0293
:1011F000031806293908073EB60000303A3DB7000B
:1012000036088600370887006D0811293908073E1F
:10121000B60000303A3DB700360886003708870030
:101220006C088100023022003E06031D3629BE01F3
:101230002B082000EB0022002A082000EA00D03012
:10124000B6002130B7006A083607F3006B08373D57
:10125000F4002E30F5000130F60022002C082000AA
:10126000B8003808F700A431C8248831D0302000F5
:10127000AB002130AC001430AD000030AE0099312D
:10128000F62188313F30F3000130F400D030F50012
:101290002130F60016302000B6003608F700A431E1
:1012A000C8248831D0302000A0002130A100A20144
:1012B0001630B6003608A300A531CE258831A331FB
:1012C000002300302000E3000030E2000030E100A5
:1012D0000030E00008002000CA01082A0430220083
:1012E000AA000030AB0002302000C90049082200EB
:1012F000BE000230AC000030AD002E30F3000130F3
:10130000F400E130F5000030F60002302000C900A2
:101310004908F700A431C82420006C08C900490816
:10132000ED0008002200BE01BE0AE1308600870100
:10133000403FAE00413FAF002000B6016E0885314E
:10134000CE2589312000C9004908CA004A0803197E
:101350000800EE016C08C9004908ED0008001030D3
:101360002200AA000030AB000130AC000030AD001C
:10137000210061082000C90049082200AE000230A7
:101380002000C90049082200BE0020006C08C900E6
:101390004908ED00080006302200AA000030AB002A
:1013A00002302000C90049082200BE000130AC0014
:1013B0000030AD00210061082000C900490822006A
:1013C000AE0020006C08C9004908ED0008000A3092
:1013D0002200AA000030AB0002302000C9004908FA
:1013E0002200BE000130AC000030AD0021006108D9
:1013F0002000C90049082200AE0020006C08C90086
:101400004908ED0008006C08C9004908ED00080013
:101410006D08403A03196E29103A03199229203AAF
:101420000319AF29D03A0319CB29513A0319E729F7
:10143000032A08002000C100BC01BD01C001410811
:10144000B8003808BE003E08860004308700010856
:1014500022004506031D080020003E08023E8600CB
:10146000043087000108B800B9013808BC00390809
:10147000BD000830BC35BD0D890B3A2A3E08033E3D
:101480008600043087000108B800B9013808BC04A0
:101490003908BD043D08BB003C08BA003E08860080
:1014A000043087000430453FC0000310C00D2130D8
:1014B0004002031C5F2A2030B8003808C000BF017A
:1014C00040083F020318922A3B08AE003A08AD00DC
:1014D0004230B8003808AF008D31FC258A31200039
:1014E0004308B8003F08033E4107B90039088600A9
:1014F00004308700380881004208B8003F08043EE5
:101500004107B90039088600043087003808810097
:101510003F08023EB8003808BF000130BA0700306B
:10152000BB3D602A220045082000B8004108860023
:1015300004308700380881000330B800410A860073
:1015400004308700380881004008B8004108023E96
:10155000860004308700380881000330B80038085E
:10156000C0074108AB000430AC004008B800B90126
:101570003808AD003908AE009931F6218A310230C1
:101580002000B8003808C0074008B8003808F30049
:1015900041089A3127220800A33131238A31D830FB
:1015A000F3000030F40020302000AB002B08F500E1
:1015B0000830AC002C08F600A331AD238A3121009D
:1015C000E00120002808F4002708F300D830A631F5
:1015D000A6268A3130302000AB002B082100DD0028
:1015E00030302000AB002B082100DE0020002A084C
:1015F000EB002908EA000A30F3000030F4006B0821
:10160000F6006A08F500A73177278A317308303E63
:101610002000AB002B082100DF000A30F30000306F
:10162000F40020006B08F6006A08F5009A318D225C
:101630008A3174082000EB007308EA006A086B0422
:101640000319822B0A30F3000030F4006B08F60017
:101650006A08F500A73177278A317308303E2000E9
:10166000AB002B082100DE000A30F3000030F4004C
:1016700020006B08F6006A08F5009A318D228A3145
:1016800074082000EB007308EA006A086B04031971
:10169000822B0A30F3000030F4006B08F6006A0871
:1016A000F500A73177278A317308303E2000AB0060
:1016B0002B082100DD000A30F3000030F400200088
:1016C0006B08F6006A08F5009A318D228A31740899
:1016D0002000EB007308EA006A086B040319822BF0
:1016E0000A30F3000030F4006B08F6006A08F500D9
:1016F000A73177278A317308303E2000AB002B08D2
:101700002100DC00D8302000A2000030A3009C3172
:10171000F82408002000D200CD01CD0ACE01CF016F
:101720007A08C8004808CC004408803AC800460837
:10173000803A4802031D9E2B450843020318080007
:101740000030F300F400A33110238B3120004D034F
:10175000031DFB2BCD0147080319D22B520886002D
:1017600087010130810741310318810A5208860040
:101770008701403FC800413FC9004608803ACA007F
:101780004908803A4A02031DC72B4808450203183E
:10179000F82B20005208860087014308C03F440808
:1017A000C13FF82B520886008701403FC800413FE7
:1017B000C9004408803ACA004908803A4A02031D19
:1017C000E32B48084302031CEE2B2000520886003E
:1017D00087014508C03F4608C13FF82B200052084A
:1017E00086008701FF3081074131FF30813D7F3125
:1017F0009031EE208B31A6315C268B3120004C08D5
:101800007A06031D0800A33170238B317408200071
:10181000D1007308D00003305102E930031950029F
:101820000318232C4E09C8004F09C900C80A031920
:10183000C90A50084807CA005108493DCB0000308A
:101840004B02C8304B2C07305102D13003195002E3
:1018500003183B2C4E09C8004F09C900C80A0319D8
:10186000C90A50084807CA005108493DCB0000305A
:101870004B0264304B2C4E09C8004F09C900C80AFE
:101880000319C90A50084807CA005108493DCB004E
:1018900000304B020A3003194A02031CA62B5108E0
:1018A000CF005008CE00CD01CD0AA62B2000C200EB
:1018B000BD01BE01C001C1014208B9003908BF0025
:1018C0003F08860004308700010822004506031DFA
:1018D000080020003F08023E86000430870001080F
:1018E000B900BA013908BD003A08BE000830BD355C
:1018F000BE0D890B772C3F08033E8600043087001D
:101900000108B900BA013908BD043A08BE043F080D
:10191000043E8600043087000108B900BA01390886
:10192000C0003A08C1000830C035C10D890B942CA5
:101930003F08053E8600043087000108B900BA015F
:101940003908C0003A08C1003D084007B9003E0808
:10195000413DBA0000303A0234300319390203180D
:10196000B82C00304102113003194002031CC02C76
:101970000230B9003908B60042089B316B230800D9
:1019800020004208033EF4000430F5003D08B90091
:101990000130B935FF3E031DC92C3935203EBA0050
:1019A0003A08F6004008BB000130BB35FF3E031D7E
:1019B000D52C3B35BC003C08F700A5318F258C3178
:1019C000220045082000B900420886000430870044
:1019D000390881000330B900420A860004308700CC
:1019E000390881004008B9000130B935FF3E031DB8
:1019F000F52C3935BA004208023E860004308700D3
:101A00003A0881004208023E86000430870001083F
:101A1000033EC000003003180130C1004208AB0093
:101A20000430AC004108AE004008AD009931F62109
:101A30008C3102302000C0070030C13D4008B900A1
:101A40003908F30042089A3127220800D0302000DC
:101A5000BD002130BE00D030F4002130F500203030
:101A6000B6003608F600CC30B7003708F700A531CD
:101A70008F258D31D0302000AB002130AC00CC3030
:101A8000AD000030AE009A31C2228D312000B60088
:101A90003608BC003C08031DDC2DBF0132303F027C
:101AA00003189F2D3F08013EF3000030031801305A
:101AB000F400D030F5000730F600A53171258D31E6
:101AC00020003F08B600B701B635B70DB635B70DE3
:101AD00036083D07860037083E3D87007308C03F43
:101AE0007408C13F3F08B600B7013608F300370855
:101AF000F4006430F5000030F600A53171258D3119
:101B000020003F08B800B901B835B90DB835B90D96
:101B100038083D07BA0039083E3DBB003A08860048
:101B20003B08870042317308C03F7408C13F013051
:101B3000B6003608BF0732303F02031C522D3F0863
:101B4000B600B701B635B70DB635B70D3608FC3E51
:101B5000B800FF30373DB90038083D07BA003908F2
:101B60003E3DBB003A0886003B08870042313D08F5
:101B7000C83E840000303E3D8500403F803F413FED
:101B8000813FD030AB002130AC00CA30AD00003016
:101B9000AE009931F6218D31D0302000A0002130E7
:101BA000A1002030B6003608A200CC30B7003708BC
:101BB000A300A531CE258D312430F3002330F4006D
:101BC000D030F5002130F600CC302000B6003608C9
:101BD000F700A431C8248D3124302000AB0023301D
:101BE000AC00CC30AD000030AE009A31C2222000F3
:101BF000B6003608BC0008002000B401B501FF3073
:101C00002D05B60000302E05B700E12E2F08860006
:101C100087015530C03F5530C13F080021003A08C8
:101C20000C392000B000B1012F0886008701300870
:101C3000C03F3108C13F08002F08860087010030EF
:101C4000C03FC13F08006808E4006908E500E601FC
:101C5000E7016708A3006608A2006508A100640800
:101C6000A0000030A7000030A6000030A50006301C
:101C7000A400993196218D3120002308E700220825
:101C8000E6002108E5002008E4000030A300003051
:101C9000A2000030A1000A30A0006708A700660873
:101CA000A6006508A5006408A4009E312F26200028
:101CB0002308E7002208E6002108E5002008E400E8
:101CC0002F08860087016408C03F6508C13F0800EF
:101CD0002F08860087015530C03F5530C13F0800AE
:101CE0002F08860087015530C03F5530C13F08009E
:101CF0000C303F3E860001308700403FE400413F0A
:101D0000E500423FE600433FE7006008E407610862
:101D1000E53D6208E63D6308E73D6408B0006508FC
:101D2000B1006608B2006708B3001030B336B20CD9
:101D3000B10CB00C890B962E2F0886008701300855
:101D4000C03F3108C13F08000C303F3E86000130E3
:101D50008700403FE400413FE500423FE600433F4B
:101D6000E7006008E4076108E53D6208E63D6308B6
:101D7000E73D2F08860087016408C03F6508C13F22
:101D800008002F08860087015530C03F5530C13FFD
:101D900008002F08860087015530C03F5530C13FED
:101DA00008002F08860087015530C03F5530C13FDD
:101DB00008002F08860087015530C03F5530C13FCD
:101DC00008000F303605B00000303705B10031088B
:101DD000003A0319EC2EF92E3008FF3E031C0800D0
:101DE00084000C30040203180800A0310435003EC2
:101DF0008200080000302000C1000030C000003028
:101E0000BF000030BE00BC01BD01BB0108303B0279
:101E10000318FB2F0030C1000030C0000030BF00AD
:101E20000030BE00BC01BD010030B9008030BA00F6
:101E3000B701B801C201143042020318732F4235B2
:101E4000A03E860001308700403FAF00413FB00018
:101E500030083D02031D2E2F2F083C0203183D2F92
:101E60004235A03E860001308700403FBC00413F24
:101E7000BD004208AF002F08B7004235A03E8600E3
:101E800001308700403FAF00413FB0003A083002C8
:101E9000031D4C2F39082F0203185B2F4235A03E3B
:101EA000860001308700403FB900413FBA00420838
:101EB000AF002F08B8004235A03E860001308700F1
:101EC000403FAF00413FB0002F08BE073008BF3D84
:101ED0000030C03DC13D0130AF002F08C2071430B3
:101EE0004202031C1F2F3E08AF003F08B00040080D
:101EF000B1004108B2003C08B3003D08B400B50190
:101F0000B601B309B409B509B609B30A0319B40A8D
:101F10000319B50A0319B60A3308AF073408B03DF0
:101F20003508B13D3608B23D3208C1003108C00065
:101F30003008BF002F08BE003E08AF003F08B000C9
:101F40004008B1004108B2003908B3003A08B400B3
:101F5000B501B601B309B409B509B609B30A031945
:101F6000B40A0319B50A0319B60A3308AF073408CF
:101F7000B03D3508B13D3608B23D3208C1003108E8
:101F8000C0003008BF002F08BE000030A3000030A2
:101F9000A2000030A1001230A0004108A7004008B4
:101FA000A6003F08A5003E08A4009E312F268E31D2
:101FB00020002308C1002208C0002108BF0020081B
:101FC000BE003735A03E8600013087003E08C03F86
:101FD0003F08C13F3835A03E8600013087003E08EB
:101FE000C03F3F08C13F0130AF002F08BB0708309A
:101FF0003B02031C0A2F3F08AE003E08AD0008005C
:10200000A331F023903121008D140D158D15A431CD
:10201000AF249031A33155239031A231E422833093
:102020002F0091008B170B17080021003B080319A4
:102030001C28A3311A230800220048082000BA00F7
:102040003A08BC000C303F3E860001308700403F1C
:10205000E400413FE500423FE600433FE700043033
:102060003C02031C37280330BA003A08BC00600861
:10207000E4076108E53D6208E63D6308E73DD830C6
:10208000F3000030F4003030BA003A08F5000930AF
:10209000BB003B08F600A331AD2390312100E001E5
:1020A00020006708B4006608B3006508B200640841
:1020B000B1000830BA003A08B500DF3095319125FB
:1020C000903120003C08013EFF3A013E083EBA0034
:1020D0003A08F300D830A63181269031A33131235C
:1020E00090312000B201B20A3C089F319A2790310A
:1020F000D8302000A2000030A3009C31F824080052
:10210000F5012000A71F9128A409A509A609A70980
:10211000A40A0319A50A0319A60A0319A70AF501B7
:10212000F50AA31F9E28A009A109A209A309A00AD4
:102130000319A10A0319A20A0319A30A23082204F6
:10214000210420040319D728F401F40AA31BB4289E
:102150000130A035A10DA20DA30D890BA9280130D6
:10216000F3007308F407A62823082702031DC228DA
:1021700022082602031DC22821082502031DC228A9
:1021800020082402031CCC282008A4022108A53B17
:102190002208A63B2308A73B0130A336A20CA10CC2
:1021A000A00C890BCD280130F402031DB42875085A
:1021B0000319E528A409A509A609A709A40A031972
:1021C000A50A0319A60A0319A70A2708A3002608C7
:1021D000A2002508A1002408A0000800F730200074
:1021E000C1004108EF0542299431FB2427008C14DB
:1021F00022008C1127000C100800903115202200BD
:102200008C1527000C108C1008002100610820009C
:10221000C100C20141082100A6002000420821009F
:10222000A70040302000A7008330A8002100270825
:102230002000AA00210026082000A9008A31CC2213
:102240000800A431142408009C31B2240800923103
:102250005A229031031027008C1C0314031C3329CD
:1022600027008C14080027008C10080092315A2295
:102270000800A331DF230800A331CE230800A431D6
:102280007F24080020006D08003A0319F428013A61
:102290000319FD28113A03190529203A03192129A8
:1022A000703A03192429103A03193629203A0319E0
:1022B0003929D03A03193C29403A03192729113A00
:1022C00003193F29632908002000BF00BC01BD019C
:1022D000BB013F08B9003908BE003E088600043043
:1022E0008700010822004506031D080020003E0863
:1022F000023E8600043087000108B900BA0139089F
:10230000BC003A08BD000830BC35BD0D890B8429DE
:102310003E08033E8600043087000108B900BA0178
:102320003908BC043A08BD04A8293F08053E8600C8
:10233000043087000119B92921003A11B929023066
:102340002000B9003908B6003F089B316B23080014
:10235000FF3020003C05B90000303D05BA003A08C6
:10236000003A0319B4299F293908023A031995291B
:102370009F2920003E0886000430870001080319C9
:102380000800220045082000B9003F0886000430FC
:102390008700390881003F08AB000430AC000630EC
:1023A000AD000030AE009931F621913108302000A7
:1023B000B9003908F3003F089A31272208002000AD
:1023C000AF002E3028020318080004302F02031833
:1023D00008000C30AA002A08A4002808AB00AC01B1
:1023E0002B08F5002C08F6001830F3000030F4003C
:1023F0009D31DD2591317308A431022491312000F3
:10240000AD002D08AE000330AA002A08A4002F0852
:10241000A431022491312000AB002B08AE07183004
:10242000AA002A08F3002808A531AE259131200022
:10243000AB002B08A8000830F3000030F400280897
:10244000AA00AB012A08F5002B08F6009D31DD2516
:10245000913173082000AC002C08AE07280807391A
:10246000AA002A08B1002E08C03EAA002A08B0001F
:10247000290803194A2A0130AA00310A402AAA353C
:10248000890B3F2A2A08AB003008860087012B08F9
:10249000810408000130AA00310A4F2AAA35890BAD
:1024A0004E2A2A08FF3AAB003008860087012B0825
:1024B0008105080020006E08BA003A08BD00D83037
:1024C000F3000030F4003030BA003A08F50009306B
:1024D000BB003B08F600A331AD23923164302000ED
:1024E000BA003A08F3003D08A531AE25923120002C
:1024F000BB003B08BD000A30F3000030F4003D088B
:10250000BA00BB013A08F5003B08F6009D31DD2515
:1025100092317308303E2000BC003C082100D800F6
:102520000A30F3000030F40020003D08BA00BB017F
:102530003A08F5003B08F6009C316C249231730890
:10254000303E2000BC003C082100D900E13086006C
:102550008701403F2000BA00413FBB003A08B1006C
:102560003B08B200890D893B8909B300B4000430EF
:10257000BC003C08B500DF30953191259231043024
:102580002000BA003A08F300DA30A63181269231F1
:10259000A331312392312000B201B20A01309F31C0
:1025A0009A279231D8302000A2000030A3009C313D
:1025B000F82408002000A901A31FEB2AA009A10903
:1025C000A209A309A00A0319A10A0319A20A03195F
:1025D000A30AA901A90AA71FFC2AA409A509A609FB
:1025E000A709A40A0319A50A0319A60A0319A70A29
:1025F0000130F3007308A9060030AD000030AC00D4
:102600000030AB000030AA0023082204210420047B
:102610000319452BA801A80AA31B1A2B0130A035CA
:10262000A10DA20DA30D890B0F2B0130F300730830
:10263000A8070C2B0130AA35AB0DAC0DAD0D890BE5
:102640001B2B23082702031D2F2B22082602031D04
:102650002F2B21082502031D2F2B20082402031CE9
:102660003A2B2008A4022108A53B2208A63B2308F8
:10267000A73B2A140130A336A20CA10CA00C890B95
:102680003B2B0130A802031D1A2B29080319532BD9
:10269000AA09AB09AC09AD09AA0A0319AB0A0319C7
:1026A000AC0A0319AD0A2D08A3002C08A2002B08C0
:1026B000A1002A08A000080020006808DC006908C2
:1026C000DD00DE01DF0121003F082000AD00AE018A
:1026D000AF01B0013008A3002F08A2002E08A1000E
:1026E0002D08A0005F08A7005E08A6005D08A500F1
:1026F0005C08A40099319621933120002308DF0063
:102700002208DE002108DD002008DC0058085C07F4
:10271000AD0059085D3DAE005A085E3DAF005B0854
:102720005F3DB0003008DB002F08DA002E08D9002A
:102730002D08D8000030A3000030A200EA30A1002C
:102740006030A0005B08A7005A08A6005908A50041
:102750005808A4009E312F269331200020086007DE
:10276000AD002108613DAE002208623DAF002308A4
:10277000633DB0003008E3002F08E2002E08E100BE
:102780002D08E0000030A3000030A200EA30A100D4
:102790006030A0005B08A7005A08A6005908A500F1
:1027A0005808A4009C31292420002308DB002208BB
:1027B000DA002108D9002008D8002100BF01080054
:1027C0002000D30103306D020318602C2100E101C9
:1027D000E20120006D08C9004908EC002100A601B3
:1027E000A70110302000C9004908ED000800E130C1
:1027F00086008701403FC900413FCA006E08CB00F8
:10280000CC01CB35CC0DCB35CC0D4B08023ECD00E9
:1028100000304C3DCE002430CF002330D0004D0896
:102820004F0786004E08503D8700403FD100413F92
:10283000D2004A085206031D1F2C490851060319ED
:10284000392C2200BE01BE0AE13086008701403FDC
:10285000AE00413FAF002000B601B60A6E088531D8
:10286000CE2593312000C9004908D300530803192D
:1028700008000130C9004908EE0732306E02031823
:10288000EE016E08C900CA01C935CA0DC935CA0DA5
:102890004908023ECB0000304A3DCC002430CD0038
:1028A0002330CE004B084D0786004C084E3D870074
:1028B000E13084008501403F803F413F813F080077
:1028C0006D08503A0319F72B652C08002000D4003E
:1028D00003306D020318E22C5408A531EF250800DF
:1028E00000302000C300C400C830C5000030C6005E
:1028F0005408D3005308C700E1308B318A23080005
:1029000001302000C3000030C4000F30C500273064
:10291000C6005408D3005308C700E1308B318A2326
:10292000080000302000C300C4000F30C50027306D
:10293000C6005408D3005308C700E1308B318A2306
:10294000080000302000C300C4000F30C50027304D
:10295000C6005408D3005308C700E1308B318A23E6
:10296000080001302000C3000030C400FD30C50065
:102970000030C6005408D3005308C700E1308B3143
:102980008A23080000302000C300C4001430C500B2
:102990000030C6005408D3005308C700E1308B3123
:1029A0008A23080000302000C300C4000130C500A5
:1029B0000030C6005408D3005308C700E1308B3103
:1029C0008A23080020006D08103A0319702C503A31
:1029D0000319802C103A0319912C303A0319A12CB9
:1029E000103A0319C22CD03A0319B12C513A0319E9
:1029F000D22CFA2C080020006808BD006908BE002F
:102A0000BF01C00121003B080319092DA3311A237E
:102A10000800D830F3000030F40030302000BA0055
:102A20003A08F5000930BB003B08F600A331AD239E
:102A300094312100E00122004908031D252D4A0898
:102A40002000BA003A08BC00622D02302000BA0013
:102A50003A08BC004008A3003F08A2003E08A100BD
:102A60003D08A0000030A7000030A6000030A500FF
:102A70003C30A40099319621943120002308C000F5
:102A80002208BF002108BE002008BD000030A300BE
:102A90000030A2000030A1006430A0004008A70070
:102AA0003F08A6003E08A5003D08A4009E312F2641
:102AB000943120002308C0002208BF002108BE0076
:102AC0002008BD004008B4003F08B3003E08B20033
:102AD0003D08B1000830BA003A08B500DF30953142
:102AE0009125943120003C08013EFF3A013E083E0A
:102AF000BA003A08F300D830A63181269431A331C8
:102B0000312394312000B201B20A3C089F319A2748
:102B10009431D8302000A2000030A3009C31F8246A
:102B20000800F70020003508031908000030AB004A
:102B30000030AA000030A9000A30A8003508B6000D
:102B40003608AC009B31AA23953120002B08E70002
:102B50002A08E6002908E5002808E400FF30B6004E
:102B6000FF30B700FF30B800FF30B9006408B60787
:102B70006508B73D6608B83D6708B93D39083402B5
:102B8000031DCC2D38083302031DCC2D370832022B
:102B9000031DCC2D36083102031CDA2DFF306407EB
:102BA000B100FF30653DB200FF30663DB300FF303D
:102BB000673DB4000130B502350A03190800003042
:102BC000A3000030A2000030A1000A30A0003408A9
:102BD000A7003308A6003208A5003108A4009031F0
:102BE0008020953120002308E7002208E600210814
:102BF000E5002008E4006508850064088400FD30D5
:102C000084078230853D0008B6007708860087017A
:102C1000360881000130F7020030A3000030A20026
:102C20000030A1000A30A0003408A7003308A60035
:102C30003208A5003108A4009231DA229531200033
:102C40002308B4002208B3002108B2002008B10014
:102C5000DA2D2430860023308700403F2000A0007A
:102C6000413FA10021087402031D382E2008730281
:102C700003183C2E00300800F501313075020318AE
:102C8000C12E7508A000A101A035A10DA035A10D90
:102C90002430A2002330A300200822078600210848
:102CA000233D8700403FA400413FA5002508740252
:102CB000031D5C2E24087302031C812E7508A000DE
:102CC000A101A035A10DA035A10D2008043EA20050
:102CD0000030213DA3002430A4002330A5002208A9
:102CE000240786002308253D8700403FA600413F7A
:102CF000A70027087402031D7F2E26087302031CF9
:102D0000C12E7508A000A101A035A10DA035A10D0F
:102D10002008043EA2000030213DA3002430A4007E
:102D20002330A5002208240786002308253D8700BC
:102D3000403FA600413FA7007508A800A901A8359B
:102D4000A90DA835A90D2430AA002330AB0028080E
:102D50002A07860029082B3D8700403FAC00413FF1
:102D6000AD0027082D02031DB72E26082C020318DC
:102D7000C12E0130A0002008F50731307502031C78
:102D8000412E750808009031002096319B31322386
:102D90009631210091129D31402596318D312625A5
:102DA0009631A331072396312100BF017F302000E7
:102DB000D7005708EF05220046082000D700570823
:102DC000ED006D08D7005708EC00A231EE229631D5
:102DD000A3318D23963120006F1EF12E8831002003
:102DE00096312000EF1EF72E9931C6219631200032
:102DF000EF1CFD2E9F313427963120006F1F0F2FBF
:102E000022003E08031D0F2F02302000D700570874
:102E10002200BE00BF302000D7005708EF05200079
:102E2000EF1D152F9031EE20963120006F1D352FAC
:102E30002100911229082000D2002100280820003A
:102E4000D100A0309E31DA269631FB302000D70029
:102E50005708EF053730F3000730F400A331622341
:102E60009631A33107239631382F9E318226963131
:102E70002200460820006C0603194A2F22003E0853
:102E8000031D4A2F02302000D70057082200BE0041
:102E9000AC01AD0122003E080319532FA431E324F5
:102EA00096312200BE0121006D08031DE52E503031
:102EB00020006D060319E52E6C08D7005708ED00B9
:102EC000E52E103020006D06031D0800E22FA7310B
:102ED0001D2730302000A4002408ED000800E13058
:102EE000F3000030F4004330F5000130F60002300A
:102EF0002000A4002408F700A431C824403020009A
:102F0000A4002408ED0008002000EE016E08A400D3
:102F1000A501A435A50DA435A50D2408023EA600E3
:102F20000030253DA7002430A8002330A900260842
:102F3000280786002708293D8700E13084008501A5
:102F4000403F803F413F813F5030A4002408ED00C6
:102F5000080022004F082000A40024082100E100FE
:102F600070302000A4002408ED000800220045086D
:102F70002000A40024082100E100A0302000A400CB
:102F80002408ED0008002000EE01E13086008701F2
:102F90006808C03F6908C13FE030A4002408ED0084
:102FA0000800220049082000A400A501E1308600A5
:102FB00087012408C03F2508C13FF130A400240840
:102FC000ED00080021002708003A0319E82FFF2F21
:102FD00026083C3A0319C32F5B3A0319672F0A3AB4
:102FE00003196F2FE83A0319A92F0D3A0319D12FAE
:102FF000203A0319842F1A3A0319B62FFF2F08001D
:103000002F00921312131208F039073892001F3064
:1030100098009901F0309A0087309B009C013C3069
:103020009D000030A531542598312F009401FF30C8
:103030009500803093000030A531542583302F0057
:1030400091000800F400F730F30073082100C00578
:10305000F41AC015F730F3007308C305741BC315C9
:10306000F730F3007308C605741AC615F730F3007D
:103070007308C905F419C915EF30F3007308C005CA
:1030800074184016EF30F3007308C305F4184316A4
:10309000EF30F3007308C605741D080046160800DB
:1030A000F400EF30F30073082100C205F41A421651
:1030B000EF30F3007308C505741B4516EF30F300BD
:1030C0007308C805741A4816EF30F3007308CB056F
:1030D000F4194B16DF30F3007308C2057418C216DA
:1030E000DF30F3007308C505F418C516DF30F300B0
:1030F0007308C805741D0800C8160800F400F730EE
:10310000F30073082100CE05F41ACE15F730F30052
:103110007308D105741BD115F730F3007308D4057B
:10312000741AD415F730F3007308D705F419D715BE
:10313000EF30F3007308CE0574184E16EF30F3002D
:103140007308D105F4185116EF30F3007308D40555
:10315000741D080054160800F400DF30F3007308F3
:103160002100CE05F41ACE16DF30F3007308D10526
:10317000741BD116DF30F3007308D405741AD4160B
:10318000DF30F3007308D705F419D716FB30F300CE
:103190007308CC0574184C15FB30F3007308CF0589
:1031A000F4184F15FB30F3007308D205741D0800A6
:1031B00052150800F400FD30F30073082100CC051F
:1031C000F41ACC14FD30F3007308CF05741BCF1430
:1031D000FD30F3007308D205741AD214FD30F300E9
:1031E0007308D505F419D514FE30F3007308CC0527
:1031F00074184C14FE30F3007308CF05F4184F1404
:10320000FE30F3007308D205741D08005214080044
:10321000F4007F30F30073082100C205F41AC217CE
:103220007F30F3007308C505741BC5177F30F300AA
:103230007308C805741AC8177F30F3007308CB05EC
:10324000F419CB17BF30F3007308C2057418421786
:10325000BF30F3007308C505F4184517BF30F300FD
:103260007308C805741D0800481708002000A00056
:1032700021008F1222000F132000A101083021022B
:1032800003186329A01F472922008F16492922000D
:103290008F120F1700000000000000000000000067
:1032A00022000F13000000000000000000000000DA
:1032B00003102000A00D0130F7007708A1070830A7
:1032C0002102031C4229A631F42608002000A40094
:1032D0002408A3002308A50021000F13A4316824AB
:1032E0009931D030993136219931023020002502B0
:1032F000031C7F290230A3002308A5000310A50D9D
:103300000310A50D22080339A3002308A5042508EE
:103310008038993136219931A43126240B138B132F
:103320002100A401A5018B170B1708000030F6003F
:103330000030F5000030F4000030F3002000201CC5
:10334000A9292408F3072508F43D2608F53D270898
:10335000F63D0130A435A50DA60DA70D890BAA29B0
:103360000130A336A20CA10CA00C890BB1292308B3
:10337000220421042004031D9E297608A300750859
:10338000A2007408A1007308A000080021006D08C5
:103390000319CC290130ED02DF30F300730820005F
:1033A000EF05EF1521003E08F3007308B107BE01D9
:1033B0003C303102031CE2293C30B1020130F30001
:1033C0007308B0073C303002031CEC293C30B002DB
:1033D0000130F3007308AF072F080319080020001D
:1033E0006F172100B101B001AF01080020002C08C7
:1033F000F4002B08F3002E08F6002D08F5009D318F
:103400008D2574082000B5007308B4002D082B0723
:10341000AF002E082C3DB0002F0886003008870032
:10342000340881003508AF002D08013EB00000309F
:103430002E3DB10030082B07B20031082C3DB300FF
:1034400032088600330887002F0881000800F50045
:1034500022000C162100BC0173083C0203184A2A02
:103460002000111E302A00000000000021003C084E
:103470007507F400740886000430870001082300F3
:103480009A000000000000000130F40074082100E0
:10349000BC072C2A2000111E4A2A23009A01000092
:1034A000000000002000111E522A22000C12080009
:1034B0002200900102308F008C0127008C01220035
:1034C0008D0127008D0122008E01DF302100900048
:1034D000FF3026008C00FF3021008C003F3026009A
:1034E0008D00FF3021008D00FF308E00FD308F00F9
:1034F000230090011C3028008D00FF308C002F30FD
:1035000023008C00FF3024008D00203029008D0026
:103510002100951322009D0108002000A101A201B5
:10352000730874040319BD2AA001A00AF41BA22A7F
:103530000130F335F40D890B992A0130F700770833
:10354000A007962A0130A135A20D890BA32A740881
:103550007602031DAD2A73087502031CB42A730892
:10356000F5027408F63B21140130F436F30C890B94
:10357000B52A0130A002031DA22A2208F400210866
:10358000F30008003430F3000030F40020002D0870
:103590002B07AF002E082C3DB0002F08FE3EF50093
:1035A000FF30303DF6000230B1003108F700A431A1
:1035B000C8249A3120002C08F4002B08F3002D08B1
:1035C000FE3EF500FF302E3DF6009D318D259A31EF
:1035D00074082000B3007308B20033083506031DD9
:1035E000F32A320834060319F72A003008000130A4
:1035F00008002000A600A701A801A43168249A3180
:10360000D130993136219A310030A3319D239A313E
:103610002000A400A5012408A7042508A804083058
:10362000A735A80D890B102B0030A3319D239A31AB
:103630002000A400A5012408A7042508A80401303F
:10364000A3319D239A312000A4002608860087011B
:1036500024088100A431262420002808A30027087C
:10366000A200080009302000AD002D08AF00003096
:10367000A53154259B312000EF1E3B2BDF30AD00E0
:103680002D08EF051730A2008330A3009C31F824E9
:103690009B312000EF1E492BDF30AD002D08EF05D8
:1036A0002F08031908003930A7008330A8002F081D
:1036B000AD00AE012D08A9002E08AA0087314E27C3
:1036C0009B312000EF1E612BDF30AD002D08EF0590
:1036D0000130AF02502B2000B7003708F700770801
:1036E000B800380886000430870001080319080074
:1036F00022004508F70020003808860004308700C3
:1037000077088100360803198D2B8030F700380ABE
:10371000860004308700770881073608F7003808EC
:10372000023E860004308700770881003708AB002E
:103730000430AC000330AD000030AE009931F6210A
:103740009B310530F7007708F300200037089A31E5
:103750002722080000302000B0000030AF00003009
:10376000AE000130AD002C08031DDB2B0030AB0098
:103770000030AA000030A9000130A80008002B0882
:10378000A3002A08A2002908A1002808A0003008E8
:10379000A7002F08A6002E08A5002D08A400993127
:1037A00096219B3120002308B0002208AF00210899
:1037B000AE002008AD000130AC022C0A031DBF2B67
:1037C0003008AB002F08AA002E08A9002D08A80079
:1037D00008001E2C2000EE012200BE01BE0AAE0130
:1037E000AF012000B601B60A6E088531CE259B31A7
:1037F000E130860087010030C03FC13F272C0C30EC
:103800002200AA000030AB0002302000C9004908A5
:103810002200BE000430AC000030AD002E30F300BA
:103820000130F400F50104302000C9004908F60019
:10383000A331AD239B31272C0030080020006D08F8
:10384000303A0319FF2BD03A0319EA2B1C2C003015
:103850000800200023082204210420040319632CFB
:10386000F401F40AA31B402C0130A035A10DA20DD8
:10387000A30D890B352C0130F3007308F407322CAB
:1038800023082702031D4E2C22082602031D4E2C5E
:1038900021082502031D4E2C20082402031C582C4D
:1038A0002008A4022108A53B2208A63B2308A73B29
:1038B0000130A336A20CA10CA00C890B592C0130AD
:1038C000F402031D402C2708A3002608A2002508A7
:1038D000A1002408A00008002000A101F61F772CF9
:1038E000F509F609F50A0319F60AA101A10AF41F60
:1038F0007E2CF309F409F30A0319F40A730874041B
:103900000319A52CA001A00AF41B902C0130F3355B
:10391000F40D890B872C0130F7007708A007842C61
:1039200074087602031D962C73087502031C9C2CE8
:103930007308F5027408F63B0130F436F30C890B7A
:103940009D2C0130A002031D902C21080319AD2CE1
:10395000F509F609F50A0319F60A7608F400750860
:10396000F3000800E13086008701403F2000BC00E2
:10397000413FBD00D830F3000030F4002030BA00E1
:103980003A08F5000930BB003B08F600A331AD232F
:103990009C3120003C08B1003D08B200B301B401E5
:1039A0000430BA003A08B500DF30953191259C31DA
:1039B0006C302000BA003A082100D800A33131232E
:1039C0009C312000B201B20A03309F319A279C310A
:1039D000D8302000A2000030A3009C31F8249C3194
:1039E000D8302000A2000030A3009C31F824080049
:1039F0002000A501A60122088400230885001200EA
:103A000003193D2DA601283026020318202D260873
:103A1000923E840082300318013E85000008A40015
:103A20002208840023088500000824060319202D9D
:103A30000130A4002408A60728302602031C072D05
:103A4000283026020318332D2508A4002408F50089
:103A50002608BB3E840082300318013E8500000822
:103A6000A7314A279C3101302000A2070030A33D36
:103A70000130A4002408A507FB2CA331BD230800B6
:103A80002000B701D030F4002130F500F6011630E7
:103A9000B6003608F700A5318F259D31D0302000C3
:103AA000AB002130AC001630AD000030AE009A31D2
:103AB000C2229D312000B6003608B7003708031D2A
:103AC0007A2D3F30AB000130AC001430AD00003037
:103AD000AE009931F6219D313F302000A000013029
:103AE000A100A2011630B6003608A300A531CE25EC
:103AF0009D318A2D3F30F3000130F400D030F500C5
:103B00002130F60016302000B6003608F700A43148
:103B1000C8249D31A3310023080076082000A600A8
:103B20007508A500FF30A0002008A900FF30A00004
:103B30002008AA000130A5020030A63B250A03197F
:103B4000260A0319CD2D7308860074088700010822
:103B50002A06A000A1012008A7002108A800013022
:103B6000F3070030F43D28088500270884009230D0
:103B700084078130853D00082906A0002008AA009E
:103B80002808850027088400923084078030853D0E
:103B90000008A0002008A9009A2D2A08A000A10171
:103BA0002908A200A3012208A300A20120082204E0
:103BB000F30021082304F40008002000A101F41FF1
:103BC000E82DF309F409F30A0319F40AA101A10A83
:103BD000F61FF32DF509F609F50A0319F60A013067
:103BE000F7007708A106A201A30173087404031962
:103BF000222EA001A00AF41B072E0130F335F40D8C
:103C0000890BFE2D0130F7007708A007FB2D01304E
:103C1000A235A30D890B082E74087602031D122EFF
:103C200073087502031C192E7308F5027408F63B1D
:103C300022140130F436F30C890B1A2E0130A00245
:103C4000031D072E210803192A2EA209A309A20A7F
:103C50000319A30A2308F4002208F3000800003027
:103C60002000AB000030AA000030A9000030A800FE
:103C700023082204210420040319792EAC01AC0A84
:103C8000A31B4E2E0130A035A10DA20DA30D890B53
:103C9000432E0130F3007308AC07402E0130A835E5
:103CA000A90DAA0DAB0D890B4F2E23082702031D6A
:103CB000632E22082602031D632E21082502031D00
:103CC000632E20082402031C6E2E2008A402210863
:103CD000A53B2208A63B2308A73B28140130A336A6
:103CE000A20CA10CA00C890B6F2E0130AC02031D9D
:103CF0004E2E2B08A3002A08A2002908A10028089C
:103D0000A0000800A6315C269E317A080319C62E51
:103D10001E302000D50055082100ED00C62E0130D0
:103D2000943166249E31D12E9B31E9239E31003A95
:103D3000031DD12E0030943166249E31D12EA7313F
:103D40001D279E3120002108EB002008EA000730E3
:103D50006B02D03003196A02031CBD2E05307A06AF
:103D6000031DB62E973161279E31C02E7A03031DA5
:103D7000C02E89316B219E31C02E9331E0239E31BC
:103D800008302000D5005508FA00D12E7A08013AF3
:103D900003199F2E033A0319942E063A03198F2E06
:103DA000D12E7A08031908009031EE209E31A731F8
:103DB0001D2708002000D600D4015608D300530860
:103DC000D50055088600043087000108220045060A
:103DD0000319F22E200055088600043087000108E0
:103DE0000319080020005608AB000430AC0052084C
:103DF000AE005108AD009A31C2229E31003A03193B
:103E000008001D2F200056088A311A2208002000C1
:103E10005608913164210800200056088C31562440
:103E20000800200056088831222008002000B60132
:103E3000B60A56089B316B2308002000550A8600FD
:103E4000043087000108033A0319022F053A0319C9
:103E5000072F633A0319112F023A03190C2F093A5D
:103E60000319112F162F0800FD302000C30043084E
:103E7000EF0544309A31F9229F31200023082100B8
:103E8000A100200022082100A00000002000C41B87
:103E9000682F1530210032020318682FFF302005EB
:103EA000A0001F302105A1000230A035A10D890B13
:103EB000552F3235A03E8600013087002008C03FD4
:103EC0002108C13F01302000C30043082100B20790
:103ED000143021003202031C942F8E31FA269F31B8
:103EE00020002E08F9002D08F8002100B201790801
:103EF000F4007808F300963129269F312000C30092
:103F00004308C4004408833149239F3120002E0810
:103F1000E9002D08E800EF1F942F7F30C30043080D
:103F2000EF0593315C239F312000A20101309931CC
:103F3000662108002000B500F42F1830B3003308C4
:103F4000A8003208B4003408A90003309131DF2101
:103F500008001A302000B3003308A8003208B4006B
:103F60003408A90003309131DF2108002C302000F3
:103F7000B3003308A8003208B4003408A9000330A5
:103F80009131DF21080015302000B3003308A8006C
:103F90003208B4003408A90003309131DF21080051
:103FA00004302000B3003308A8003208B4003408FD
:103FB000A90003309131DF21080002302000B30056
:103FC0003308A8003208B4003408A9000330913146
:103FD000DF2108002000A8013208B3003308A9003F
:103FE00003309131DF2108002000350884000830BB
:103FF000040203180800A0310435283E820008009E
:104000008E31062E8E310E2E8E311C2E8E31232EA9
:104010008E31682E8E31702E8E31782E8E31A42EF8
:104020008E31C12E8E31C92E8E31D12E8E31D92EA8
:10403000A7314C2FA731502FA731542FA731582F1C
:10404000A7315C2FA731602FA731642FA731682FCC
:104050009F31FF2F9F319D2F9F31A92F9F31B62F69
:104060009F31C32F9F31D02F9F31DD2F9F31EA2FFA
:1045B00020001814080016302100970008007830F9
:1045C00021009900980108009831002022008C14E5
:1045D0000800A0340734013401341E3420000D1EBD
:1045E000080021003A15080074082200D60073085C
:1045F000D500080074082200D8007308D70008000E
:1046000022005008F30073082100BA0008002100BE
:10461000911222000C122100A801A9019116080094
:104620000B138B1374082100AB007308AA008B17BF
:104630000B170800A3313123A3310E302000A20054
:104640008330A3009C31F8240800F3007308230092
:104650009100151395131514000000002300130892
:104660000800C030F3000030F400F5011830F70006
:104670007708F600A331AD23080064008001013102
:104680000130FE020030FF3B7F087E040319003436
:104690003E2BFE0012001E000130FE020030FF3BE8
:1046A0007F087E04031900344A2B21000C122300DA
:1046B0008C1221008C160D160D1022008F13210074
:1046C0008F1308000130F3020030F43B730A031922
:1046D000740A031908000000000000000000622BAB
:1046E0000B138B1321002B08F6002A08F5008B17FB
:1046F0000B177608F4007508F300080021009112EA
:104700001112083023009F0090309D0024309E003D
:104710001F309B0001309C00080020008C1E952B50
:104720002100BA1522008C1008002100BA116C0873
:104730000319080022008C1408002000A000A10129
:10474000A631CB26A331F60076082000A100200870
:10475000A431FE242000210808000130F602760A68
:104760000319080073088600740887007508810023
:104770000130F3070030F43DAD2B21006A08F4004E
:104780006908F300C030F5000030F6001830200052
:10479000A1002108F700A431C824080045302000FA
:1047A000A7008330A800210061082000AD00AE0101
:1047B0002D08A9002E08AA0087314E2708003230A4
:1047C0002000A7008330A800210061082000AD0070
:1047D000AE012D08A9002E08AA0087314E27080037
:1047E0009A315822A331A231DF22A331A231DB2238
:1047F000A331A5313725A331A4313C24A331A33102
:104800007E2308002000A700A601271C0B2C2408EB
:10481000A5002508A6070310A40D0310A70C270860
:10482000031D052C2608080090311520A431031023
:1048300022008C1D0314031C202C22008C15222C1A
:1048400022008C1127000C108C10080021008F1200
:1048500022008F120230F3000030F400A3316223F3
:10486000A43122000F170230F3000030F400A3310E
:10487000622322008F16080021001508C03907386E
:1048800095009430200095009430F50075082200C2
:10489000D9000B118B160030F3000030F400A23168
:1048A000F42208000034003400340034E8340334C7
:1048B0000034003400340134003401340034003456
:1048C0000034003402340034003400340034003446
:1048D00021008F1222008F160F170230F3000030D4
:1048E000F400A3316223A43122008F120230F300BE
:1048F0000030F400A331622322000F130800A3311B
:104900003123A43121006108031D8E2C29302000A1
:10491000A2008330A3009C31F8240800203020003E
:10492000A2008330A3009C31F8240800200011105D
:1049300021006F082000970021006E0820009600DB
:104940000130F00070082100BF072000EF17013090
:10495000F00070082100BE072000EF1608002300B9
:104960008C1121008C1128000C1026000C1028003E
:104970008C1026008C1023000C1021000C1023003A
:104980000C1121000C1123008C1021008C10080048
:104990007708031908007508860076088700010863
:1049A0002000A0007308860074088700200881009A
:1049B0000130F5070030F63D0130F3070030F43DDB
:1049C0000130F702C82C22003E03031DF42C210005
:1049D0006B082000C9004908B6002100370885315E
:1049E000CE25A4312200BE0102303E06031D080080
:1049F0008831C3202200AC01AD010800F300210082
:104A00008F1222000F1373080319082D8F16092D1A
:104A10008F120000000000000000000000002200D3
:104A20000F1700000000000000000000000022003E
:104A30000F130800F400F5017408230091007308B7
:104A4000930095131513151500308B1B0130F500DD
:104A50008B1355309600AA309600951495182E2D7C
:104A60001511750C031C8B1303188B1708008C3061
:104A700020009800013099008030970096011708B7
:104A80002100EF00200016082100EE002000111088
:104A9000210011140030F3000030F400A231FA229A
:104AA000A531A231D82208002000A000A1011830B1
:104AB0002102031808002108F300F4017308210003
:104AC0006907F50074086A3DF600750886007608E7
:104AD00087002000200881000130F3007308A1073F
:104AE000572D2000A001A101731C7B2D750820000B
:104AF000A0077608A13D0130F535F60D890B7C2D18
:104B00000130F436F30C890B812D73087404031DF6
:104B1000742D20002108F4002008F3000800200074
:104B2000A10177082102031808007608A331252384
:104B3000A5312000A00074088600750887002008B1
:104B400081000130F4070030F53D0130A00020085D
:104B5000F6070130A0002008A107912D2000A00039
:104B60000830F4007408A100A2012008F400073006
:104B7000F436890BB82D22357404F5007508A200AF
:104B80000310A00D73082202031CC82D7308A20293
:104B90000130A102031DB52D22080800F7012000F5
:104BA0002308770203180800200020088600210847
:104BB00087000108F6007608F3002208A5311A25BF
:104BC000A53101302000A0070030A13D0130F600E2
:104BD0007608A2070130F6007608F707CF2DF4001B
:104BE0007408031DFE2D0130F30073082000ED074B
:104BF00002306D02031C0C2EED010C2E2100BA199F
:104C00000C2E6C080319082EEC0122008C100C2EBF
:104C1000EC01EC0A22008C1420006D08F3007308EC
:104C2000EC00080023009D1C182E1D121D16080004
:104C30001908F0007008F1000030210029025030FE
:104C4000031928020318312E7108F0002808A03E2D
:104C5000860004308700700881000130A80700300A
:104C6000A93DBD01BD0A2200A801A90108000B1140
:104C700022005908200095000A302100AC070030BE
:104C8000AD3D0A30AA070030AB3D20006F16210071
:104C90003D08031908000A302200A8070030A93D8A
:104CA00000302902643003192802031C0800210087
:104CB000BD0120006F150800FA010E3020000D051F
:104CC000F5000E307506031908003730F300073081
:104CD000F400A3316223A6310E3020000D05F5004B
:104CE0000E307506031908000D080E39F500750819
:104CF000FA000310FA0CFA090730F5007508FA05F6
:104D00000800F600F5010130F302730A03190800E8
:104D1000760886008701303001060319962E760842
:104D20008600870120300106031D08002030F400B2
:104D3000760886008701740881000130F400740849
:104D4000F6070130F4007408F507832EF700F6012A
:104D500073088400740885001200031908000830E5
:104D600076020318080073088400740885000008A0
:104D7000F500770886008701750881000130F30788
:104D80000030F43D0130F5007508F7070130F500FB
:104D90007508F607A82EF40121008F16F5010830DA
:104DA00075020318F02E0310F40D22000F130000FB
:104DB0000000000000000000000022000F170000AB
:104DC0000000000000000000000020008F1A741492
:104DD0000130F3007308F50708307502031CD42E68
:104DE00022000F1374080800C830F5007508F6009B
:104DF00021008F1622000F130000000000000000A9
:104E00000000000022000F1700000000000000005A
:104E1000000000000130F602760A0319122F20006C
:104E20008F1A0A2F7608031D192FA431262400306B
:104E3000080022000F13013008002000A201A30186
:104E4000A6315C26A7317A08031D2A2F2000A00175
:104E5000A10108000030F300F400A3311023A731B2
:104E6000A6315C26A731A3317023A7317408200036
:104E7000A3007308A2007A080319452F0730230204
:104E8000D13003192202031C302F2308A10022086D
:104E9000A0000800F6006C2F7608A731A4270800B0
:104EA0007608A731D227080076089831222008001A
:104EB0007608983150200800760898317E20080046
:104EC00076089831AC20080076089831DA2008007E
:104ED000760899310821080075088400083004021A
:104EE00003180800A0310435183E8200080073083A
:104EF000740403199F2F2000A001A00AF41B8A2F1D
:104F00000130F335F40D890B812F0130F70077085C
:104F1000A0077E2F74087602031D902F7308750278
:104F2000031C962F7308F5027408F63B0130F43623
:104F3000F30C890B972F0130A002031D8A2F7608EE
:104F4000F4007508F3000800F4007F30F3007308E4
:104F50002100CC05F41ACC177F30F3007308CF057D
:104F6000741BCF177F30F3007308D205741AD21761
:104F70007F30F3007308D505F419D517FE30F30020
:104F80007308C00574184014FE30F3007308C3059D
:104F9000F4184314FE30F3007308C605741D0800AE
:104FA00046140800F400FD30F30073082100C0052A
:104FB000F41AC014FD30F3007308C305741BC31446
:104FC000FD30F3007308C605741AC614FD30F300F3
:104FD0007308C905F419C914FB30F3007308C00540
:104FE00074184015FB30F3007308C305F41843151B
:104FF000FB30F3007308C605741D08004615080051
:020000040001F9
:04000E00E2FFFFDE30
:00000001FF
