:1000000080313728FF3FFF3F7E14803120007F087A
:10001000F2008B1A0B1D1028B531B1258031322822
:100020000B1F1C282100111E1C282000111E1C283B
:10003000A0310620803132280B1F28282100911E74
:1000400028282000911E2828B631372680313228F2
:100050000B1F32282100111C32282000111C3228CD
:10006000B531C22572082000FF007E1009009131D1
:10007000ED29FD302000BE002100B6053F3079207B
:100080008031200023082100AF0020002208210039
:10009000AE0000002000BF1B5528000021002F08E3
:1000A000AB002E08AA00000058282100AE01AF01C5
:1000B00021002F08F4002E08F3004C23803120008B
:1000C000BE00BF00A02120002E082100B1002000AA
:1000D0002D082100B000A331B4238031873140279F
:1000E0008031FD238031D023803120000230A201F5
:1000F000B7282000A600A701A8010C218031D1302B
:10010000DF2080310030AA2080312000A400A5012A
:10011000A7042508A8040830A735A80D890B8C284A
:100120000030AA2080312000A400A501A7042508E2
:10013000A8040130AA2080312000A40026088600EF
:100140008701240881004A2120002808A3002708ED
:10015000A20008002000A000A10122218031F600A9
:100160002000A10020085F212000210808002000B5
:10017000A400A300A50021000F130C218031D03072
:10018000DF208031023020002502031CCB28023002
:10019000A300A5000310A50D0310A50D2208033927
:1001A000A300A50425088038DF2080314A210B13E5
:1001B0008B132100AC01AD018B170B170800200039
:1001C000A00021008F1222000F1320000830A1018F
:1001D000210203180B29A01FF02822008F16F228F5
:1001E00022008F120F170000000000000000000026
:1001F000000022000F1300000000000000000000BB
:100200000000031020000130A00DF700A107083006
:100210002102031CEB287B2921008F1222008F165C
:100220000F170230F300F4019A31192280312200B5
:100230008F120230F3000030F4019A3119222200AB
:100240000F130800F40121008F160830F501750224
:10025000031846290310F40D22000F1300000000BC
:10026000000000000000000022000F170000000046
:10027000000000000000000020008F1A74140130FC
:10028000F300F50708307502031C2B2922000F1319
:100290007408080021008F1222008F120230F30030
:1002A000F4019A311922803122000F170230F30035
:1002B0000030F4019A31192222008F160800F30051
:1002C00021008F1222000F137308031969298F165A
:1002D0006A298F12000000000000000000000000EA
:1002E00022000F17000000000000000000000000C6
:1002F00022000F130800C830F500F60021008F1609
:1003000022000F13000000000000000000000000A9
:1003100022000F1700000000000000000000000095
:10032000942920008F1E98290130F602760F91291A
:100330007608031D9D294A21003422000F13013441
:100340002000BD00B701B801B501B601BB01BC0179
:10035000B901BA013D08031DB029AD01AE01080085
:100360001D303D020318622A3D08AF00B001AF35D1
:10037000B00DAF35B00D2F08023EB1000030303D5A
:10038000B200803031078400BF30323D8500003F2D
:10039000B700013FB8003D08AF00B001AF35B00D68
:1003A000AF35B00D2F08063EB1000030303DB20031
:1003B000803031078400BF30323D8500003FB500FA
:1003C000013FB6003D08AF008030B001AF35B00D41
:1003D000AF35B00D2F078400BF30303D8500003FA2
:1003E000BB00013FBC003D08AF00B001AF35B00D10
:1003F000AF35B00D2F08043EB1000030303DB200E3
:10040000803031078400BF30323D8500003FB900A5
:10041000013FBA003C06031D0F2A3B083906031DA5
:10042000202AF8308400BF308500003FAF00013F34
:10043000B000AF35B00D2F08AD003008AE00080099
:100440003B09AF003C09B000AF0A0319B00A3908F4
:100450002F07A2003A08303DA3003709B100380940
:10046000B200B10A0319B20A35083107F3003608A1
:10047000323DF4003B09B3003C09B400B30A031950
:10048000B40A21002A0820003307F50021002B08B8
:100490002000343DF6009331EE23803174082000B3
:1004A000A5007308A4009F31702780312000370811
:1004B00022072100A40020003808233D2100A500C8
:1004C000A601A7011A308400BF308500003F20003C
:1004D000AF00013FB0002F08A0003008A100890D37
:1004E000893B8909A200A300210027082000A7005A
:1004F000210026082000A600210025082000A500D4
:10050000210024082000A4008F31D327803120004F
:1005100023082100A700200022082100A6002000B7
:1005200021082100A500200020082100A4002000AF
:100530000330A301A201A100E830A0002100270898
:100540002000A700210026082000A6002100250881
:100550002000A500210024082000A400A6312C269C
:100560008031200023082100A7002000220821005C
:10057000A600200021082100A5002000200821005D
:10058000A400F8308400BF308500003F2000AF0099
:10059000013FB0002F082100A000200030082100FA
:1005A000A1003930A201A301840000082000AF009F
:1005B000B001B101B2013208A3003108A200300835
:1005C000A1002F08A000210023082000A70021007F
:1005D00022082000A600210021082000A5002100FB
:1005E00020082000A4008F31D32780312000230869
:1005F0002100A300200022082100A20020002108E1
:100600002100A100200020082100A000200064306B
:10061000A301A201A101A000210023082000A7003E
:10062000210022082000A600210021082000A500AA
:10063000210020082000A400A6312C2680312000B3
:1006400023082100A300200022082100A20020008E
:1006500021082100A100200020082100A00023087B
:100660002702031D3D2B22082602031D3D2B2108D6
:100670002502031D3D2B200824020318432B2000D4
:10068000AD01AE010800210025082000AE002100C8
:1006900024082000AD00080080308400BF308500B1
:1006A000003F2000A000013FA10074082102031DAB
:1006B0005B2B73082002031800341D30F50175020E
:1006C0000318CE2B7508A0008030A101A035A10D24
:1006D000A035A10D20078400BF30213D8500003FDB
:1006E000A200013FA3007402031D782B22087302AD
:1006F0007508A000A101031C9B2BA035A10DA035FE
:10070000A10D2008043EA2000030213DA30080304E
:1007100022078400BF30233D8500003FA400013F35
:10072000A5007402031D962B240873027508031C90
:100730000800A000A101A035A10DA035A10D200841
:10074000043EA2000030213DA30080302207840037
:10075000BF30233D8500003FA400013FA500750880
:10076000A6008030A701A635A70DA635A70D260740
:100770008400BF30273D8500003FA800013FA9004D
:100780002506031DC52B240828060319CE2B01308E
:10079000A000F5071D307502031C622B75080800C8
:1007A00016308400BF308500003FF400013FF500A3
:1007B00074082100BE007508BF00890D893B8909B6
:1007C000C000C1004508803AF4004108803A740234
:1007D000031DF42B40084402031DF42B3F08430281
:1007E000031DF42B3E0842020318FB2B22002E1699
:1007F0002100BA14292CBA10080014308400BF302C
:100800008500003FF300013FF40073082100BE00A3
:100810007408BF00890D893B8909C000C1004508E3
:10082000803AF3004108803A7302031D212C4008EE
:100830004402031D212C3F084302031D212C3E08C6
:1008400042020318262C22002E16080022002E1227
:10085000080021003617BA190800B531D32D200041
:10086000CD00CB01CA00CC00860004308700010A0D
:1008700003194B2C09308400BF3085000008CA00E2
:100880004C08860001084A0603194B2C4C088600C8
:100890000108031908004D08AB000430AC004808FB
:1008A000FE3EAD00FF30493DAE009331BD238431A3
:1008B000003A0319080020004C0A86000430870023
:1008C0000108643A0319752C013A0319782C033A8C
:1008D00003197B2C013A03197B2C0F3A03197E2C48
:1008E000013A0319812C842C080020004D080C2D9E
:1008F00020004D08892C20004D08872E20004D082F
:10090000922D20004D08FC2E2000B601B60A4D089D
:10091000512E2000C600C301C401C701C100C5009B
:10092000023E8600043087000108C100C201C300F6
:100930004208C4000830C335C40D890B9B2C450800
:10094000033E8600043087000108C100C201C304D1
:100950004208C40445088600443FC700C701450853
:100960008600453FC7003F304402803003194302F0
:10097000031CCC2C47084307C10044080318440A51
:10098000C200403042020130031941020318CC2C4E
:1009900011304702031CD12C0230C100B6004608BA
:1009A000512E7030F3002330F40020004608053E3D
:1009B000F5000430F6004708C100F70097317827AA
:1009C0008431200044082200C8002000430822008F
:1009D000C700DB01DB0A20004708C100C20122007A
:1009E000C900200042082200CA007030F300233002
:1009F000F40020004608053EF5000430F6004708E4
:100A0000C100F700973178278431973193278431DB
:100A10002000B6014608512E2000C600C301C401C3
:100A2000C701C100C500023E8600043087000108EE
:100A3000C100C201C3004208C4000830C335C40D60
:100A4000890B1E2D4508033E8600043087000108EF
:100A5000C100C201C3044208C40445088600443FE3
:100A6000C700C70145088600453FC7003F30440224
:100A7000803003194302031C4F2D47084307C10070
:100A800044080318440AC2004030420201300319EE
:100A9000410203184F2D11304702031C542D023020
:100AA000C100B6004608512E7030F3002330F40028
:100AB00020004608053EF5000430F6004708C10056
:100AC000F700973178278431200044082200C800BD
:100AD000200043082200C70002302000C10022008D
:100AE000DB0020004708C100C2012200C90020002D
:100AF00042082200CA007030F3002330F4002000C6
:100B00004608053EF5000430F6004708C100F7002E
:100B10009731782784319731932784312000B601AB
:100B20004608512E2000BE00BB01BC01BF01B90028
:100B3000BD00023E8600043087000108B900BA01FA
:100B4000BB003A08BC000830BB35BC0D890BA42D96
:100B50003D08033E8600043087000108B900BA0151
:100B6000BB043A08BC043D088600443FBF00BF01F7
:100B70003D088600453FBF0020003C08E03A0319CD
:100B80001C2E242E04303F06031D242E3E08053E55
:100B9000F3000430F400C230F5000030F6000430F9
:100BA000B900F70097317827843105302000B9006B
:100BB000BF073E08AB000430AC003F08B900BA01E3
:100BC000AD003A08AE009431552484310230200043
:100BD000B900BF073F08B900BA01F3003A08F400B2
:100BE0003E082A2E20003F0B242E21003A08200028
:100BF000B9003E08053E86000430870039088100B0
:100C00000530B900BF073E08AB000430AC003F0818
:100C1000B900BA01AD003A08AE00943155248431D0
:100C200002302000B900BF073F08B900BA01F30045
:100C30003A08F4003E082A2E3B08003A0319C22D58
:100C4000053A0319F22D242E02302000B900B60017
:100C50003E08512E2000A20022000C162000111A7E
:100C60001112A001A10174082102031D392E73087D
:100C7000200203184E2E2208860004308700010847
:100C800023009A000130F5002000A207111E462E15
:100C900011120130A0070030A13D332E22000C12AA
:100CA00008002000B800F700B70086000430870075
:100CB00001080319080009308400BF3085000008CE
:100CC000F7003708860077088100360803196E2E72
:100CD0008030F700370A8600770881073608F7006A
:100CE0003708023E86000430870077088100380804
:100CF000AB000430AC000330AD00AE01943155249C
:100D000084310530F300F401200038082A2E200039
:100D1000BE00BB01BC01BF01B900BD00023E8600A0
:100D2000043087000108B900BA01BB003A08BC00D2
:100D30000830BB35BC0D890B992E3D08033E86005B
:100D4000043087000108B900BA01BB043A08BC04AA
:100D50003D088600443FBF00BF013D088600453F77
:100D6000BF003F303C02803003193B02031CCA2EF7
:100D70003F083B07B9003C0803183C0ABA00403062
:100D80003A020130031939020318CA2E41303F02DA
:100D9000031CCF2E0230B900B6003E08512E2000B1
:100DA0003E08053EF3000430F4003C08F6003B0822
:100DB000F5003F08B900F7009731782784310530F6
:100DC0002000B900BF073E08AB000430AC003F086C
:100DD000B900BA01AD003A08AE009431552484310F
:100DE00002302000B900BF073F08B900BA01F30084
:100DF0003A08F4003E082A2E2000BE00BB01BC01C8
:100E0000BD01B900BF00023E860004308700010822
:100E1000B900BA01BB003A08BC000830BB35BC0DB4
:100E2000890B0E2F3F08033E86000430870001081F
:100E3000B900BA01BB043A08BC043F088600443F2D
:100E4000BD00BD013F088600453FBD0005303B06A3
:100E5000E03003193C0603193D030319342F023017
:100E6000B900B6003E08512E20003E08860004302E
:100E70008700453F2100BA002000B6013E08512EF0
:100E800012308400BF308500003F2000B600013FD3
:100E9000B70036082100BE00200037082100BF003F
:100EA000890D893B8909C000C10020000A30AB01CF
:100EB000AA01A901A800210034082000A0002100F7
:100EC00035082000A100A201A30121004108200053
:100ED000A700210040082000A60021003F082000B4
:100EE000A50021003E082000A4008F31D3278731C0
:100EF00020002308AF002208AE002108AD00200822
:100F0000AC008A31E022873120002B082100C1008B
:100F100020002A082100C000200029082100BF006D
:100F2000200028082100BE002C308400BF3085003E
:100F3000003F2000B600013FB700023FB800033F6A
:100F4000B90021003E092000BA0021003F0920001D
:100F5000BB00210040092000BC0021004109200005
:100F6000BD00BA0A0319BB0A0319BC0A0319BD0A5A
:100F70003A08B6073B08B73D3C08B83D3D08B93DC7
:100F800039082100C500200038082100C4002000D5
:100F900037082100C300200036082100C2000800E5
:100FA0002000A000A10106302102031808007408E7
:100FB0008400750885000008F60073088600043078
:100FC000870001087606F7002008860001308700B8
:100FD000770881000130F600A007F307F40700301E
:100FE000F53D0130F600A107D32F99315321873108
:100FF00037309D31B9252000A900AA000800FF3F25
:10100000FF3F2300C7012200A8018C238831003A4A
:101010000319AC282200A801A80A2000B030CA0198
:10102000F62388312100EC00BB003B08031DAC28EF
:10103000083023003B06031DAC2802302100EC00E1
:101040002200A80095314C2588312100EC002300B6
:10105000C70047080319AC28512788312100EC004C
:101060002300C70047080319AC281B27883121003B
:10107000EC002300C70047080319AC28B9208831C9
:1010800022000C1527000C1422008C1127008C1054
:1010900023000F30C701470203185E284C30F300CD
:1010A0009030F4009A311922883101302100EC008F
:1010B0002300C7070F304702031C4E289A315322E2
:1010C00088312100EC002300C7004708031D762863
:1010D000143022002806031D782870302000A2005A
:1010E000AA30A3009F31BD2788317828B9208831E4
:1010F00023000C30C70147020318A7280310220061
:101100000C1D0314031C872822000C1589282200BB
:101110000C114C30F3009030F4009A3119228831D0
:101120004C30F3009030F4009A3119228831263087
:10113000F3004830F4009A3119228831013021003F
:10114000EC002300C7070C304702031C7F28153032
:101150002100EC002200A8005C238831152788318B
:101160005C232300FE30A801A9012100EC00B60594
:10117000080021004508C1004408C0004308BF0022
:101180004208BE0020006430AB01AA01A901A800FA
:10119000210041082000AF00210040082000AE00DF
:1011A00021003F082000AD0021003E082000AC00D7
:1011B000E022883120002B082100C10020002A08ED
:1011C0002100C000200029082100BF0020002808BD
:1011D0002100BE00C11B1D29C11B00294108031DA0
:1011E000FA284008031DFA2810303E0227303F3B02
:1011F000031C00292730C101C001BF000F30BE0011
:1012000041082000B900210040082000B80021005A
:101210003F082000B70021003E082000B60004303F
:10122000C000BA0063303622883103302000C0008D
:10123000F30060301E2288315D29BE09BF09C00954
:10124000C109BE0A0319BF0A0319C00A0319C10A5A
:10125000C11B3C294108031D36294008031D3629BE
:10126000E8303E0203303F3B031C3C290330C10100
:10127000C001BF00E730BE0041082000B9002100D6
:1012800040082000B80021003F082000B7002100DE
:101290003E082000B6000330C000BA00633036229A
:1012A000883102302000C000F30060301E228831F7
:1012B0002D302000C0002200E00021004508C100C0
:1012C0004408C0004308BF004208BE00123084003A
:1012D000BF308500003F2000C000013FC100400832
:1012E000A8004108A900890D893B8909AA00AB0023
:1012F000210041082000AF00210040082000AE007E
:1013000021003F082000AD0021003E082000AC0075
:10131000E022883120002B082100C10020002A088B
:101320002100C000200029082100BF00200028085B
:101330002100BE00C11BCD29C11BB0294108031DDE
:10134000AA294008031DAA2910303E0227303F3B3E
:10135000031CB0292730C101C001BF000F30BE00FF
:1013600041082000B900210040082000B8002100F9
:101370003F082000B70021003E082000B6000430DE
:10138000C000BA005F303622883103302000C00030
:10139000F3005C301E2288310C2ABE09BF09C00947
:1013A000C109BE0A0319BF0A0319C00A0319C10AF9
:1013B000C11BEC294108031DE6294008031DE6294D
:1013C000E8303E0203303F3B031CEC290330C101EF
:1013D000C001BF00E730BE0041082000B900210075
:1013E00040082000B80021003F082000B70021007D
:1013F0003E082000B6000330C000BA005F3036223D
:10140000883102302000C000F3005C301E222D30F5
:101410002000C0002200DC009F31B4278831013059
:10142000872720000430B201B20AA6317A265C3048
:101430002000A2000130A3009F31BD2FF500312A0A
:10144000750886000130870030300106031D080052
:101450002030F40075088600740881000130F40023
:10146000F5070130F302730F202A08002000BF00A7
:101470003A08031908000A30AB01AA01A901A80023
:101480003A08BB00AC009C27883120002B082100C3
:10149000A30020002A082100A20020002908210022
:1014A000A100200028082100A000FF302000BB0080
:1014B000BC00BD00BE00210020082000BB072100A9
:1014C00021082000BC3D210022082000BD3D210054
:1014D00023082000BE3D3E083902031D792A3D083D
:1014E0003802031D792A3C083702031D792A3B087C
:1014F0003602031CDB2AFF30210020072000B60043
:10150000FF302100213D2000B700FF302100223DA7
:101510002000B800FF302100233D2000B900DB2A65
:101520000A30A301A201A101A0003908A7003808D0
:10153000A6003708A5003608A400B7311127883166
:10154000200023082100A300200022082100A2007F
:10155000200021082100A100200020082100A00077
:10156000210885002008840051308407AA30853D79
:1015700000082000BB003F088600013087003B08C0
:1015800081000130BF020A30AB01AA01A901A80005
:101590003908AF003808AE003708AD003608AC0097
:1015A000E022883120002B08B9002A08B800290859
:1015B000B7002808B6000130BA023A0F902A080096
:1015C0002000B101AB1FF12AA809A909AA09AB099A
:1015D000A80A0319A90A0319AA0A0319AB0AB10137
:1015E000B10AAF1F012BAC09AD09AE09AF09AC0AB6
:1015F0000319AD0A0319AE0A0319AF0A0130F70047
:10160000B106B501B401B301B2012B082A042904C3
:1016100028040319452BB001B00AAB1B1A2B01306B
:10162000A835A90DAA0DAB0D890B102B0130F700C1
:10163000B0070D2B0130B235B30DB40DB50D890BCC
:101640001B2B2B082F02031D2F2B2A082E02031DF4
:101650002F2B29082D02031D2F2B28082C02031CD9
:101660003A2B2808AC022908AD3B2A08AE3B2B08D0
:10167000AF3B32140130AB36AA0CA90CA80C890B75
:101680003B2B0130B002031D1A2B31080319532BD9
:10169000B209B309B409B509B20A0319B30A0319A7
:1016A000B40A0319B50A3508AB003408AA00330898
:1016B000A9003208A800080050302000CA00CD0060
:1016C0004D30CE01A6000030A7000230CA00A800AD
:1016D0004F30A9000030AA009D315A2588312000E2
:1016E000CB00D1005108031D08003030CA00B10002
:1016F0004D30B2000030B3000430CB00B4000C30E9
:10170000B501B601B701B801B901BA019831082095
:101710002000CC00D100080002302000D400DB0003
:10172000B030F3000130F4000C30F501D400F600C5
:101730009F31A427883126302000D400D7005830AC
:10174000D400CA005B30D500CB005708B3238831E2
:101750002000D600DA005A080319013402305A0674
:101760000319013400342000D000CC00D1004A0815
:10177000031904344B088600023087010102031C60
:1017800004348030CC00A2000E309E3146268831D1
:1017900007302000CC00D3003030CC00B1005130F5
:1017A000B2000030B300B401B40A4A08B500B60173
:1017B0004B08CD00B7005330CE00B8000C30B90153
:1017C000BA019831082088312000CF00D200520899
:1017D0000319EC2B520808004B08860002308701E1
:1017E000010603195308031D013400342100E500EC
:1017F0005130E101E10A20004A020318063480302A
:10180000CB00A2000E309E31462688312100CE0149
:1018100021004E08031DA12E610B272C93302000C0
:10182000CB002100D600E201D10120004A080319B3
:10183000242C210065088600013087000530010254
:10184000031C242CD101D10A21005108472C02305D
:101850006106031D4C2C95302000CB002100D600E2
:1018600003302000CB002100E200D20120004A0812
:101870000319452C210065088600013087000830D7
:101880000102031C452CD201D20A2100520820007B
:10189000CB002100E0005B2C03306106031D053402
:1018A00097302000CB002100D60006302000CB006E
:1018B0002100E200E00162082000CB00CC01CB3522
:1018C000CC0DCB35CC0DCB35CC0D4C08803A803CC3
:1018D000031D6C2C4B084A020318712C2100EB01EC
:1018E000812C210062082000CB000230CB35FF3E66
:1018F000031D762C4B35FF3A013E4A07CC002100F0
:10190000EB0002302000CB002100EA006008031940
:10191000982C88302000CB0021006A08D63E860033
:10192000870120004B0881000130CB002100EA072D
:101930000830F300F4016B082000CB00CC01F50067
:101940004C08F600B426883173082000CD007408D6
:10195000CE0021006B0807390319B02C0130B12CDF
:10196000003020004D07CF002100E3006308031979
:10197000EF2C6008031DBE2C0430BF2C0330C800C0
:10198000C9012000CB002100D400630854020318D1
:10199000CE2C54082000CB002100E300E9016308AD
:1019A00069020318EF2C62086907013E65072000F1
:1019B000CB008600013087000108CC0021006A08B6
:1019C000D63E8600870120004C0881000130CB0004
:1019D0002100EA072000CB002100E907CF2C600896
:1019E0000319F72C08302000CB002100EB07CF01B2
:1019F00021004F08031D202E20306B02031C322DC6
:101A000070302000CB002100D700580859065A0634
:101A10005B062000CB002100DC00D6302000A600B1
:101A20000030A7000730CB00A800DD30A90000304F
:101A3000AA009D315A2588312000CC002100E80001
:101A400068080319252D680808000930E7012000FF
:101A5000CB002100D000DC302000CB002100E600CC
:101A60000330702D6B0807392000CB002100E70000
:101A70000830F300F4016B082000CB00CC01F50026
:101A80004C08F600B426883173082000CD002100F0
:101A9000E900023E2000CB002100EA002000CB003C
:101AA0000330CB35FF3E031D512D4B352100670719
:101AB0002000CC002100D70067080319612D0130F8
:101AC000622D00306A072000CB002100D0006A0898
:101AD000D63E2000CB002100E6006A03FF3A093E13
:101AE0002000CB002100E40067082000CB0021008B
:101AF000D3002000CB000330CB35FF3E031D7C2DEF
:101B00004B35210067072000CC00F7000D309931DC
:101B1000B721883130302000CB00B100D630B20080
:101B20000030B300210050082000CC00B400210098
:101B300066082000B500E430B601CD00B700E730FC
:101B4000CE00B800210053082000CF00B9000C30AF
:101B5000BA019831082088312000D0002100E80027
:101B6000023A031D0D2E0E309D31B925883120001B
:101B7000CB002100D500D51A023455081F392000AA
:101B8000CB002100DF005F08031DCB2D203020009B
:101B9000CB002100DF005F086B02031805345F08EB
:101BA0002000CB002100EB00FF3E07392000CB00D6
:101BB0002100E9000830F300F4016B082000CB009D
:101BC000CC01F5004C08F600B426883173082000DB
:101BD000CD007408CE00210069080319F12D0130F1
:101BE000F22D003020004D07013ECF002100EA0019
:101BF00001302000CB002100690A2000002ECB35E7
:101C0000890BFF2D4B08CC0021006A08D63E8600C8
:101C1000870120004C088104F82C21006808031972
:101C2000132E6808080020306B02031C1A2ECF0107
:101C3000CF0AF82C20302000CB002100EB00F82C3C
:101C4000883058060319262E0230272E0330CA008A
:101C5000CB012000CB002100EA0088305806031990
:101C6000332E0430342E0330CC00CD012000CB00C5
:101C70002100E300E9016308690203185B2E6A088A
:101C8000D63E8600870101082000CB0021006208B3
:101C90006907013E65072000CC00860001308700FF
:101CA0004B0881000130CB002100EA072000CB0067
:101CB0002100E9073B2E0330640603196708031D62
:101CC000013466082000A600D830A701A801A80AA0
:101CD000A9000030AA009D315A2588312000CB0090
:101CE0002100E80068080319772E68080800660AD2
:101CF0008600870158080106031D07346608023E66
:101D0000860059080106031D073466088600011D78
:101D10008F2E01302000CB002100E107082CCE01DE
:101D2000CE0A66088600870101082000CB0021004A
:101D300065080B3E86000130870020004B088100BB
:101D4000082C03302000CB00A400210061080427E8
:101D5000013E2000CC00210065088600013087008C
:101D600020004C08810000342000A101F41FBF2E88
:101D7000F309F409F30A0319F40AA101A10AF61FF1
:101D8000C92EF509F609F50A0319F60A0130F7001C
:101D9000A106A201A301730874040319F72EA00180
:101DA000A00AF41BDC2E0130F335F40D890BD42E80
:101DB0000130F700A007D12E0130A235A30D890B09
:101DC000DD2E74087602031DE72E73087502031CCE
:101DD000EE2E7308F5027408F63B22140130F43637
:101DE000F30C890BEF2E0130A002031DDC2E21081D
:101DF0000319FF2EA209A309A20A0319A30A2308A3
:101E0000F4002208F30008002000A700A601271C08
:101E10000C2F2408A500A6070310A40D0310A70C7F
:101E20002708031D072F2608080008302000A600F9
:101E3000A2009E31462E0F302000E000CA00BC30C8
:101E4000CB000130CC00B030E100CD0061309C31DE
:101E50005B2488312000E2002100BB00123020000A
:101E6000E0002100C70056302000E000CA00C73063
:101E7000E100CB000C309731A92788312000E20027
:101E80002100BB0056302000AB000430AC0008300D
:101E9000AD000030AE019331BD232000E000E3002F
:101EA00008000B302000E000CA00BC30CB0001303D
:101EB000CC00B030E100CD0061309C315B24883132
:101EC0002000E2002100BB0012302000E0002100D1
:101ED000C60044302000E000CA00C630E100CB005C
:101EE00008309731A92788312000E2002100BB008B
:101EF00044302000AB000430AC000830AD000030AE
:101F0000AE019331BD232000E000E3000800200073
:101F1000B4002A30B200A8003408B300A900003091
:101F2000A631C4262A302000B200A8003408B3002D
:101F3000A9000130A631C42E20000130B001AF014C
:101F4000AE01AD002C080130031DC72FAB01AA0163
:101F5000A901A80008002B08A3002A08A20029084C
:101F6000A1002808A0003008A7002F08A6002E080E
:101F7000A5002D08A400D327883120002308B00035
:101F80002208AF002108AE002008AD000130AC02ED
:101F90002C0FAB2F3008AB002F08AA002E08A90089
:101FA0002D08A80008000030F600F500F400F3004A
:101FB0002000201CE32F2408F3072508F43D260801
:101FC000F53D2708F63D0130A435A50DA60DA70D5A
:101FD000890BE42F0130A336A20CA10CA00C890BB5
:101FE000EB2F2308220421042004031DD82F760898
:101FF000A3007508A2007408A1007308A0000800DF
:10200000FF3F70302000BA002330BB007030F30077
:102010002330F400BF30F501F6004830B600F70079
:1020200078279031210034082000B60021003508BF
:102030002000B700B801B9013A08303E86000030F0
:102040003B3D87003608810741313708813D4131EA
:102050003808813D41313908813D3A082C3E8600DF
:1020600000303B3D870021004208C03F4308C13F8C
:102070004408C23F4508C33F20003A083E3EB60030
:1020800000303B3DB7003608860037088700210046
:102090003A088100023022005B06031D6A28DB013A
:1020A0004808FA004708F90070302000B6002330D5
:1020B000B70079083607F3007A08373DF4004B3053
:1020C000F5000130F600220049082000B800F700B2
:1020D0007827903170302000AB002330AC004630C0
:1020E000AD00AE015524903120003F30AA01AB0075
:1020F0007030AC002330AD004830B600AE00C624CE
:10210000903170302000A0002330A1004830A2019F
:10211000B600A300AA24903180302000AB00BE306E
:10212000AC004830AD000030AE01BD23903120003E
:10213000B6002100C600F1272100B401B501080056
:102140002000BF007030BD002330BE007030F300AF
:102150002330F4008030F500BF30F6007C30B7004B
:10216000F7007827903120003F08B700B801B73555
:10217000B80DB735B80D37083D07860038083E3D25
:10218000870021002A08C03F2B08C13F20003F08DC
:10219000B700B801B735B80DB735B80D37083D07EA
:1021A000B90038083E3DBA00390886003A08870071
:1021B000423122004B08C03F4C08C13F4B30F30076
:1021C0000130F40020003F08B7007030B801B73587
:1021D000B80DB735B80DB9002330BA003708390744
:1021E000F50038083A3DF6000430BB00F7007827C8
:1021F000903120003608031D472902303F02031C9E
:1022000047293F08B700B801B735B80DB735B80D45
:1022100037083D07B90038083E3DBA003908860046
:102220003A08870042313D08783E840000303E3D48
:102230008500403F803F413F813F3F08013EB7005E
:10224000BC001E303C02031847293C08B700703020
:10225000B801B735B80DB735B80DB9002330BA009D
:1022600037083907F30038083A3DF4004B30F500E1
:102270000130F6000430BB00F700782790310130C0
:102280002000B700BC071E303C02031C252970301B
:10229000AB002330AC007A30AD00AE015524903154
:1022A00080302000AA003F30AB007030AC002330FB
:1022B000AD007C30B700AE00C624903170302000F5
:1022C000A0002330A1008030B700A2007C30B8000D
:1022D000A300AA24903180302000AB00BF30AC00B6
:1022E0007C30AD000030AE01BD232000B700BC0043
:1022F0002200DB0108002000BF30B701AB01AC00B9
:102300004830AD000030AE01BD2390312000B60052
:10231000B7003708031DEC297030F4002330F500B6
:102320004830F601B600F700852490317030200067
:10233000AB002330AC004830AD000030AE01BD230F
:1023400090312000B600B7003708031DC92970304E
:10235000F3002330F4008030F500BE30F600463044
:10236000B600F7007827903170302000AB002330A2
:10237000AC004630AD00AE015524903170302000E5
:10238000A0002330A1004830A201B600A300AA2477
:10239000903120003F30A001A1004830B600A200DB
:1023A0003225903120003F30AA01AB007030AC00E4
:1023B0002330AD004830B600AE00C6249031200076
:1023C000BF30AB01AC004830AD000030AE01BD23E2
:1023D00090312000B600B700F12F70308400233018
:1023E00085008030FE000030FF00B531A52590311A
:1023F000F801F901FA01A03084000030850028308E
:10240000FE000030FF00B531A5259031203084005A
:10241000013085004D30FE000030FF00B531A525AC
:102420009031A0308400013085001C30FE00003067
:10243000FF00B531A52590312030840002308500A1
:102440004030FE000030FF00B531A525903121005D
:102450001E30EF002200A030ED000730EE0001300A
:10246000EF00023084009830850023001200BC0089
:102470001200BD001200BE001200BF001200C0001A
:102480001200C1007E102000452AAB317B23903121
:102490009931C6219031B6318D26903121009112AB
:1024A0007B219031E0228731F5279031D72290317E
:1024B00020000D1A5D2A21003A1520008C1E662A84
:1024C0002100BA15361722008C106A2A2100BA1191
:1024D00022008C142100361E702AB631C826903195
:1024E0002100B61E762AB6315B2690312100361CBB
:1024F0007C2A8831012090312100B61C822A80314B
:10250000392090312100361F8C2A01209031BF30B4
:102510002300C8002100B605B61D9E2AA2311A224A
:10252000903122002E1E9D2A03100C1D0314031C43
:102530009C2A22000C159E2A22000C112100361D17
:10254000B62A9112220027082000C900220026087E
:102550002000C800A03084312F249031FB302300AC
:10256000C8002100B605D7229031B92AA031352004
:10257000903122005B080319C12A93279031220071
:10258000DB0121003A08031DC92A3C0BC92AFA279E
:10259000903121006F08031D582A50307806031926
:1025A000582A38082300C8004808F800582A210093
:1025B000911222000C12A601A70121009116080019
:1025C00070302000BD002330BE008030AB00BF3033
:1025D000AC007C30AD000030AE01BD239031200056
:1025E000B600BC003C08031D08007030F400233026
:1025F000F5008030B600F6007C30B700F700852487
:10260000903170302000AB002330AC007C30AD0046
:102610000030AE01BD2390312000B600BC003C0864
:10262000031D972B1E30BF013F0203185F2B3F088D
:10263000013EF300003003180130F400D030F50003
:102640000730F600EE23903120003F08B600B701B6
:10265000B635B70DB635B70D36083D0786003708D5
:102660003E3D87007308C03F7408C13F3F08B60075
:10267000B701F3003708F4006430F500F601EE23EB
:10268000903120003F08B800B901B835B90DB83510
:10269000B90D38083D07BA0039083E3DBB003A087D
:1026A00086003B08870042317308C03F7408C13F71
:1026B0000130B600BF071E303F02031C172B3F0836
:1026C000B600B701B635B70DB635B70D3608FC3EC6
:1026D000B800FF30373DB90038083D07BA00390867
:1026E0003E3DBB003A0886003B08870042313D086A
:1026F000783E840000303E3D8500403F803F413FB2
:10270000813F7030AB002330AC007A30AD00AE01B9
:102710005524903170302000A0002330A10080307B
:10272000B600A2007C30B700A300AA24903180300C
:102730002000A0003F30A1004830B600A2003225A2
:10274000903180302000AA003F30AB007030AC00E8
:102750002330AD007C30B600AE00C624903180300E
:102760002000AB00BF30AC007C30AD000030AE01CB
:10277000BD232000B600BC0008003430F300003058
:10278000F40020002D082B07AF002E082C3DB000D0
:102790002F08FE3EF500FF30303DF6000230B1005C
:1027A000F7007827903120002C08F4002B08F30064
:1027B0002D08FE3EF500FF302E3DF6000C24903132
:1027C00074082000B3007308B20033083506031DF7
:1027D000EB2B32083406031D003401342000A00125
:1027E000A101731CF82B75082000A0077608A13DF5
:1027F0000130F535F60D890BF92B0130F436F30C69
:10280000890BFE2B73087404031DF12B2000210893
:10281000F4002008F300080076082000A6007508E0
:10282000A500FF30A000A900A000AA000130A50269
:102830000030A63B250F1F2C260A0319462C7308CF
:1028400084007408850000082A06A000A101A700E2
:102850002108A8000130F3070030F43D2808850066
:102860002708840000308407A830853D0008290629
:10287000A000AA00280885002708840000308407EB
:10288000A930853D0008A000A900162C2A08A00048
:10289000A1012908A200A301A300A201200822048B
:1028A000F30021082304F400080020002C08F400A1
:1028B0002B08F3002E08F6002D08F5000C247408F0
:1028C0002000B5007308B4002D082B07AF002E08B8
:1028D0002C3DB0002F0886003008870034088100A6
:1028E0003508AF002D08013EB00000302E3DB1008C
:1028F00030082B07B20031082C3DB30032088600A7
:10290000330887002F08810008002000A101770804
:1029100021020318080076089F2490312000A000AF
:102920007408860075088700200881000130F407CC
:102930000030F53D0130A000F607A107872CF30019
:1029400023009100151395131514000000002300B7
:1029500013080800F7012000230877020318080075
:10296000200020088600210887000108F600F300F7
:102970002208B531F925903101302000A007003040
:10298000A13D0130F600A207F707AB2C20002B0871
:10299000B2002A08B1002E080319080031081F39B7
:1029A000F600AF00E0303105B1002030B301330252
:1029B0000318F52C33083107F30032080318320AE4
:1029C000F400AA31DA22903120003335203E86000F
:1029D000023087007308C03F7408C13F0130F60021
:1029E000B30720303302031CDA2CB0012F08F600A5
:1029F000B3002030330203181F2D2C0886002D0849
:102A000087000108F600F7013335203E86000230CA
:102A100087007608C03F7708C13F0130AC0700301F
:102A2000AD3D0130F600B0072E08300203181F2D0F
:102A30000130F600B30720303302031CFD2C3208AE
:102A4000A1003108A0002030F600A200B7317E2797
:102A5000903120003008AE02F600F701B107770888
:102A6000B23DCB2C200022080319080020002108C9
:102A7000F4002008F300B731E32790312030200024
:102A8000A0070030A13D20302202031C4A2D203037
:102A9000A202322DA201322D03302100CC002000F1
:102AA000CA006A30CB00AA30CC00B0302100CD0083
:102AB0002000CD0060309C315B2490312100CE009D
:102AC000BB003B08031D00341230CC00C70020308F
:102AD000CC002000CA00C7302100CD002000CB0070
:102AE0000030A92790312100CE00BB003B08031D18
:102AF00000347030F3002330F4002030F50004304F
:102B0000F6001230CC00F700782707302100CC0007
:102B10002000CA006A30CB00AA30CC00B0302100BF
:102B2000CD002000CD0060309C315B24903121002D
:102B3000CE00BB003B08031D00340430CC00C600AF
:102B4000073046020318ED2D1230CC00C70032309A
:102B5000CC002000CA00C7302100CD002000CB00EF
:102B600021004608A92790312100CE00BB0046086D
:102B7000CC00F030CD01CC0ECD0ECD054C080F3978
:102B8000CD04F030CC054C08C03ECE00FF304D3DAA
:102B9000CF007030D0002330D1004E085007F30032
:102BA0004F08513DF4003230F5000430F60010308B
:102BB000D200F7007827903121003B080319E52D5A
:102BC0000230CC002200A800ED2D01302100CC0005
:102BD000C60707304602031CA42D70302000AB004E
:102BE0002330AC003030AD000030AE01BD23903159
:102BF0002100CC002000ED006D0803190034703076
:102C0000EE002330EF006E0886006F0887004C311D
:102C1000010FB22E02302100CC002200DB00403038
:102C2000C7000630C801C9004B30CA01F3000130AB
:102C3000F40020006E08203EF50000306F3DF600E5
:102C400006302100CC00F70078279031C030F30027
:102C50002330F4007030F5002330F60030302100CE
:102C6000CC00F70078279031932790312100CC00D9
:102C70002000ED007030F3002330F400C030F50088
:102C80002330F60030302100CC00F7007827903157
:102C900020006D080319B22E6E0886006F088700A9
:102CA0004C3181016E08203EF30000306F3DF4008E
:102CB0000630F5012100CC00F6009F31A4279031A9
:102CC00070302000AB002330AC002E30AD00AE01E0
:102CD0005524903104302100CC00C6000730460254
:102CE0000318B22E3230F3000430F4004608CC0052
:102CF000F030CD01CC0ECD0ECD054C080F39CD04F2
:102D0000F030CC054C08C03ECE00FF304D3DCF002A
:102D10007030D0002330D1004E085007F5004F0826
:102D2000513DF6001030D200F700782732302100F4
:102D3000CC002000E90010302100CD002000EA0086
:102D4000210046089C31B42490312100CE00BB0004
:102D50003B08031DB22E0130CC00C60707304602E7
:102D6000031C722E04308400BF308500003F210018
:102D7000CC00013FCD00023FCE00033FCF004F0803
:102D80004E044D044C04031D142FBF3084018500F4
:102D9000003FCC00013FCD00023FCE00033FCF00FB
:102DA00020006E0886006F0887004831403F2100F0
:102DB000D000413FD100423FD200433FD3004F08F3
:102DC0005306031DED2E4E085206031DED2E4D0831
:102DD0005106031DED2E4C0850060319F42E033046
:102DE000CC002200A800003404302200C7000230CA
:102DF000C8012100CC002200DB000430C9004B30A8
:102E0000CA01F3000130F4002030F5000430F60070
:102E10002100CC00F70078279031932790312100D2
:102E2000CC002000ED006C2F20308600043087009D
:102E3000403F2100CC00413FCD00423FCE00433F08
:102E4000CF0004308400BF308500003FD000013F38
:102E5000D100023FD200033FD3004F085306031DA9
:102E60003B2F4E085206031D3B2F4D085106031DF4
:102E70003B2F4C085006031D672FBF30840185008F
:102E8000003FCC00013FCD00023FCE00033FCF000A
:102E900020006E0886006F0887004831403F2100FF
:102EA000D000413FD100423FD200433FD3004F0802
:102EB0005306031D652F4E085206031D652F4D084E
:102EC0005106031D652F4C08500603196C2F033063
:102ED000CC002200A800003420302100CC00F300F8
:102EE0004030F400BF30F500BC308731D0270134CA
:102EF0007708031908007508840076088500000823
:102F00002000A00073088600740887002008810054
:102F10000130F5070030F63D0130F3070030F43D95
:102F20000130F702782F22005B08031900345B0B95
:102F3000A32F6F082000C000B60022002A08A0209E
:102F400090312200DB0102305B06031D01340120B9
:102F500001342000CF004A08031904344B088600CE
:102F6000123087010102031C04343030CC004A08BF
:102F70008600043087004C0881004F08CC004A0AC4
:102F800086004C0881004A08A6000430A7000230E1
:102F9000CC00A8004A08023EA9000430AA009D31D6
:102FA0005A2590312000CD00D00050080319DA2FA7
:102FB000500808003030CC00B1004A08B20004309C
:102FC000B300CD00B4004A08B5000430B6004B0889
:102FD000CE00B7000C30B801B901BA01BA0A983175
:102FE00008283E308400BF3085000008F30021002F
:102FF000BA00080021003617BA190800B531E62DCD
:10300000FF3FFF3F7434773464346C346234673488
:103010002000C1003808031D1028BF01C001192875
:103020003808860087010108BB00BC01BF003C08CE
:10303000C0003F08BB00BD003908BB000330BB35F2
:10304000FF3E031D1F283B353D07BC00BE0001307D
:10305000F701B72198317F302000BB00F700043022
:10306000B721983180302000BB00A2000A30F02543
:10307000983120003308A1003208A0003408BB00BA
:10308000A20009300026983120003E08BB00F7005E
:103090000D30B721983120004108BB00F700013006
:1030A000B72198310C3020004106031D5D28803087
:1030B000BB00A2000D30F0259831D0302000C600B2
:1030C0000730C7004608470403197A280430B92599
:1030D00098312000BB00C9003105031D7A2849182A
:1030E00003340130C6020030C73B460847040319C9
:1030F000033462280630B92598312000BB00C40093
:103100001339031D0134350836040319BB28370869
:103110000319BB280A30B92598312000BB00C9002B
:1031200037088600870149080102031C0434490856
:10313000BB00370886003B0881003608A10035082F
:10314000A0004908BB00A2003908BC00A300093058
:10315000622698310C30B925983107392000BB0020
:10316000C80038080319BB284808BB003808860087
:1031700087013B088100C41902343508360403195D
:1031800000343708031900343A08031900343708AB
:1031900086008701010BD028043048060319FF344C
:1031A00037088600023087010102031C07344808F3
:1031B000031D07343608A7003508A6003708860027
:1031C0000108FE3EBB00A8004230A9000030AA0062
:1031D0005A2598312000BC00C50045080319F22883
:1031E000450808003708860087010108FE3EBB003D
:1031F000FF3003180030BC003B08350786003C0850
:10320000363D870001084206031D07343708860053
:1032100087010108FF3EBB00FF3003180030BC00EF
:103220003B08350786003C08363D87000108430609
:10323000031D073400340030272298312000310864
:103240000319080020003008AA002F08A90031083F
:10325000B200B301AB003308AC00AC2698319D2618
:1032600098314C30F3009030F400192298314C30F2
:10327000F3009030F400192298314C30F300903074
:10328000F400192298314C30F3009030F4001922E8
:1032900098314C30F3009030F4001922983101300D
:1032A0002000B1021E2921008D120E118E110E1266
:1032B0008E1622008D160E158E158E163730F300E1
:1032C0000730F4001922983122008D123730F300B4
:1032D0000730F4001922983122008D163730F300A0
:1032E0000730F40019229831232698313730F30043
:1032F0000730F4001922983180302000A800F70030
:103300002A30B7219831A9302000A800F7002B30CF
:10331000B721983104302000A800F7002C30B721E5
:103320009831E8302000A800F7002D30B7219831FF
:1033300040302000A800F7001530B72198313D300B
:103340002000A8002808F7001130B7219831373045
:10335000F3000730F400192298317030312698318B
:10336000422298313730F3000730F400192A200048
:10337000A00022000E118E11200020357E39CF25AD
:1033800098317708CF2522000E150800003027223B
:10339000983122008C1527000C148C1422000C1577
:1033A0000C144C30F3009030F400192298314C305A
:1033B000F3009030F400192298314C30F300903033
:1033C000F400192298314C30F3009030F4001922A7
:1033D00098314C30F3009030F40019229831FF30CE
:1033E000272298314C30F3009030F40019229831A4
:1033F0004C30F3009030F400192298314C30F30037
:103400009030F400192298314C30F3009030F400E1
:10341000192298314C30F3009030F4001922220028
:103420008C1127000C108C1022000C110C108C1425
:1034300008000130F3020030F43B730F222A740AB3
:10344000031908000000000000000000192A2000F5
:10345000A000A10118302102031808002108F30080
:10346000F40122006D07F50074086E3DF600750842
:103470008600760887002000200881000130F300D4
:10348000A1072A2A1430B92598312000A200A300F0
:103490000339A200033A0319080023080338A200E5
:1034A000F7001430B72944302100CC002000EE0092
:1034B00056302100CC002000EF000F302100CC005E
:1034C0002000CA00BC30CB000130CC00B03021005D
:1034D000CD002000CD0061305B2498312100CE006A
:1034E000BB0020308400BF308500003FCC00013F8E
:1034F000CD0020006F08043E860004308700403F66
:103500002100CE00413FCF004D084F02031D8A2A03
:103510004C084E020318D12A0C308400BF308500BD
:10352000003FCC00013FCD00023FCE00033FCF0063
:1035300020006F0886000430870021004C08C03F3F
:103540004D08C13F4E08C23F4F08C33F20308600A0
:10355000BF30870020006F08043E840004308500DF
:10356000403F803F413F813F5630AB000430AC00CC
:103570000630AD00AE01943155249831563021000B
:10358000CC002000E90010302100CD002000EA002E
:103590000C30B42498312100CE00BB003B08031D41
:1035A000003420006E08860004308700403F210070
:1035B000BE00413FBF00423FC000433FC1003E0844
:1035C000CC003F08CD004008CE004108CF002000CD
:1035D0006F088600403F2100D000413FD100423FAC
:1035E000D200433FD300D009D109D209D309D00A70
:1035F0000319D10A0319D20A0319D30A5008CC07B8
:103600005108CD3D5208CE3D5308CF3D4F08C10073
:103610004E08C0004D08BF004C08BE00C11B1D2B4A
:103620004108031D222B4008031D222B3F08031DC8
:10363000222B01303E020318222B0E30CC00220038
:10364000A800003424308400BF308500003F2100F2
:10365000CC00013FCD00023FCE00033FCF004F081A
:10366000803AD0004108803A5002031D412B4008A7
:103670004E02031D412B3F084D02031D412B3E0806
:103680004C0203184F2B24308400BF308500003FCC
:10369000BE00013FBF00023FC000033FC100200049
:1036A0006F0886000430870021003E088107413101
:1036B0003F08813D41314008813D41314108813D14
:1036C00020006F08043E8600043087000130810727
:1036D00041310318810A6F08043E860004308700D8
:1036E000403FF900413FFA005630AB000430AC00D7
:1036F0000630AD00AE019431552498310C302200D3
:10370000C7000230C8012100CC002200DB000630D7
:10371000C900CA01210042083E07CC0043083F3DD2
:10372000CD004408403DCE004508413DCF004F0844
:10373000C5004E08C4004D08C3004C08C200283024
:103740008400BF308500003FCC00013FCD00023F28
:10375000CE00033FCF004508803AD0004F08803AA2
:103760005002031DBD2B4E084402031DBD2B4D0806
:103770004302031DBD2B4C084202031CEB2B4208E5
:10378000CC004308CD004408CE004508CF003E09D8
:10379000D0003F09D1004009D2004109D300D00A2E
:1037A0000319D10A0319D20A0319D30A5008CC0706
:1037B0005108CD3D5208CE3D5308CF3D4F08C500BE
:1037C0004E08C4004D08C3004C08C2001430CC00A1
:1037D0002200A800003421003E08CC003F08CD00A4
:1037E0004008CE004108CF000C308400BF30850077
:1037F000003FD000013FD100023FD200033FD30081
:103800005008CC075108CD3D5208CE3D5308CF3D5E
:103810004F08C1004E08C0004D08BF004C08BE0054
:103820004B30F3000130F400BE30F5000030F600FC
:103830000430CC00F7009731782798314F30F300EF
:103840000130F4007930F5000030F600023021003C
:10385000CC00F7009731782798319731932798312A
:103860002100CC002000ED000F302100CC00200012
:10387000CA00BC30CB000130CC00B0302100CD00FC
:103880002000CD0061305B2498312100CE00BB00C8
:103890005630CC002000E90010302100CD0020007F
:1038A000EA000C30B42498312100CE00BB003B0864
:1038B000031D003401342000DD001030CE00DE0096
:1038C0005D08CE00D1004A08CE00D2000630DF01EC
:1038D0005F020318862C4C08CF004B08CE005F080F
:1038E0004E0784004F0803184F0A85000008D000D7
:1038F0005F08023E513E860087015008810001307A
:10390000CE00DF0706305F02031C6B2C0430DF01A2
:103910005F020318A22C5F08013E4D07CE0086000F
:10392000013087000108CF005F08083E513E860045
:1039300087014F0881000130CE00DF0704305F02AD
:10394000031C8B2C5E08CE00B1005130B200003059
:10395000B3000C30CF00B4000E30B501B601B70192
:10396000B801B901BA0108282100C800200069087F
:103970000319063410306A02031C0634A030EB0031
:103980002100C90048082000EB002100CA00C9300E
:103990002000CA000030CB000230EB00CC00CD018B
:1039A000EF2498312000EC002100CB004B080319D4
:1039B000DB2C4B08080020006908CA000430CB004B
:1039C0006A08EB00CC00CD01EF2498312000EC0018
:1039D0002100CB004B08031900344B0808002000DD
:1039E0004A084B040319063411304C0203180634FC
:1039F0005330F3000030F4004B08F6004A08F5009D
:103A00004C08CE00F70097317827983153302000CA
:103A1000A6000030A7004C08CE00A8004C08533E7A
:103A2000A9000030AA015A2598312000CF00E800F3
:103A3000680803191D2D680808000230CE00CC0765
:103A40003030CE00E5001230CE00E700E601650818
:103A5000CE00B1005330B2000030B3004C08CF00AC
:103A6000B4005330B5000030B6006730D000B70066
:103A70006630D100B8000C30B901BA010820983185
:103A80002000D200E8004D0803194A2D03306806D3
:103A900003190034680803194F2D68080800670BE4
:103AA000013404306606031D01340A305306031D39
:103AB000FF34003437302000AF000730B000013051
:103AC000F701B721983104302000AB00F700053032
:103AD000B721983180302000AB00A2000A30F025D9
:103AE000983120002708A1002608A0002808AB0074
:103AF000A20009300026983103302000AB00F70007
:103B00000130B721983120002F0830040319952D7A
:103B100001302000AF020030B03B0530B9259831AC
:103B20002000AB00AE002E1D832D2F08300403199A
:103B300003340130F701B72198312230B92598318B
:103B40002000AB00290886002A0887002B08810086
:103B50002130B9252000AB002908013EAC0000301F
:103B60002A3DAD002C0886002D0887002B08810017
:103B700000342000A000A10122000E118E112000AF
:103B800020357E398038CF2598310030CF25F70099
:103B90002000A10022000E15200021080800F400DA
:103BA0000830F501F60176020318EC2D22008E1183
:103BB000F41FDC2D0E16DD2D0E128E150310F40DE4
:103BC0000310F50D20008E1A75140130F300F6076E
:103BD00008307602031CD62D22008E1175080800CD
:103BE0002000A500A401B92598312000A300A4005D
:103BF0002208A300A4042408A300F7002508B7297D
:103C00002000A30022000E118E11200023357E39E2
:103C1000CF2598312000A401220824020318202E69
:103C200020088600210887000108CF25983101303F
:103C30002000A0070030A13D0130F700A4070C2EA2
:103C400022000E1508000F302000A200F7000130FE
:103C5000B72198310130B92598311039031908007E
:103C60002A2E2000A7005626983120002706031987
:103C700008007030A600A2002630462698312000A9
:103C800027087039A600A2002630F02D2000A500DC
:103C9000A401B92598312000A300A4002209A300A3
:103CA000A4052408A300F7002508B7292000263022
:103CB000A301B9252000A200A3007030A200A30533
:103CC000230808002000A40022000E118E112000FD
:103CD00024357E398038F700A500CF2598312000A3
:103CE000A601220826020318882E2508CF25983120
:103CF000F70020002008860021088700770881004F
:103D00000130A0070030A13D0130F700A607712E59
:103D100022000E1520002308623E8400AA300318FA
:103D2000013E85000008F700A600F7002008860085
:103D30002108870077088105080022006E08F4003A
:103D40006D08F3002F30F5000130F6001830200028
:103D5000A100F7009731782FB42798315C30F30039
:103D60000130F40020302000AD00F5000830AE0036
:103D7000F600A4272200E40120002A08F400290804
:103D8000F3005C30B6311526983120002C08FA007B
:103D90002B08F9000A30F300F4017A08F6007908DC
:103DA000F500442798317308303E2000AD00220012
:103DB000E3000A302000A200A3017A08A5007908D8
:103DC000A4007027983120002308FA002208F90087
:103DD0007A0403193C2F0A30F300F4017A08F60044
:103DE0007908F500442798317308303E2000AD0073
:103DF0002200E2000A302000A200A3017A08A500F8
:103E00007908A4007027983120002308FA002208BE
:103E1000F9007A0403193C2F0A30F300F4017A0800
:103E2000F6007908F500442798317308303E2000E9
:103E3000AD002200E1000A302000A200A3017A08B0
:103E4000A5007908A4007027983120002308FA0003
:103E50002208F9007A0403193C2F0A30F300F40118
:103E60007A08F6007908F500442798317308303E47
:103E70002000AD002200E0005C302000A2000130F4
:103E8000A300BD2798319D2E7308740403196B2F6E
:103E90002000A001A00AF41B562F0130F335F40DC9
:103EA000890B4E2F0130F700A0074B2F74087602C4
:103EB000031D5C2F73087502031C622F7308F50243
:103EC0007408F63B0130F436F30C890B632F013094
:103ED000A002031D562F7608F4007508F3000800B1
:103EE0002000A601A7012208230403199F2FA8017F
:103EF000A80AA31B842F0130A235A30D890B7C2FA8
:103F00000130F700A807792F0130A635A70D890BDE
:103F1000852F23082502031D8F2F22082402031C4E
:103F2000962F2208A4022308A53B26140130A336AD
:103F3000A20C890B972F0130A802031D842F27089C
:103F4000A3002608A2000800AF2F7308860074089B
:103F50008700750881000130F3070030F43D01301F
:103F6000F602760FA52F08002F30F3000130F40081
:103F70001830F501F700F600A42F2000A501A601D6
:103F8000220884002308850012000319FF2F28301F
:103F9000A60126020318E42F2608003E8400AA305A
:103FA0000318013E85000008A400220884002308AD
:103FB0008500000824060319E42F0130A400A60799
:103FC00028302602031CCC2F283026020318F62F97
:103FD0002508A400F5002608293E8400AA3003180D
:103FE000013E85000008AD31542598310130200094
:103FF000A2070030A33D0130A400A507C02F9D2ECD
:10400000FF3FFF3FFF3FFF3FFF3FFF3F21001112F8
:1040100008002000A201A301DF21A0312100370800
:10402000031D16282000A001A1010800F301F401DE
:104030001022A031DF21A0310222A031740820001B
:10404000A3007308A2002100370803192F280730A6
:1040500020002302D13003192202031C1A28200059
:104060002308A1002208A0000800DF21A0312100C0
:104070003708031975281E302000DB002100EF00EF
:10408000752801308720A03180289327A031003A7D
:10409000031D802800308720A03180280920A0310E
:1040A00020002108FA002008F90007307A02D030F9
:1040B00003197902031C6C28053021003706031D03
:1040C0006528AC316224A0316F282100370B6F289E
:1040D000AE315826A0316F28AA31F422A031083021
:1040E0002000DB002100B70080283708013A0319BF
:1040F0004E28033A03194528063A03194128802817
:1041000021003708031908001A22A03109282000CD
:10411000DA00033078020318FD285A08E52F200042
:10412000C830C901CA01CB00CC015A08D900CD0062
:1041300065301B29F4302000C9000130CA0013305B
:10414000CB000630CC005A08D900CD0065301B29C1
:104150002000B830C901CA01CB000B30CC005A088E
:10416000D900CD0065301B292000FF30C901CA01EC
:10417000CB00CC015A08D900CD0065301B292000A6
:104180001430C901CA01CB00CC015A08D900CD00B6
:1041900065301B290A302000C900E830CA01CB0075
:1041A0000330CC005A08D900CD0065301B2920000F
:1041B000E830C901CA01CB000330CC005A08D9004D
:1041C000CD0065301B299C302000C900FF30CA009B
:1041D0006430CB00CC015A08D900CD0065301B29D2
:1041E0009C302000C900FF30CA006430CB00CC01F5
:1041F0005A08D900CD0065301B297808103A0319F8
:104200008F28503A03199A28103A0319A828203AFF
:104210000319BF28F03A0319CA28103A0319D728FE
:10422000303A0319B428103A0319E328013A031964
:10423000F0281A2908002000D800D301D30AD4019D
:10424000D501210037082000CE00D2004A08803A6C
:10425000CE004C08803A4E02031D30294B0849021B
:1042600003180800F301F4011022A0312000530BC1
:104270008D29D3014D0803196329580886000130A0
:104280008700810741310318810A580886000130F0
:104290008700403FCE00413FCF004C08803AD0001D
:1042A0004F08803A5002031D57294E084B0203184D
:1042B0008B29200058088600013087004908C03F3C
:1042C0004A08C13F8B295808860001308700403FCB
:1042D000CE00413FCF004A08803AD0004F08803AD4
:1042E0005002031D75294E084902031C8129200034
:1042F00058088600013087004B08C03F4C08C13F7A
:104300008B2920005808860001308700FF30810784
:104310004131813D7F311A22A031DF21A0312000BF
:10432000520821003706031D08000222A03174083C
:104330002000D7007308D60003305702E930031974
:1043400056020318B4295409CE005509CF00CE0AED
:104350000319CF0A56084E07D00057084F3DD10029
:1043600000305102C830D42907305702D130031928
:1043700056025409CE005509CF00CE0A0319CF0AC0
:1043800056080318CC294E07D00057084F3DD100DE
:10439000003051026430D4294E07D00057084F3DF9
:1043A000D100003051020A3003195002031C362993
:1043B0005708D5005608D400D301D30A3629210066
:1043C0000E30B70120000D05F5000E3A0319080064
:1043D0003730F3000730F4009A311922A0310E3043
:1043E00020000D05F5000E3A031908000D080E39DE
:1043F000F5002100B70007300310B70CB709F5002E
:10440000B70508000B138B1323002B08F6002A08AE
:10441000F5008B170B177608F4007508F3000800F9
:104420000B138B1374082300AB007308AA008B17BF
:104430000B170800F7302000C7002100B6057808E8
:10444000003A0319572A013A03195F2A033A03195C
:10445000662A123A03196F2A303A03198B2A103A46
:1044600003198C2A703A03198D2A103A03198E2ADF
:10447000203A03198F2AF03A0319902A103A0319A7
:10448000912A303A0319922A103A0319932A013AD1
:104490000319942A713A0319952A103A0319972A95
:1044A000013A0319972A213A0319962A982A6B246C
:1044B00027008C1422008C1127000C100800BD244A
:1044C00022008C1527000C108C1008008831B920B0
:1044D00027000C1422008C1127008C1008002200E9
:1044E00065082000C700C8012200A200200048087B
:1044F0002200A300C9302000A900AA30AA0022008F
:1045000023082000AC00220022082000AB009E31CE
:10451000AC269E319D2E992ACB2A902D222DA22B9E
:10452000712B8C2BDC2A2A2BF52AEE2A5F2BAC2A46
:1045300008008831B920A031031027000C1C031497
:10454000031CA52A27000C14A72A27000C10220000
:104550008C1127008C10080004308400BF308500C7
:10456000003F2000A700013FA800023FA900033F31
:10457000AA00290428042704031DC42A8230A200AB
:10458000AA30A3009F31BD2F8B302000A200AA309B
:10459000A3009F31BD2FBD24A031031022008C1D2C
:1045A0000314031CD62A22008C15D82A22008C1151
:1045B00027000C108C100800C3302000A900AA307E
:1045C000AA00220065082000AF00B001AB0030084F
:1045D000AC009E31AC26A0319E319D2E943020003F
:1045E000A200AA30A3009F31BD2F653086000130A4
:1045F0008700403F2100A800413FA900A91B122BC2
:10460000B1302000A900AA30AA002100290820000A
:10461000AC00210028082000AB009E31AC26A03160
:104620009E319D2E2100A809A909A80A0319A90AEB
:10463000BD302000A900AA30AA00210029082000CE
:10464000AC00210028082000AB009E31AC26A03130
:104650009E319D2E6530860001308700403F21004D
:10466000A800413FA900A91B472BAB302000A9009F
:10467000AA30AA00210029082000AC002100280847
:104680002000AB009E31AC26A0319E319D2E210032
:10469000A809A909A80A0319A90AB7302000A90086
:1046A000AA30AA00210029082000AC002100280817
:1046B0002000AB009E31AC26A0319E319D2ED6301D
:1046C0002000A900AA30AA001A308400BF3085005B
:1046D000003FAB00013FAC009E31AC26A0319E31C3
:1046E0009D2E6530860001308700403FF900413F34
:1046F000FA00CE302000A900AA30AA007A08AC0047
:104700007908AB009E31AC26A03120000230B20106
:10471000B20A7A269E319D2E6530860001308700D0
:10472000403FF900413FFA00D2302000A900AA30F2
:10473000AA007A08AC007908AB009E31AC26A03103
:104740009E319D2E9D302000A900AA30AA00220093
:1047500065082000AF00B001AB003008AC009E310E
:10476000AC26A0319E319D2E0B138B1321002D08FA
:104770002200A10021002C082200A0008B170B179B
:1047800021003008A4003108A500A601A7012200DD
:1047900020082000A000220021082000A100A20182
:1047A000A301210027082000A700210026082000DF
:1047B000A600210025082000A500210024082000D3
:1047C000A4008F31D327A031200023082100A700A7
:1047D000200022082100A600200021082100A500B9
:1047E000200020082100A40020000330A301A20122
:1047F000A100E830A000210027082000A700210028
:1048000026082000A600210025082000A500210080
:1048100024082000A4002C26A03120002308210019
:10482000A700200022082100A60020002108210066
:10483000A500200020082100A40020003C30A30196
:10484000A201A101A000210027082000A70021004B
:1048500026082000A600210025082000A500210030
:1048600024082000A4002C26200020082100B207E4
:10487000200021082100B33DE8302000A2000330D1
:10488000A300210033082000A500210032082000E9
:10489000A4009F317027A031200022082100B40716
:1048A000200023082100B53DE830F3000330F40078
:1048B0003308F6003208F5009F31442774082100C0
:1048C000B3007308B20003303502E9300319340233
:1048D000031836170800210030082000C20021000C
:1048E00031082000C3003D30C401C5018400BF3041
:1048F00085000008C000C60004304602031C832C5B
:104900000330C000C6005C30F3000130F4003030EA
:10491000C000F5000930C100F6009F31A427A03186
:104920002200E40120004508B9004408B80043080B
:10493000B7004208B6000830C000BA0063308A31C0
:104940003622A03120004608013EFF3A013E083ED3
:10495000C000F3005C308A311E22A0319F31B427A1
:10496000A0312000B201B20A46087A265C3020004D
:10497000A2000130A3009F31BD2F3B308400BF3027
:10498000850000082000C000C20030308400003FD5
:104990002100A000013FA100023FA200033FA300AD
:1049A000043020004202031CD82C0330C000C20097
:1049B00021003408A0073508A13D0030A23DA33DE9
:1049C0005C30F3000130F40030302000C000F5000E
:1049D0000930C100F6009F31A427A0312200E40174
:1049E000210023082000B900210022082000B8007F
:1049F000210021082000B700210020082000B60077
:104A00000830C000BA0063308A313622A03120005D
:104A10004208013EFF3A013E083EC000F3005C3010
:104A20008A311E22A0319F31B427A0312000B2016B
:104A3000B20A42087A265C302000A2000130A300AE
:104A40009F31BD2F210039082000C000C3005C3019
:104A5000F3000130F4003030C000F5000930C1002F
:104A6000F6009F31A427A03164302000C000F3007D
:104A7000430830272000C100C3000A30F300F401CE
:104A80004308C000C101F5004108F6008E31B4268C
:104A9000A0317308303E2000C2002200DC000A3042
:104AA000F300F40120004308C000C101F5004108F3
:104AB000F6004E277308303E2000C2002200DD00C1
:104AC0006530860001308700403F2000C000413F34
:104AD000C1004008B6004108B700890D893B89092B
:104AE000B800B9000430C200BA0063308A313622FF
:104AF000A03104302000C000F3005E308A311E2255
:104B0000A0319F31B427A03120000130B201B20A98
:104B10007A265C302000A2000130A3009F31BD2F17
:104B2000210030082000C200210031082000C3000D
:104B30003D30C401C5018400BF3085000008C000BD
:104B4000C60004304602031CA82D0330C000C60076
:104B50006530860001308700403FC000413FC10002
:104B60004008A0004108A100A201A3014508A70038
:104B70004408A6004308A5004208A4008F31D327AB
:104B8000A03120002308C5002208C4002108C3006A
:104B90002008C2001A308400BF308500003FC000EA
:104BA000013FC1004008A0004108A100890D893BD8
:104BB0008909A200A3004508A7004408A6004308ED
:104BC000A5004208A4002C2620002308C5002208C6
:104BD000C4002108C3002008C2005C30F30001308B
:104BE000F4003030C000F5000930C100F6009F31FC
:104BF000A427A0312200E40120004508B9004408A0
:104C0000B8004308B7004208B6000730C000BA0039
:104C100063308A313622A03120004608013EFF3A37
:104C2000013E083EC000F3005C308A311E22A031F4
:104C30006C302000C0002200DC009F31B427A0317E
:104C40002000B201B20A46087A265C302000A20099
:104C50000130A3009F31BD2F2000AB01AA01A901A3
:104C6000A80123082204210420040319712EAC0199
:104C7000AC0AA31B462E0130A035A10DA20DA30D39
:104C8000890B3C2E0130F300AC07392E0130A835DA
:104C9000A90DAA0DAB0D890B472E23082702031D72
:104CA0005B2E22082602031D5B2E21082502031D10
:104CB0005B2E20082402031C662E2008A402210873
:104CC000A53B2208A63B2308A73B28140130A336A6
:104CD000A20CA10CA00C890B672E0130AC02031DA5
:104CE000462E2B08A3002A08A2002908A1002808A4
:104CF000A00008002000B50020003508840008301E
:104D0000040203180800B0310435103E8200080088
:104D10001830B300A8003208B400A9000330C42E34
:104D20001A302000B300A8003208B400A9000330F4
:104D3000C42E2C302000B300A8003208B400A90013
:104D40000330C42E15302000B300A8003208B40090
:104D5000A9000330C42E04302000B300A80032089C
:104D6000B400A9000330C42E02302000B300A80014
:104D70003208B400A9000330C42E2000A801320874
:104D8000B300A9000330C42E2000AF002E3028024B
:104D90000318080004302F02031808000C30AA0082
:104DA000A4002808AB00AC01F5002C08F600183070
:104DB000F300F4018E31B426A03173088F3104273B
:104DC000A0312000AD00AE000330AA00A4002F08DF
:104DD0008F310427A0312000AB00AE071830AA00A5
:104DE000F300280830272000AB00A8000830F300AB
:104DF000F4012808AA00AB01F5002B08F6008E315B
:104E0000B426A03173082000AC00AE07280807398B
:104E1000AA00B1002E082F3EAA00B00029080130D8
:104E2000AA000319212F310A162FAA35890B152F35
:104E30002A08AB0030088600013087002B08810467
:104E40000800310A242FAA35890B232F2A08FF3A9C
:104E5000AB0030088600013087002B088105080070
:104E60002000A0000830F400A100A2012008F400F6
:104E70000730F436890B392F22357404F500A2006F
:104E80000310A00D73082202031C482F7308A2020E
:104E90000130A102031D362F220808002000A101C5
:104EA000F61F592FF509F609F50A0319F60AA101AB
:104EB000A10AF41F602FF309F409F30A0319F40A95
:104EC000730874040319862FA001A00AF41B712F24
:104ED0000130F335F40D890B692F0130F700A0077D
:104EE000662F74087602031D772F73087502031C62
:104EF0007D2F7308F5027408F63B0130F436F30C8D
:104F0000890B7E2F0130A002031D712F2108031988
:104F10008E2FF509F609F50A0319F60A7608F4004A
:104F20007508F3000800D92F2C302200C70002308A
:104F3000C801F700DB000430C9004B30CA01F300A0
:104F40000130F4000430F501F700F6009F31A4278A
:104F500021003808F700F800013430302200C70083
:104F60000230C801F700DB000430C9004B30CA0131
:104F7000F3000130F4000430F501F700F6009F3132
:104F8000A42721003808F700F8000134043022007B
:104F9000C7000230C801F700DB000430C900D1307F
:104FA000CA01CE01CD01CC01CB01F700F8000134DC
:104FB00000347808203A0319942F103A0319AD2FC2
:104FC000E03A0319C62FD82F0800F400740803191B
:104FD000F22F0130F300F80703307802031CFB2F97
:104FE000F801FB2F7808031DF92F0230F300F800B9
:104FF000FB2F0130F8027808F3002100B800080008
:105000000034C134813440340134C03480344134FC
:105010000134C034803441340034C13481344034EC
:105020000134C034803441340034C13481344034DC
:105030000034C134813440340134C03480344134CC
:105040000134C034803441340034C13481344034BC
:105050000034C134813440340134C03480344134AC
:105060000034C134813440340134C034803441349C
:105070000134C034803441340034C134813440348C
:105080000134C034803441340034C134813440347C
:105090000034C134813440340134C034803441346C
:1050A0000034C134813440340134C034803441345C
:1050B0000134C034803441340034C134813440344C
:1050C0000034C134813440340134C034803441343C
:1050D0000134C034803441340034C134813440342C
:1050E0000134C034803441340034C134813440341C
:1050F0000034C134813440340134C034803441340C
:105100000134C034803441340034C13481344034FB
:105110000034C134813440340134C03480344134EB
:105120000034C134813440340134C03480344134DB
:105130000134C034803441340034C13481344034CB
:105140000034C134813440340134C03480344134BB
:105150000134C034803441340034C13481344034AB
:105160000134C034803441340034C134813440349B
:105170000034C134813440340134C034803441348B
:105180000034C134813440340134C034803441347B
:105190000134C034803441340034C134813440346B
:1051A0000134C034803441340034C134813440345B
:1051B0000034C134813440340134C034803441344B
:1051C0000134C034803441340034C134813440343B
:1051D0000034C134813440340134C034803441342B
:1051E0000034C134813440340134C034803441341B
:1051F0000134C034803441340034C134813440340B
:105200000034C034C1340134C33403340234C234F2
:10521000C63406340734C7340534C534C4340434C2
:10522000CC340C340D34CD340F34CF34CE340E3472
:105230000A34CA34CB340B34C93409340834C83482
:10524000D83418341934D9341B34DB34DA341A34F2
:105250001E34DE34DF341F34DD341D341C34DC34C2
:105260001434D434D5341534D73417341634D634F2
:10527000D23412341334D3341134D134D034103402
:10528000F03430343134F1343334F334F2343234F2
:105290003634F634F7343734F53435343434F434C2
:1052A0003C34FC34FD343D34FF343F343E34FE3472
:1052B000FA343A343B34FB343934F934F834383482
:1052C0002834E834E9342934EB342B342A34EA34F2
:1052D000EE342E342F34EF342D34ED34EC342C34C2
:1052E000E43424342534E5342734E734E6342634F2
:1052F0002234E234E3342334E13421342034E03402
:10530000A03460346134A1346334A334A2346234F1
:105310006634A634A7346734A53465346434A434C1
:105320006C34AC34AD346D34AF346F346E34AE3471
:10533000AA346A346B34AB346934A934A834683481
:105340007834B834B9347934BB347B347A34BA34F1
:10535000BE347E347F34BF347D34BD34BC347C34C1
:10536000B43474347534B5347734B734B6347634F1
:105370007234B234B3347334B13471347034B03401
:1053800050349034913451349334533452349234F1
:1053900096345634573497345534953494345434C1
:1053A0009C345C345D349D345F349F349E345E3471
:1053B0005A349A349B345B34993459345834983481
:1053C00088344834493489344B348B348A344A34F1
:1053D0004E348E348F344F348D344D344C348C34C1
:1053E00044348434853445348734473446348634F1
:1053F0008234423443348334413481348034403401
:105400003034313432343334343435343634373460
:105410003834393461346234633464346534663426
:105420006734683469346A346B346C346D346E3488
:105430006F34703471347234733474347534763438
:105440007734783479347A342E342D343A34203425
:1054500000343F3430345B344F3466346D347D3443
:1054600007347F346F3477347C3439345E347934A4
:1054700071346F34763430340E34003438340034C0
:1054800037343F347334673431346D3478343E34D8
:105490000034003400346E345B34403440344834DB
:1054A00000343034313432343334343435343634F7
:1054B00037343834393461346234633464346534B5
:1054C00066340034FF34FE34FC34F834F034E03415
:1054D000C0348034FF34FF34FF34FF34FF34FF34F2
:1054E0002D342D34663475346C346C342D342D34B5
:1054F000003420342D34683465346C346C346F34AB
:105500002D34003463346134723464342D3469349E
:1055100064343034003463346134723464342D3490
:105520006934643439340034723465346334683433
:1055300061347234673465340034203420342034CC
:10554000633475342D340034203463347334373489
:105550003034303400346434313420342034203456
:105560000034643432342034203420340034643441
:105570003134203420342D34003464343234203437
:1055800020342D34003461346434643472342D3466
:1055900000347034733464342D34003464346A3429
:1055A0002D34003473346A342D3400346C342D348B
:1055B0000034FF3F00308B1B0130F5008B13730864
:1055C000230091007408920015139517151400001C
:1055D0000000750C031C8B1303188B172300140891
:1055E000F4001308F3000800033078020318082BB6
:1055F0002200E501E60178082000C0002100B80083
:1056000022001030A201A3012000C000F800080011
:1056100050307806031D722B6530860001308700FC
:10562000403F2000C000413FC10021003908200058
:10563000C200C301C235C30DC235C30D4208023ECC
:10564000C4000030433DC500803044078400BF30B3
:10565000453D8500003FC600013FC7004106031DD0
:10566000332B400846060319482B22006530DB0126
:10567000DB0A860001308700403FCB00413FCC0071
:105680002000B601B60A210039089031A020AA31C5
:1056900001302000C0002100B9071E303902031874
:1056A000B90139082000C000C101C035C10DC035A5
:1056B000C10D4008023EC2000030413DC3008030B1
:1056C000C400BF30C5004208440786004308453D7A
:1056D00087006530840001308500403F803F413FB6
:1056E000813F0800210038082000C000F800220097
:1056F000A201A30108008C23AB3121008D140D15EC
:105700008D15EC23AB310524AB313D248F302F00B8
:1057100091008B170B1708009C23AB319723AB31FB
:10572000E823AB31CF23AB311E24AB310F2C7830C3
:1057300021009900980108002200900102308F009A
:105740008C0127008C0122008D0127008D01220091
:105750008E01DF3021009000FF3026008C002100F8
:105760008C003F3026008D00FF3021008D008E0020
:10577000FD308F00230090011C3028008D00FF3089
:105780008C002F3023008C00FF3024008D0020304F
:1057900029008D002100951322009D0108008C3006
:1057A000200098000130990080309700960117087A
:1057B0002100EE00200016082100ED00200011104D
:1057C000210011140030F301F4013424AB313A2CE0
:1057D000163021009700080023008C1121008C1145
:1057E00028000C1026000C1028008C1026008C10AD
:1057F00023000C1121000C1123000C1021000C10AF
:1058000023008C1021008C10080021000C128C1633
:105810000D160D1022008F1321008F130800210098
:1058200091121112083023009F00D0309D00643087
:105830009E001F309B0001309C00080021001508CD
:10584000C03907389500943020009500F5002300FA
:10585000C6000B118B16F301F4012E2C74082300E3
:10586000C3007308C200080074082300C500730851
:10587000C4000800200018140800412422008C14E1
:1058800008002F00921312131208F0390738920003
:105890001F3098009901F0309A0087309B009C01DE
:1058A0003C309D0000309A312722AB31FF302F0071
:1058B00095008030930000309A3127228F302F00DE
:1058C000910008004E2DA031092020302000B600A4
:1058D000F8000800A031092030302000B600F800A0
:1058E00008006530F3000130F4001A30F500BF30D5
:1058F000F60002302000B600F700973178274030DC
:105900002000B600F80008002100B9013908200085
:10591000B600B701B635B70DB635B70D3608023E3D
:10592000B8000030373DB9008030BA00BF30BB004E
:1059300038083A07860039083B3D87006530840007
:1059400001308500403F803F413F813F5030B600ED
:10595000F8000800F0302000B600F80008003930E8
:105960008400BF30850000082000B6002200E5005A
:1059700070302000B600F8000800BF3086018700B4
:1059800065305231840001308500403F803F413F07
:10599000813F80302000B600F8000800200064300D
:1059A000AB01AA01A901A80024308400BF30850002
:1059B000003FAC00013FAD00023FAE00033FAF002F
:1059C0008A31E022653086000130870020002808F7
:1059D000C03F2908C13F9030B600F800080064308D
:1059E000F3001430F4018400BF308500003FF5005F
:1059F000013FF6008E31B426653086000130870005
:105A00007308C03F7408C13FB0302000B600F800F2
:105A1000080009308400BF30850000082000B6006F
:105A20002200E500A0302000B600F8000800C030D9
:105A30002000B600F8000800D0302000B600F800C2
:105A4000080022002308003A0319272D532D2208AD
:105A5000043A0319AA2C023A03196A2C0E3A0319C4
:105A6000CE2C013A0319BD2C043A0319092D693AC9
:105A700003191C2D0E3A0319632C073A0319712CD4
:105A8000183A0319EF2CF03A0319AF2C153A031901
:105A9000172D383A0319842C532D08007808103A32
:105AA0000319212D532D0800F600750884000830D5
:105AB000040203180800B0310435003E82000800DB
:105AC0007608702D76088D2D7608AA2D7608C72DBC
:105AD0007608E42D7608012E76081E2E76083B2ED9
